:020000021000EC
:108000000060002061850100A5850100A7850100B1
:10801000A9850100AB850100AD85010000000000CD
:10802000000000000000000000000000AF8501001B
:10803000B185010000000000B3850100B585010095
:1080400035CA0100BB850100F5D30100BF850100E1
:10805000C18501000000000079CD010015CF0100AD
:10806000C7850100C9850100CB850100CD850100D0
:10807000CF850100D1850100D3850100D5850100A0
:10808000D78501003DD60100DB850100DD850100BB
:10809000D9D60100E185010065C70100E585010031
:1080A000E7850100E98501000000000000000000F4
:0880B000EB850100ED850100E4
:04840000636A790032
:10840400354936480A1A02D0072291438D46344929
:1084140034480A1A06D00722914381F309880222BC
:1084240082F3148830483149314A00F044F8314825
:108434003149324A00F03FF831483249324A00F0BB
:108444003AF832483249334A00F035F83248334971
:10845400334A00F030F833483349344A00F02BF8FB
:1084640033483449344A00F026F834483449002269
:1084740000F02CF833483449002200F027F8334840
:108484003349091A082902DB002202604160314A9B
:1084940090471F481F49884205D00268043003B43E
:1084A400904703BCF7E700208646EC4600200021F5
:1084B400294A9047FEE7884207D0521A05D003782C
:1084C40001300B700131013AF9D17047884202D072
:1084D40002700130FAE77047006000200058002065
:1084E4000060002000600020C0F601002C2B00205A
:1084F400582B0020F0850100F085010018E90100E7
:10850400C0F601002C2B00202C2B002034EA0100A3
:1085140034EA010034EA010034EA010034EA0100DB
:1085240034EA010034EA010034EA0100BEF6010035
:10853400ECF60100582B0020582B0020582B00206B
:10854400D0360020D0360020D0360020D03600208F
:10855400D038002073850100298B01000B484FF0AF
:108564000701884385460A488047FFF749BF094801
:1085740009490A4A884207D0521A05D003780130C3
:108584000B700131013AF9D17047000000600020FE
:1085940029C40100C8E90100C02A00202C2B0020B6
:1085A400FEE7FEE7FEE7FEE7FEE7FEE7FEE7FEE79F
:1085B400FEE7FEE7FEE7FEE7FEE7FEE7FEE7FEE78F
:1085C400FEE7FEE7FEE7FEE7FEE7FEE7FEE7FEE77F
:1085D400FEE7FEE7FEE7FEE7FEE7FEE7FEE7FEE76F
:0C85E400FEE7FEE7FEE7FEE7FEE700BF53
:1085F0000369C1688B429DBF8268D21802F1FF32C5
:1086000003F1FF3394BF501A581A70472DE9F8430D
:10861000D0E902940546A9EB04084068904520443F
:108620000F46144404D906F0C9F8EC60BDE8F8839D
:108630004246A4EB090406F0C1F86868224607EB3D
:108640000801F0E72DE9F843C56806468946174654
:108650004FF000083469B3687068A54228BFE41879
:10866000013C621B5C1BBC4228BF3C46944228BFB5
:10867000144649462844224606F0A0F8B36825442B
:10868000AB4208BF00253F1BA044A144F560E1D1E7
:108690004046BDE8F883000010B5114C114AA261B4
:1086A0000223C4E90433104BE361A2644FF4007366
:1086B0000E4A0F492362E26400231022E01DA362E8
:1086C0006362E362A3656365E365226506F0D2F841
:1086D0000849204606F0CEF82023A37110BD00BF44
:1086E000582B002034EA0100E02B0020D02B002082
:1086F0003DEA010041EA0100F8B5184C182300FBDF
:10870000033503FB00402544C46A012C0F4616467E
:108710000FD0022C1AD0F4B92846FFF769FF864221
:1087200005D8324639462846FFF770FF34462046C2
:10873000F8BD2846FFF75CFF8642344628BF044652
:10874000224639462846FFF761FFF0E72846BDE894
:10875000F840FFF777BF0024E9E700BF582B00205F
:1087600073B50E4B1B7804460D4616460BB9FFF742
:1087700093FF00230DF107008DF8073005F04AFC48
:10878000324629462046FFF7B7FF04469DF807000A
:1087900005F064FC204602B070BD00BF582B0020DD
:1087A000826810B504464068531C834205D820688F
:1087B0008154A360E3680133E360D4E901329A4253
:1087C0000BD121682069FFF7CBFFA368984215BF42
:1087D0004FF0FF330023E360A36010BD2DE9F84F95
:1087E0009946DDE90A431646054688460A464FF093
:1087F000010AB24212D2CA4538BFCA4613F0010B71
:1088000001D184B90024EB68002B48DB0127B9F1C2
:10881000010F1FD909F1FF397743F8E70AF1010A7F
:10882000B2FBF6F2E5E79B0712D5B9F1000F0CBFDA
:1088300030272027A245E6D239462846FFF7B0FF69
:10884000EB68002B04F1FF34DDDB002CF2D1D9E71B
:108850002027EFE7B8FBF7F39E42DDD9DFF8489019
:10886000B8FBF7F3284619F8031007FB1388FFF746
:1088700097FFEB68002B03DBB7FBF6F3B74210D290
:10888000BBF1000F0BD054B1A24508D220212846DD
:10889000FFF786FFEB68002B04F1FF34F3DABDE845
:1088A000F88F1F46DCE700BF48EA01002DE9F04FD2
:1088B0009BB00AAB0E46059340210023CDE9061379
:1088C000CDE90830039015464FF00A0A16F8011B4F
:1088D00039B9089B002B00F30B8108981BB0BDE849
:1088E000F08F252940F0B5804FF0000B07E0302BCA
:1088F0000FD14BF0020B01E04BF0010B0E4631465D
:1089000011F8013B2D2BF7D0F1D8232B11D02B2BB5
:108910000CD00024314611F8013BA3F130000928A6
:108920000AD80AFB0434303C0E46F3E74BF0040B44
:10893000E4E74BF0080BE1E72E2B0FD10E464FF08A
:108940000009304610F8011BA1F13007092F07D8A4
:108950000AFB0913A3F130090646F2E74FF00009BC
:10896000304610F8011B01F0FB07682F0646F8D0CF
:10897000782909D86F290BD8632966D020D82529F2
:1089800067D0582900F09480089B002B9EDAA0E75E
:1089900070390829F8D801A353F821F0E18A0100C1
:1089A0008989010089890100C18A01008989010042
:1089B0009F8A01008989010089890100B18A01002B
:1089C0006429E1D129680F68081D87EAE7712860EA
:1089D000A1EBE7714FF0010809293EDCC84538BF1B
:1089E000C8462CB1002F02DB1BF0040F00D0013C65
:1089F0001BF0020F02D0B9F1000F04D01BF0010FE1
:108A000001D17CBB002408990029BDDB002F35DA99
:108A10007F422D2105A8FFF7C3FE08990029B3DB8B
:108A20000BF00301022904D1B9F1000F01D154BBAD
:108A3000002408990029A7DBCDE9004B4B460A2208
:108A4000394605A8FFF7CAFE9EE72B681A1D19785C
:108A50002A6005A8FFF7A4FE96E708F10108B1FB1C
:108A6000FAF1B9E7A045CED2202105A8FFF798FE7C
:108A70000899002904F1FF34C3DAC4E71BF0040F9E
:108A8000CBD02B21C6E7A045D3D2302105A8FFF7D4
:108A900087FE0899002904F1FF34C8DAC9E729687C
:108AA000CDE9004B081D28604B460A220968C8E73B
:108AB0002968CDE9004B081D28604B461022F5E7D8
:108AC0002B681A1D2A601C6814F8011B00293FF44A
:108AD0005BAF05A8FFF764FE089B002BF4DA53E7B1
:108AE00029680B1D2B6000220823CDE90032E5E741
:108AF000079A1AB103980AA9FFF732FEDDE90723A6
:108B000013440893E9E600BF0EB403B503AB01AA12
:108B100053F8041B0193FFF7C9FE02B05DF804EBA4
:108B200003B070473DDF704707B5184B18490093F5
:108B30000122184B0020FFF7E7FF4FF08053164942
:108B4000D3F80C2100209202FFF7DEFF0021084637
:108B500002F0EAFF01F057FE00F082F90120FFF772
:108B6000E1FF0E490020FFF7CFFF03F0C1F802F04C
:108B700043FA02F029F900F0A7FB01F08BFE02F0A6
:108B800023F802F073F801F054FEEEE7A3EA0100C7
:108B900064EA010058EA0100ACEA0100C5EA0100FC
:108BA00010B58EB0EB238DF8043000238DF805004E
:108BB0008DF806308DF807209AB192B2181D0EACD0
:108BC00014FA80F0CC5C00F8344C013398B2824245
:108BD000F4D8043201A9002003F07EFB00200EB07F
:108BE00010BD0422F6E7000010B50278EA2A86B02C
:108BF000034603D1C478221D8A4203D000221146C5
:108C00000D2014E04278013A032A12D8DFE802F07E
:108C1000021323300429F1D89B782343EED11A4B59
:108C20005B885BBAADF80430022201A90120FFF78E
:108C3000B7FF06B010BD022CE0D11A795B7943EA88
:108C40000223114A538001F037FF03F0D1F80022CC
:108C500011462046EBE70429D0D89B782343CDD199
:108C6000094B1B798DF80430012201A90320DEE7AE
:108C7000012CC3D11A79044B1A7101F01DFF002297
:108C800011460420D3E700BF982E002076DF7047FE
:108C90007ADF70477FDF70478FDF7047A8DF70474C
:108CA000A9DF704766DF704705F02CB9094B48888B
:108CB0001B8898424FF0000207D1088840F67723BE
:108CC000984202BF8A88033A92B203490020FFF714
:108CD0001BBF00BF2C2B0020DDEA01001FB504469E
:108CE000028834490020FFF70FFF2388212B3FD053
:108CF00019D8112B36D00CD8012B56D0102B2DD0D3
:108D000021462D4803F050FA204600F0A5FD04B09E
:108D100010BD132BF4D1294800231A468521008861
:108D2000FFF7B8FF2FE0522B32D0562B38D0512B03
:108D3000E6D1A379002BE3D0A27B043A022ADFD844
:108D4000022B18BF01238DF80030A0884FF4C173A7
:108D50006946ADF80430FFF7A1FF14E0A288174B75
:108D60001A80CDE703F044F8144B4FF6FF72F7E793
:108D700013490020FFF7C8FE0023A088ADF800309B
:108D80006946FFF789FF0028BAD005F0BBF8B7E7BE
:108D90000A4800231A4619460088FFF781FFF2E7C8
:108DA000A0881321FFF772FFEDE7A0880021FFF7ED
:108DB00079FFE8E70BEB0100E43200202C2B0020C8
:108DC00025EB010008B503784BB9054B3B2118880A
:108DD000FFF75CFF18B1BDE8084005F093B808BD87
:108DE0002C2B0020014B1888704700BF2C2B002033
:108DF000034B18884FF6FF73C01A18BF0120704745
:108E00002C2B002007B503F027FC08B105F07AF8F9
:108E1000002301A90120019303F0F0FC08B105F043
:108E200071F801A803F040FD08B105F06BF803B03C
:108E30005DF804FB08B50849084805F00CFC08B1CA
:108E400005F060F80548172105F013FC18B1BDE8DE
:108E5000084005F057B808BDAD8C0100F82D002082
:108E600000B589B0FFF7CEFF03F07EF8082200219D
:108E700001A805F0CCFC274A4FF0C87301A8CDE942
:108E80000123FFF705FF08B105F03CF8FFF7D2FF1B
:108E90000021142201A805F0BAFC11238DF811302D
:108EA000ADF812308DF814300122002301938DF8B3
:108EB0000820039302F0FAFC01A98DF8100016486F
:108EC00005F0FEFA08B105F01DF800F091FC03F082
:108ED0005DFA1C22002101A805F099FC00234FF443
:108EE0002032CDE90132ADF812304FF470228DF806
:108EF00014300A4B039206930322094B8DF810207D
:108F000001A8079305F00EFA08B104F0FBFF09B0C1
:108F10005DF804FB10003C00E02D0020C58D010031
:108F2000A98C010076DF704700BF1846BFF34F8F52
:108F300000BF074BDB6803F4E0620549054B1343B0
:108F4000CB60BFF34F8F00BF00BF00BFFCE700BF87
:108F500000ED00E00400FA0582B00190019B1B784F
:108F60001A46019B01331B781B021A43019B0233F3
:108F70001B781B041A43019B03331B781B06134306
:108F8000184602B0704729DF704700BF184611DF4E
:108F9000704700BF184682B001904FF0A0431846BA
:108FA00002B0704700B585B0019001AB1846FFF7DD
:108FB000F2FF0390019B012202FA03F31946039882
:108FC00000F04CF800BF05B05DF804FB00B585B0BB
:108FD000019001AB1846FFF7DEFF0390019B0122D1
:108FE00002FA03F31946039800F042F800BF05B0F7
:108FF0005DF804FB00B585B0019001AB1846FFF7A2
:10900000CAFF0390039BD3F804350293029BDA4313
:10901000019B012101FA03F31A40039BC3F80825C1
:10902000019B01229A40029B1A40039BC3F80C2526
:1090300000BF05B05DF804FB00B583B0019000915E
:10904000009B002B03D10198FFF7C0FF02E00198BD
:10905000FFF7A8FF00BF03B05DF804FB82B00190EA
:109060000091019B009AC3F8082500BF02B0704729
:1090700082B001900091019B009AC3F80C2500BFBB
:1090800002B0704784B00190244B0393019B002BE6
:1090900040D0234B1A680399019B00BF00BF00BF5B
:1090A00000BF00BF00BF00BF00BF8A422FD000BF7B
:1090B00000BF00BF00BF00BF00BF00BF00BF00BFB8
:1090C00000BF00BF00BF00BF00BF00BF00BF00BFA8
:1090D00000BF00BF00BF00BF00BF00BF00BF00BF98
:1090E00000BF00BF00BF00BF00BF00BF00BF00BF88
:1090F00000BF00BF00BF00BF00BF00BF00BF00BF78
:1091000000BF00BF00BF00BF00BF00BF00BF013BEA
:10911000C3D1019300BF04B0704700BF0024F40026
:109120004C2B002000B583B00190019B4FF47A7264
:1091300002FB03F31846FFF7A5FF00BF03B05DF87D
:1091400004FB00B587B0019000230593019BB3F5A4
:10915000204F1CD8019B1B0B0593019BC3F30B03F2
:10916000002B02D0059B0133059322230393002398
:10917000049308E0039A049B1344184602F08AFC07
:10918000049B01330493049A059B9A42F2D3322044
:10919000FFF7C8FF0123184607B05DF804FB000085
:1091A00008B5074B1B681846FFF7CBFF044B1B683D
:1091B0001A4604490020FFF7A7FC00BF08BD00BF06
:1091C000482E00203CEB010082B001900091019BF1
:1091D000022B02D1024B01221A7000BF02B070476D
:1091E0005C2E002000B587B0039002910192154BD0
:1091F00000221A70039B03F50833019A029918465E
:10920000FFF7C1FE0023ADF816300BE06420FFF736
:1092100039FF0C4B1B78002B0FD1BDF816300133F2
:10922000ADF81630BDF8163042F20F729342EDD908
:1092300005490020FFF768FC00E000BF07B05DF8BB
:1092400004FB00BF5C2E00204CEB010000B585B094
:10925000019001238DF80F3003220199074805F092
:109260007AFA0346002B02D000238DF80F309DF8C8
:109270000F30184605B05DF804FB00BF5CEB010041
:1092800008B54FF40930FFF7E1FF0346184608BD63
:1092900000B585B00390029101920A4B1B68002231
:1092A00019464FF4083000F075FC03461A46039B3C
:1092B0001A80039B1A88029B1A8000BF05B05DF8D4
:1092C00004FB00BF482E002000B5ADF5437D002310
:1092D000C1930DF10B0300221A7000238DF8F332B5
:1092E0000023BB93B44B1B78002B00F00382B34BDD
:1092F00000221A60B2490020FFF706FC6420FFF745
:1093000011FF0023C193AF4BD3F80435C093002362
:10931000C1931AE001F0AAFCAA4BD3F80435C09916
:10932000184604F083F90346B3F5FA7F0DD3A54B35
:10933000D3F80435C093C19B5A1CC192272B04D982
:10934000A1490020FFF7E0FBCCE19C4B1B68002B00
:10935000E0D00023C193FFF723FF012201219B48A6
:1093600001F008F90023BD9372ABBA9300238DF886
:10937000F33209AB1421184600F088FB00238DF866
:10938000FF32904BD3F80435C09301F06FFC8F4B44
:109390001B884FF6FF72934204D18D490020FFF7DE
:1093A000B3FB9FE1874BD3F80435C099184604F00E
:1093B0003DF90346B3F5FA7F0DD3824BD3F804355C
:1093C000C093C19B5A1CC192772B04D97E490020BF
:1093D000FFF79AFB86E10DF10B0300221A700DF1E5
:1093E0000B0203AB1146184600F080FB03468DF8D4
:1093F000E732784B1A68BD9B1A44704B1B689A423F
:1094000002D301238DF8FF329DF8E73283F0010388
:10941000DBB2002B07D09DF8FF3283F00103DBB2F3
:10942000002B40F057810320FFF7E4FD0023C19398
:109430000DF10B031B78002B18D0BA9ABD9BD018E6
:109440000DF10B031B781A4603AB194605F0B6F96C
:109450000DF10B031B781A46BD9B1344BD930DF110
:109460000B031B781A46BB9B1344BB93BB9800F0BD
:10947000E9FB01F0FBFBBD9BFF2B07D89DF8FF32FA
:1094800083F00103DBB2002B40F02681BD9BFF2B54
:1094900009D94FF48073ADF8FC32BDF8FC32BD9AA7
:1094A000D31ABD9307E0BD9BADF8FC32BDF8FC328A
:1094B000BD9AD31ABD93BDF8FC32002B00F00E818B
:1094C000444B1868BDF8FC329B089BB21A46BA9907
:1094D000FFF788FEBDF8FC223E4B1B6813443D4A53
:1094E0001360BD9B002B1BD00023ADF8FA3212E0B5
:1094F000BDF8FC22BDF8FA3213441A46BA9B1A444E
:10950000BDF8FA32BA990B4412781A70BDF8FA32E3
:109510000133ADF8FA32BDF8FA32BD9A9A42E7D873
:109520002D490020FFF7F0FA2A4B1B68B3F5826F34
:1095300013D99DF8F332002B0FD101238DF8F332AC
:10954000FFF79EFE034683F00103DBB2002B04D03D
:1095500022490020FFF7D8FAC4E01E4B1A68174BC7
:109560001B689A42C0F0BC8072AA08A90DF12203C0
:109570001846FFF78DFE0DF122031B881946184B84
:109580001A680E4B1B68009313460A4615490020C3
:10959000FFF7BAFA0DF122031B881A46104B1B681D
:1095A0009A4223D005220321084800F0E3FF0E4928
:1095B0000020FFF7A9FA95E0442E0020482E002055
:1095C00060EB01000010014074EB0100142E00203C
:1095D00088EB0100582E0020A4EB0100A8EB01004D
:1095E0004C2E0020C0EB0100E4EB0100012203211E
:1095F000434800F0BFFF434BAA221A70414B01229F
:109600005A70404B80229A703E4B0022DA703E4BDB
:109610001B681B0CDAB23B4B1A713B4B1B681B0AD5
:10962000DAB2384B5A71384B1B68DAB2354B9A7143
:1096300008AB1B881B0A9BB2DAB2324BDA7108AB5B
:109640001B88DAB22F4B1A722E4B02225A722D4B04
:1096500020229A722B4B0022DA722C490020FFF74D
:1096600053FA4FF4FA70FFF75DFD254B1B88132169
:109670001846FFF757FC224B4FF6FF721A804FF443
:10968000FA60FFF74FFD01210320FFF7D5FCFFF73C
:109690007EFCB890B89BB793B79B002B05D01C4AB3
:1096A0004FF4B071B79804F01FFC04F075FE4FF44E
:1096B0007A70FFF737FD0C21124802F035FA4FF4AB
:1096C0007A70FFF72FFD00210320FFF7B5FCFFF7AD
:1096D0002DFC5AE600BF58E600BF56E600BF54E630
:1096E00000BF52E60B4B00221A7000210320FFF747
:1096F000A3FC00E000BF0DF5437D5DF804FB00BF57
:10970000142E0020082E0020482E0020F0EB01002F
:10971000FCEB0100442E002010B584B001900091B4
:10972000009B1B7A0393009B5B680293274B1B787B
:10973000032B30D0032B44DC012B02D0022B1AD098
:109740003FE0029B08331846FFF706FC0346204A19
:1097500013601F4B1C681F4BD3F804351E4A126858
:109760001146184603F062FF034622461B490020BB
:10977000FFF7CAF926E0039B023B029A13441B88B9
:109780001A46174B1A60164B1B681A4615490020DB
:10979000FFF7BAF916E0039BDBB21946029800F016
:1097A00091F9034683F00103DBB2002B03D00E498D
:1097B0000020FFF7A9F9039A0C490020FFF7A4F94C
:1097C00000E000BF00BF04B010BD00BF442E002069
:1097D000482E002000100140602E002030EC0100D7
:1097E0004C2E002044EC010050EC01005CEC010028
:1097F00000B587B001AB0C220021184605F007F830
:109800000823ADF804300F4B02930F4B039301ABC9
:1098100019460E4800F0A2FD0590059A0C4900205B
:10982000FFF772F9059B0493049B002B05D0094AAE
:109830004FF4EB71049804F057FB059B184607B0F2
:109840005DF804FBAD98010075980100142E00200E
:1098500068EC0100FCEB010000B583B001900199B8
:10986000034800F0F3FD00BF03B05DF804FB00BF48
:10987000142E002000B585B00190019A09490020FE
:10988000FFF742F9019B0393039B002B05D0064A87
:1098900040F2ED11039804F027FB00BF05B05DF81E
:1098A00004FB00BF78EC0100FCEB010000B589B0BF
:1098B00003900291029B1B78092B00F2B68001A253
:1098C00052F823F03F99010065990100A799010022
:1098D000ED980100219901002F990100C79901001D
:1098E000FF990100BD9901001B9A0100029B1B78A2
:1098F0001A4655490020FFF707F901220421039871
:1099000000F038FE0790079B0693069B002B00F0A3
:1099100094804E4A4FF40971069804F0E5FA8CE001
:10992000029B1B781A464A490020FFF7EDF8029B7C
:109930001B781A4647490020FFF7E6F880E0029BB3
:109940005B681B78184600F0EDF8434BD3F80435FC
:10995000424A1360029B1B781A4641490020FFF7D8
:10996000D3F86DE0029B1B781A463E490020FFF7B2
:10997000CBF83D4B02221A70029B5B681B78012BCF
:109980005DD101220221039800F0F4FD0790079BAE
:109990000593059B002B52D02C4A40F25521059887
:1099A00004F0A2FA4BE0029B1B781A462F490020D4
:1099B000FFF7AAF82C4B03221A7041E00299039892
:1099C000FFF7AAFE3CE02A4B01221A70029B9B88FB
:1099D0001A46284B1A60029B9B881A46264B1A602F
:1099E000029B1B781946234B1A68234B1B68009374
:1099F00013460A4621490020FFF786F820E0029B23
:109A00001B781A461E490020FFF77EF8184B0022EB
:109A10001A70184B00221A6012E0029B1B781A463B
:109A200018490020FFF770F80AE0029B1B781A46DD
:109A300015490020FFF768F802E000BF00E000BF12
:109A400000BF09B05DF804FB88EC0100FCEB0100ED
:109A500098EC0100A8EC010000100140602E0020ED
:109A6000B8EC0100C4EC0100442E0020E8EC010039
:109A70002E2B0020502E0020542E002014ED01002B
:109A800028ED010034ED01003CED010000B583B08C
:109A900001900B468DF803309DF803309BB21A46B7
:109AA000520013441A46D200D31A9AB214230199D1
:109AB000034800F0C5FD00BF03B05DF804FB00BF24
:109AC000642E002000B583B001900B468DF8033062
:109AD0009DF803301A460199034800F0D6FD03466D
:109AE000184603B05DF804FB642E002000B585B075
:109AF00001900091009A0199094800F01EFE03466A
:109B00008DF80F309DF80F30002B03D00121044851
:109B100000F03DFE9DF80F30184605B05DF804FBDF
:109B2000642E002000B583B003468DF80730124B39
:109B300001221A70114A9DF807301370104B002251
:109B40001A60104B42F210721A600F4B00221A601A
:109B50000A4B1B781A460D490020FEF7D5FF074B2C
:109B60001B78042B04D00A490020FEF7CDFF00BF6C
:109B700003B05DF804FB00BF442E0020452E0020FA
:109B80004C2E0020482E0020582E002054ED0100BD
:109B900084ED010086B0039002910192019B002B9D
:109BA00002D0019B1B8801E04FF6FF73ADF8163021
:109BB000002304933CE0BDF816301B0A9BB2DBB2D5
:109BC0001AB2BDF816301B021BB213431BB2ADF81C
:109BD0001630039A049B13441B789AB2BDF81630D2
:109BE0005340ADF81630BDF81630DBB21B09DBB2BE
:109BF0009AB2BDF816305340ADF81630BDF81630A5
:109C00001B031AB2BDF9163053401BB2ADF8163023
:109C1000BDF816305B011BB203F4FF531AB2BDF955
:109C2000163053401BB2ADF81630049B0133049339
:109C3000049A029B9A42BED3BDF81630184606B06D
:109C40007047000000B583B001900C4B1B78002BCF
:109C500010D00B4B1B68013B094A1360084B1B6873
:109C6000002B07D10199074800F028FC064B1B6820
:109C7000034A136000BF03B05DF804FB2E2B0020E5
:109C8000542E0020142E0020502E0020A0DF7047FC
:109C900000BF1846A2DF704700BF1846A5DF704717
:109CA00000BF1846A6DF704700BF1846A8DF704700
:109CB00000BF184662DF704700BF184682B00190AF
:109CC0000091019BDAB2009B1A70019B1A0A009B5B
:109CD0000133D2B21A70019B1A0C009B0233D2B22C
:109CE0001A70019B1A0E009B0333D2B21A70042320
:109CF000184602B0704782B00190019B1B781AB2DF
:109D0000019B01331B781B021BB213431BB29BB296
:109D1000184602B0704700B591B0019009AB1C2203
:109D20000021184604F073FD9DF8243043F004032D
:109D30008DF8243000230A9300230C9300230D9305
:109D400000230E9300230F93019B9B798DF80E3017
:109D500041F23253ADF80C3002AB03220021184619
:109D600004F055FD9DF808306FF303038DF80830BB
:109D70009DF808306FF307138DF808309DF809300F
:109D8000012262F303038DF809309DF809300122A6
:109D900062F307138DF809309DF80A30012262F34F
:109DA00042038DF80A309DF80A306FF3C3038DF833
:109DB0000A309DF80A306FF304138DF80A309DF8CD
:109DC0000A3043F001038DF80A3004AB142200215D
:109DD000184604F01CFD03AB049302AB059300236B
:109DE000ADF818300023ADF81A301423ADF81C304C
:109DF00000230893019B9888019B083304AA09A9B2
:109E0000FFF748FF0346184611B05DF804FB00B5A4
:109E100091B00190009109AB1C220021184604F07A
:109E2000F6FC9DF8243043F002038DF82430002323
:109E30000A9300230C9300230D9300230E93002319
:109E40000F93019B9B798DF80E3041F23453ADF89E
:109E50000C3002AB03220021184604F0D8FC9DF818
:109E60000830012262F303038DF808309DF80830B2
:109E7000012262F307138DF808309DF809306FF363
:109E800003038DF809309DF809306FF307138DF83F
:109E900009309DF80A30012262F342038DF80A303E
:109EA0009DF80A306FF3C3038DF80A309DF80A302D
:109EB0006FF304138DF80A309DF80A3043F0010364
:109EC0008DF80A3004AB14220021184604F09FFCE0
:109ED00003AB049302AB05930223ADF818300023C3
:109EE000ADF81A300223ADF81C30009B0893019B9B
:109EF0009888019B203304AA09A9FFF7CBFE0346EB
:109F0000184611B05DF804FB00B591B0019009ABA3
:109F10001C220021184604F07AFC9DF8243043F0FE
:109F200008038DF824309DF8243043F010038DF899
:109F3000243000230A9300230C9300230D93002365
:109F40000E9300230F93019B9B798DF80E3041F205
:109F50003153ADF80C3002AB03220021184604F057
:109F600056FC9DF808306FF303038DF808309DF818
:109F700008306FF307138DF808309DF8093001227F
:109F800062F303038DF809309DF80930012262F372
:109F900007138DF809309DF80A30012262F342035D
:109FA0008DF80A309DF80A306FF3C3038DF80A303C
:109FB0009DF80A3043F010038DF80A309DF80A30FE
:109FC00043F001038DF80A3004AB14220021184637
:109FD00004F01DFC03AB049302AB05930023ADF822
:109FE00018300023ADF81A301723ADF81C300023C9
:109FF0000893019B9888019B103304AA09A9FFF7D5
:10A0000049FE0346184611B05DF804FB00B583B065
:10A0100001900091009B9A88019B1A80019B1B88EC
:10A020001A4604490020FEF76FFD00BF03B05DF83B
:10A0300004FB00BFA4ED010000B587B0019002ABA6
:10A0400008220021184604F0E2FB0223ADF8083094
:10A050000023ADF80A3004AB0393019B1888019BE1
:10A060009B8A02AA1946FFF719FE0590059B002B53
:10A0700009D0019BDB6A002B03D0019BDB6A0598AA
:10A080009847002304E004AB184604F009FA03469D
:10A09000184607B05DF804FB00B58BB00190009145
:10A0A00002238DF8143002238DF814309DF81A30F5
:10A0B00043F001038DF81A30009B1B89ADF81C306A
:10A0C000009B5B89ADF81E30009B0C330893019810
:10A0D000FFF7B2FF034683F00103DBB2002B0CD085
:10A0E00040F2FD13ADF81830019B1B8805AA1146FC
:10A0F0001846FFF7DBFD0346C3E00023ADF8183038
:10A10000019B1B8805AA11461846FFF7CFFD099051
:10A11000099B002B01D0099BB3E0009B1B7B013BFB
:10A12000072B00F2A48001A252F823F04DA10100F8
:10A1300087A10100C1A10100D5A10100E9A1010091
:10A14000FDA101005BA2010011A2010000238DF816
:10A150000830009B5B89012B08D8009B1B7B0622E3
:10A160001946019800F006FA03468AE001238DF8AB
:10A170001030009B0D330393019B9B6A02AA11468A
:10A18000019898477CE001238DF80830009B5B899B
:10A19000012B08D8009B1B7B06221946019800F072
:10A1A000E9F903466DE001238DF81030009B0D3373
:10A1B0000393019B9B6A02AA1146019898475FE0AE
:10A1C00002238DF80830019B9B6A02AA1146019870
:10A1D000984755E003238DF80830019B9B6A02AA3B
:10A1E0001146019898474BE004238DF80830019BF5
:10A1F0009B6A02AA11460198984741E005238DF811
:10A200000830019B9B6A02AA11460198984737E0E3
:10A21000009B5B89022B06D803220821019800F0DD
:10A22000A9F903462DE0009B0D331846FFF763FDA7
:10A230000346ADF80C30BDF80C30002B03D10723DA
:10A240008DF8083002E006238DF80830019B9B6AE8
:10A2500002AA11460198984712E009238DF80830A8
:10A26000019B9B6A02AA11460198984708E0009B4F
:10A270001B7B03221946019800F07CF9034600E09D
:10A28000002318460BB05DF804FB00BF00B585B095
:10A2900001900091009B06330393039B1B78022BD4
:10A2A00023D1039B5A88019B1B8A9A421DD1009B94
:10A2B0009B7B042B19D0009B9B7B062B15D0009B0E
:10A2C0009B7B052B11D0039B023319460198FFF7A6
:10A2D000E3FE0290029B002B07D0019BDB6A002B60
:10A2E00003D0019BDB6A0298984700BF05B05DF878
:10A2F00004FB00B587B001900091009BDA88019BB8
:10A300001B899A4210D108238DF80C30009B1B8AC0
:10A31000DBB28DF81430009B12330493019B9B6ACF
:10A3200003AA11460198984700BF07B05DF804FBE7
:10A3300000B583B001900091019B1B881A46064925
:10A340000020FEF7E1FB019B4FF6FF721A8000BF71
:10A3500003B05DF804FB00BFB0ED010010B588B09C
:10A3600001900091019B002B06D0009B002B03D095
:10A37000009B5B68002B01D10E235DE0019B4FF633
:10A38000FF721A80019B1B881A462D490020FEF798
:10A39000BBFB2C4B02AC0FCB84E80F0041F23053D7
:10A3A000ADF8183006AB9A1C02AB11461846FFF701
:10A3B00081FC0790079B002B01D0079B3CE0019B91
:10A3C0001A1D06AB19460120FFF760FC0790079B9A
:10A3D000002B01D0079B2FE09DF81A20019B9A715A
:10A3E0000198FFF798FC0790079B002B01D0079B73
:10A3F00022E00198FFF788FD0790079B002B01D012
:10A40000079B19E000990198FFF701FD0790079B52
:10A41000002B01D0079B0FE0009B5A68019B9A62BA
:10A42000009B9B68002B03D0009B9A68019BDA621B
:10A43000054B01221A700023184608B010BD00BF5A
:10A44000C0ED0100D0ED01006C2E002000B583B0FE
:10A4500001900091019B002B29D0009B002B26D05E
:10A46000019B9B6A002B25D0009B1B88512B19D088
:10A47000512B1EDC502B0BD0502B1ADC102B02D092
:10A48000112B0AD015E000990198FFF7BFFD11E0EC
:10A4900000990198FFF72DFF0CE000990198FFF754
:10A4A00047FF07E000990198FFF7F0FE02E000BFC8
:10A4B00000E000BF03B05DF804FB000000B589B008
:10A4C00001900091019B002B01D10E2349E0019BDB
:10A4D0001B884FF6FF72934206D0244B1B7883F003
:10A4E0000103DBB2002B01D008233AE00023ADF8D2
:10A4F0000E30BDF80E305A1C92B2ADF80E201A463E
:10A500001B4B11219954BDF80E301A46184B1344B9
:10A5100019460098FFF7D2FB03469AB2BDF80E30F9
:10A5200013449BB2ADF80E3004AB10220021184644
:10A5300004F06DF9019B1B8AADF8103001238DF8F2
:10A5400012300023ADF814300DF10E030693084BC2
:10A550000793019B1B8804AA11461846FFF7A2FB2C
:10A560000346184609B05DF804FB00BF6C2E0020BE
:10A57000702E002000B589B001900B468DF8033095
:10A5800013468DF80230019B002B01D10E234EE0C3
:10A59000019B1B884FF6FF72934206D0264B1B7817
:10A5A00083F00103DBB2002B01D008233FE000233E
:10A5B000ADF80E30BDF80E305A1C92B2ADF80E2038
:10A5C0001A461E4B10219954BDF80E305A1C92B2F7
:10A5D000ADF80E201946194A9DF803305354BDF8C2
:10A5E0000E305A1C92B2ADF80E201946134A9DF84F
:10A5F0000230535404AB10220021184604F007F92E
:10A60000019B1B8AADF8103001238DF81230002316
:10A61000ADF814300DF10E030693084B0793019B20
:10A620001B8804AA11461846FFF73CFB0346184650
:10A6300009B05DF804FB00BF6C2E0020702E0020D6
:10A6400084B00390029111461A460B46ADF80630CD
:10A6500013468DF80530039B9DF805201A70039B67
:10A6600000225A70039B00229A70039B029A5A6040
:10A67000BDF806209DF80530013392FBF3F3DAB202
:10A68000039BDA7000BF04B0704700B587B0039039
:10A69000029113468DF8073001238DF81730039B84
:10A6A0001B789DF807209A4206D9039B1B788DF8EA
:10A6B000073000238DF81730039B5B780133039A32
:10A6C000D27893FBF2F102FB01F29B1A039A927883
:10A6D000934202D100238DF81730039B5B68039AE5
:10A6E00052781146039A1278013202FB01F21344A8
:10A6F0000493049B01339DF807200299184604F047
:10A700005DF8049B9DF807201A70039B5B7801336A
:10A71000DAB2039B5A70039B5B78039AD278B3FB3F
:10A72000F2F102FB01F29B1ADAB2039B5A709DF818
:10A730001730184607B05DF804FB00B587B00390EA
:10A7400002910192039B5A78039B9B789A4201D114
:10A75000002318E0039B5B68039A92781146039AE2
:10A760001278013202FB01F213440593059B1A781B
:10A77000019B1A70059B591C019B1B781A46029875
:10A7800004F01CF80123184607B05DF804FB84B000
:10A7900001900B468DF803309DF80330002B2BD031
:10A7A0009DF80330ADF80C300023ADF80E301CE0FE
:10A7B000019B5A78019B9B789A421FD0019B9B7802
:10A7C0000133DAB2019B9A70019B9B78019AD2788F
:10A7D000B3FBF2F102FB01F29B1ADAB2019B9A7011
:10A7E000BDF80E300133ADF80E30BDF80E20BDF8C7
:10A7F0000C309A42DCD302E000BF00E000BF04B09E
:10A8000070473EDF704708B503F0CCF808B103F09D
:10A8100079FB01F0BBF900F02BF847F2305000F063
:10A8200035FA01F039FA00F057F9BDE8084000F0B8
:10A8300099BC08B5FFF7E5FF18B1BDE8084003F083
:10A8400061BB08BD014B01221A707047772E0020B2
:10A8500008B5064800224FF4004103F0E5F818B1AE
:10A86000BDE8084003F04EBB08BD00BF782E0020B5
:10A8700008B5064A0648012103F0C4F808B103F000
:10A8800041FBBDE80840FFF7E3BF00BF45A801005A
:10A89000E0ED010008B50B4B1A7892B100221A7056
:10A8A00001F0B6FB01F094F901F0A8FA00F07AFA91
:10A8B00001F0D2FB00F050FC18B1BDE8084000F0F8
:10A8C000FFBC08BD772E00201F4B204A1B6800BF2D
:10A8D00000BF00BF00BF00BF00BF00BF00BF93426A
:10A8E0002FD000BF00BF00BF00BF00BF00BF00BF30
:10A8F00000BF00BF00BF00BF00BF00BF00BF00BF60
:10A9000000BF00BF00BF00BF00BF00BF00BF00BF4F
:10A9100000BF00BF00BF00BF00BF00BF00BF00BF3F
:10A9200000BF00BF00BF00BF00BF00BF00BF00BF2F
:10A9300000BF00BF00BF00BF00BF00BF00BF00BF1F
:10A9400000BF0138C3D170474C2B00200024F40015
:10A9500038B5294C294D68220021204603F057FFC5
:10A960000622FF2104F1100003F051FFBF232370E2
:10A970000023237128464FF4FA73638003F09CFF91
:10A9800029460246601D03F019FF284603F094FF94
:10A990001B4DE37B03442846E37303F08DFF2946F8
:10A9A000184D024604F1160003F008FF284603F094
:10A9B00083FF2946024604F1340003F0FFFE2846D7
:10A9C00003F07AFF2946024604F1480003F0F6FE40
:10A9D0004EF207532022A4F85C3040F60A23A4F874
:10A9E0005E30A4F8622001230522A4F86030A4F8A8
:10A9F0006420A4F8663038BD982E0020E4ED0100F4
:10AA0000EDED010002EE010013B50C4B01930C4B70
:10AA10001A7804467AB100222D201A7001F03AF813
:10AA2000012201A94FF4343001F016F805481B2229
:10AA3000214601F011F802B010BD00BFE7AAAAAA92
:10AA4000E02F002004D0020070B5174C174E702282
:10AA500000210546204603F0DAFE2246144B42F858
:10AA6000033B6820002116F8013B02F8013F5940E2
:10AA7000431E98B20028F6D17023682284F86C1027
:10AA80000C49FEF741F82C2001F004F806491C227D
:10AA90004FF4303000F0E0FF022D04D1BDE87040EB
:10AAA0000148FFF7B1BF70BD002F0020982E002095
:10AAB000E7E7006810EE0100014B01221A707047B1
:10AAC000E12F0020024A01231370024A13707047DD
:10AAD000E02F0020E12F002070B5224C70224FF4AF
:10AAE0003031204600F0CCFF2378E72B12D1637879
:10AAF000E72B0FD1702368221B490020FEF704F8D2
:10AB0000A378E27842EA0322672A09D8174900208D
:10AB1000FDF7FAFFFFF71CFFBDE87040FFF7D2BF5B
:10AB2000A31803341E7900232046194610F8015F4C
:10AB300069401D4601339BB29A42F7D18E4203D041
:10AB40000B490020FDF7E0FF0A49002314F8012F0C
:10AB500001F8012B1A46954203F101039BB2F5D18E
:10AB600070BD00BF702F00201BEE010037EE01000A
:10AB700052EE0100982E002008B54FF434331A68C5
:10AB80000D4B9A420D4A0BD10D4B0E4913F8010B98
:10AB900002F8010B8B42F9D1BDE80840FFF792BFE4
:10ABA00068230021013B9BB202F8011B002BF9D165
:10ABB000FFF7CEFEF0E700BFE7AAAAAA982E002072
:10ABC00008D0020070D0020038B51F4C2378F3B1D2
:10ABD000012B10D11D4D2B78012B0CD11C48FFF7F8
:10ABE00073FE1C490020FDF78FFF0220FFF72CFFAA
:10ABF000002323702B702578012D09D116490020E0
:10AC0000FDF782FF2846FFF71FFF0023237038BDA2
:10AC1000022DFCD10E48FFF757FEFFF7ADFF0F499D
:10AC20000020FDF771FF0E48FFF74EFEBFF34F8F78
:10AC30000C490D4BCA6802F4E0621343CB60BFF3CA
:10AC40004F8F00BFFDE700BFE12F0020E02F002065
:10AC5000A086010072EE010086EE01009BEE01006D
:10AC600020A1070000ED00E00400FA05054B0122D9
:10AC7000C3F80825044AC3F800260022C3F80825B3
:10AC8000704700BF000001403546526E104B002255
:10AC9000C0034FF47A71B0FBF1F001381A60C3F8C9
:10ACA0000405C3F80C25D3F80C2542F00102C3F8C3
:10ACB0000C25D3F80C2542F00802C3F80C2501221C
:10ACC0001A60D3F80024002AFBD0FFF7CFBF00BFE3
:10ACD000000001407047000030B50E4D0FCD8BB025
:10ACE00004AC0FC495E803000B4B0C4A00934FF4DF
:10ACF000807384E80300CDE902230193084A072307
:10AD0000694604A803F04EF808B103F0FBF80BB055
:10AD100030BD00BFDCEE0100E22F0020E330002058
:10AD2000D5AC010070B504464618B44200D170BDE0
:10AD300043F68165207803F093F818B1013DADB278
:10AD4000002DF7D10134F0E710B5134B1A7890427B
:10AD5000044620D0187058B10021082000F0ECFD06
:10AD60000E490020FDF7D0FEBDE81040FFF7B4BF4C
:10AD700003F08AF80A492046FDF7C6FE4FF0A043CB
:10AD80000C22C3F82027BDE81040C3F82427012176
:10AD9000082000F0D1BD10BD302B0020B3EE010023
:10ADA000C6EE0100064A13780133DBB21D2B137087
:10ADB00004D9044B0121197000231370704700BFA0
:10ADC000E2300020E331002038B5104C2578012D09
:10ADD00002D0022D0FD038BD00F0A2FD0028FAD01D
:10ADE0002846FFF7B1FF0A4B00221A7000F09EFDC3
:10ADF00002232370EFE7064B1A78002AEBD00020DD
:10AE00001870FFF7A1FF0123F3E700BF2F2B0020ED
:10AE1000E3310020204B21491A684CF2503300BF27
:10AE200000BF00BF00BF00BF00BF00BF00BF8A421D
:10AE30002FD000BF00BF00BF00BF00BF00BF00BFDA
:10AE400000BF00BF00BF00BF00BF00BF00BF00BF0A
:10AE500000BF00BF00BF00BF00BF00BF00BF00BFFA
:10AE600000BF00BF00BF00BF00BF00BF00BF00BFEA
:10AE700000BF00BF00BF00BF00BF00BF00BF00BFDA
:10AE800000BF00BF00BF00BF00BF00BF00BF00BFCA
:10AE900000BF013BC3D170474C2B00200024F400BD
:10AEA00030B58FB040F2ED23ADF804308DF80600D8
:10AEB000F2B901238DF8073081B94AF6AA23ADF81B
:10AEC000083006210EAB0B440131EE22C9B201A8B5
:10AED00003F8342CFFF726FF0FB030BD012902D153
:10AEE00045F25553EBE7022919D146F26663E6E7CE
:10AEF00000208DF807200346C5B22C1D95420EADEB
:10AF000055FA84F404D3511DC9B204F8343CD9E78E
:10AF10000D5C04F8345C2B44DBB20130ECE7042117
:10AF2000D0E7000010B590B00F2804468DF8072038
:10AF300043D005D8012813D0072832D010B010BD57
:10AF400010284AD03428F9D100221146FFF7A8FF73
:10AF5000FFF760FF0020FFF7F7FE00F03BFFEDE793
:10AF60009DF8072082B903AA214806231146013B18
:10AF700010F8014902F8014B13F0FF03F7D1062244
:10AF80000120FFF78DFFD9E7062A23D1084601F0FB
:10AF900011F8002211462046FFF782FFFFF792FDCD
:10AFA000CCE79DF8072012B912490422E9E7042AE8
:10AFB00010D1104803F002FCEBE79DF807304BB9C5
:10AFC0000DF1070103A801F05FF89DF8072003A920
:10AFD0002046D6E700220121D3E700221146FFF7E1
:10AFE0005FFFFFF717FF0020FFF7AEFED6E700BFB9
:10AFF000AD2E0020F42E0020F7B5504D504C0DF131
:10B00000070002F01DFF08B103B0F0BD9DF8072056
:10B010002946FDF779FD2378052BF0D8DFE803F00A
:10B02000030E1B2641559DF80720ED2AE7D145491F
:10B0300001230B7044490A702370E0E79DF8072054
:10B04000012A2CD13F49022323700B78581C087029
:10B050003D49CA54D3E73B4A032323701378591C54
:10B060001170394A9DF80710D154C8E7354B1A784A
:10B07000511C19709DF8073033498B54334A1BB962
:10B08000012313700423D7E70233DBB21370304A75
:10B0900000211170642B4FF005022270AFD90023FC
:10B0A000CAE72A4A9DF807301178012904D1002106
:10B0B0001170002BF3D1A2E7EE2BF0D1224B00222E
:10B0C00098781146FFF72EFFE9E71E49DFF87CC0AC
:10B0D0000B781D485A1CD2B20A709DF80710C15453
:10B0E0009CF80030022B84BFDFF864E09EF800700B
:10B0F00003F1FF3388BF7F18DBB288BF8EF8007082
:10B100008CF80030002B7FF47AAF0244237012F8E1
:10B11000023C0F4AEE29127807D19A4208D1C27830
:10B120000C498078FFF7FEFE69E79A423FF467AF6B
:10B13000807800220221FFF7B3FE60E7F4EE010001
:10B140004E3200204D320020E43100204C320020ED
:10B150004B320020E8310020014B1878704700BFC7
:10B160004F32002030B585B0FF238DF80F304FF0FF
:10B17000A04303244FF00052C3F87447C3F80825D6
:10B18000072300931F221E230021012000F00FFB44
:10B19000474B48491A6844F6206300BF00BF00BF10
:10B1A00000BF00BF00BF00BF00BF8A422FD000BF5A
:10B1B00000BF00BF00BF00BF00BF00BF00BF00BF97
:10B1C00000BF00BF00BF00BF00BF00BF00BF00BF87
:10B1D00000BF00BF00BF00BF00BF00BF00BF00BF77
:10B1E00000BF00BF00BF00BF00BF00BF00BF00BF67
:10B1F00000BF00BF00BF00BF00BF00BF00BF00BF57
:10B2000000BF00BF00BF00BF00BF00BF00BF013BC9
:10B21000C3D1294D0DF10F010F2000F087F89DF8E3
:10B220000F20332A3DD101232B7024490020FDF744
:10B230006BFC2D7895B34FF0A0430024C3F8704702
:10B2400001211C2000F078FB402000F076FA01205C
:10B2500000F083FA2A21302000F08FF814213220E8
:10B2600000F08BF80121332000F087F8204600F031
:10B2700088FA012000F09CF8072000F0E5F8022091
:10B2800000F004F9204600F017F9012000F02AF937
:10B29000204600F03CFA022000F03AF9284605B0BA
:10B2A00030BD013C002314F0FF042B70B2D1BCE789
:10B2B0004C2B00200024F4004F320020F8EE010057
:10B2C0001FB5174B1B7833B1164A13780133DBB225
:10B2D000012B02D8137004B010BD00240723147092
:10B2E000214600931F221E23012000F060FA02A8CD
:10B2F00000F0D4F9BDF90C10BDF90820BDF90A30F1
:10B30000091112111B11ADF80C10009120460649CD
:10B31000ADF80820ADF80A30FDF7F6FBDBE700BF1B
:10B320004F320020503200200CEF01002DE9F04197
:10B330004FF0A04786B000244FF0005860F07F0027
:10B340008DF808000D46C7F80C85234602A9012692
:10B3500000940122204600F07FFA04AB00962246BA
:10B360002146204600F078FAC7F808859DF810308D
:10B370002B70304606B0BDE8F08130B54FF0A044E8
:10B3800085B000234FF0005500F07F008DF80800D5
:10B390008DF809100222C4F80C5502A90093184632
:10B3A00000F05AFA0120C4F8085505B030BD00007D
:10B3B00013B504460DF106012020FFF7B7FF18B9B9
:10B3C0000024204602B010BD0DF107012320FFF735
:10B3D000ADFF0028F4D0012C9DF8063028D0022CB7
:10B3E00006D0002CECD123F0080343F0080321E041
:10B3F00023F008038DF806309DF8073023F008038A
:10B4000043F008039DF806108DF807302020FFF761
:10B41000B4FF0028D4D09DF807102320FFF7ADFF1C
:10B4200004460028CCD007490020FDF76DFBC8E793
:10B4300023F008038DF806309DF8073023F0080349
:10B44000E0E700BF2BEF010013B504460DF1070143
:10B450002020FFF76BFF10B9002002B010BD9DF84F
:10B46000071004F0070421F00701214320208DF884
:10B470000710FFF782FF0028EED003490020FDF7F8
:10B4800043FB0120E9E700BF3CEF010013B5044690
:10B490000DF107012020FFF749FF58B19DF8071073
:10B4A00001F00F0141EA0411C9B220208DF8071004
:10B4B000FFF763FF02B010BD13B504460DF107019D
:10B4C0002320FFF733FF58B19DF8071021F030011A
:10B4D00041EA0411C9B223208DF80710FFF74DFF90
:10B4E00002B010BD13B504460DF107012320FFF78C
:10B4F0001DFF58B19DF8071021F0400141EA841169
:10B50000C9B223208DF80710FFF737FF02B010BD36
:10B51000042807B528D10DF107012E20FFF706FFFB
:10B5200018B9002003B05DF804FB9DF807102E2029
:10B5300001F01F018DF80710FFF71FFF0028F0D062
:10B540000DF107012420FFF7F1FE0028E9D09DF856
:10B55000071001F0BF018DF807102420FFF70DFF41
:10B560000028DED00120DDE740B3012849D10DF1EC
:10B5700007012420FFF7DAFE0028D2D09DF807103B
:10B5800021F0400141F0400124208DF80710FFF721
:10B59000F4FE0028C5D00DF107012E20FFF7C6FEEE
:10B5A0000028BED09DF8071001F01F0141F04001B6
:10B5B0002E208DF80710FFF7E0FEB3E70DF107012D
:10B5C0002420FFF7B3FE0028ABD09DF8071021F030
:10B5D000400141F0400124208DF80710FFF7CDFE17
:10B5E00000289ED00DF107012E20FFF79FFE0028B6
:10B5F00097D09DF8071001F01F018DF807102E203D
:10B60000ACE7022823D10DF107012420FFF78EFEBD
:10B61000002886D09DF8071021F0400141F040013C
:10B6200024208DF80710FFF7A8FE00283FF479AF1B
:10B630000DF107012E20FFF779FE00283FF471AFCE
:10B640009DF8071001F01F0141F08001B0E70328C9
:10B6500088D10DF107012420FFF768FE00283FF490
:10B6600060AF9DF8071021F0400141F04001242017
:10B670008DF80710FFF781FE00283FF452AF0DF15F
:10B6800007012E20FFF752FE00283FF44AAF9DF835
:10B69000071001F01F0141F0C00189E713B504460E
:10B6A0000DF106012820FFF741FE10B9002002B07D
:10B6B00010BD0DF107012920FFF738FE0028F5D055
:10B6C000BDF8063023800DF106012A20FFF72EFE7B
:10B6D0000028EBD00DF107012B20FFF727FE0028F3
:10B6E000E4D0BDF8063063800DF106012C20FFF791
:10B6F0001DFE0028DAD00DF107012D20FFF716FE00
:10B700000028D3D0BDF80630A3800120CFE713B5C1
:10B7100004460DF107012320FFF708FE58B19DF8FC
:10B72000071001F07F0141EAC411C9B223208DF84E
:10B730000710FFF722FE02B010BD13B504460DF14D
:10B7400007012220FFF7F2FD28B1214622208DF8C3
:10B750000740FFF712FE02B010BD13B504460DF10D
:10B7600007012120FFF7E2FD48B19DF8071021F005
:10B770000101214321208DF80710FFF7FEFD02B0E3
:10B7800010BD13B504460DF107012420FFF7CEFDCF
:10B7900058B19DF8071021F0080141EAC401C9B26F
:10B7A00024208DF80710FFF7E8FD02B010BD70B53A
:10B7B0009DF81050002849D04FF0A0400124AC4023
:10B7C000012905F5E07694BFC0F80C45C0F808459E
:10B7D0000124FF2B40F8264007D09C40C0F80C45C0
:10B7E00003F5E074032640F82460FF2A1FBF02F52A
:10B7F000E0704FF0A0440C2644F820604FF0402049
:10B800000229C0F80855C0F80C354FF00043C0F8C5
:10B810001025C0F8243515D0032915D0012914BFEF
:10B82000002202224FF04023C3F85425FF22C3F820
:10B83000C0250122C3F85025C3F840250722C3F8CC
:10B84000002570BD0422EDE70622EBE74FF0402310
:10B85000C3F80005F5E700004FF0402082B0C0F8C3
:10B860004415C0F84825C0F834359DF80830C0F8B4
:10B8700038350B4B0B4800221A601A680192019A66
:10B88000094A012111600138012802D01A68002AF2
:10B89000F9D00A2894BF0020012002B0704700BFF1
:10B8A0001841004080841E0010400040014B187871
:10B8B000704700BF5132002008B54FF0A043D3F8C5
:10B8C00010355901C3F3806005D4104B1049012293
:10B8D0001A70FDF719F94FF0A043D3F81035DA05C7
:10B8E000C3F3002005D40B4B0B4901221A70FDF75E
:10B8F0000BF94FF0A043D3F81035DB0005D5BDE8B8
:10B90000084006490020FDF7FFB808BD523200206C
:10B910004DEF0100312B002060EF010075EF0100B9
:10B92000014B1878704700BF312B0020014B0022DB
:10B930001A707047312B002037B540F202331A28B5
:10B9400004460D46019301D00B2802D103238DF844
:10B9500004301C2C04BF0323ADF8043001F018F9A7
:10B9600020B901F0E7F808B102F0CCFA6DB10A4A4B
:10B9700001A9204601F016F908B102F0C3FA01212D
:10B98000204601F06FF903B030BD204601F0ACF95C
:10B99000204601F0CBF9F6E7B9B8010029DF70477E
:10B9A00028DF70471F4B204A1B6800BF00BF00BF45
:10B9B00000BF00BF00BF00BF00BF93422FD000BF39
:10B9C00000BF00BF00BF00BF00BF00BF00BF00BF7F
:10B9D00000BF00BF00BF00BF00BF00BF00BF00BF6F
:10B9E00000BF00BF00BF00BF00BF00BF00BF00BF5F
:10B9F00000BF00BF00BF00BF00BF00BF00BF00BF4F
:10BA000000BF00BF00BF00BF00BF00BF00BF00BF3E
:10BA100000BF00BF00BF00BF00BF00BF00BF0138B4
:10BA2000C3D170474C2B00200024F400022802BF31
:10BA3000014B01221A7070475332002010B5054C9B
:10BA400042F210716420FFF7ADFF207808B9013988
:10BA5000F8D110BD53320020A0F50833B3F5504F94
:10BA600010B508D2054B00241C70FFF797FFBDE806
:10BA70001040FFF7E3BF002010BD00BF533200208D
:10BA800010B500239CB2A24200D810BDCC5CC454B7
:10BA90000133F7E708B50303A3F50833B3F5504FB7
:10BAA0000CD2074B00221A70FFF77AFF4CF250308D
:10BAB000FFF778FFBDE80840FFF7C0BF002008BDD2
:10BAC000533200200B4B0222C3F80425D3F8002484
:10BAD000002AFBD00122C3F81425D3F80024002A41
:10BAE000FBD00022C3F80425024AD2F80034002B10
:10BAF000FBD0704700E001400A4B0122C3F8042547
:10BB0000D3F80024002AFBD00160D3F80024002AD7
:10BB1000FBD00022C3F80425024AD2F80034002BDF
:10BB2000FBD0704700E001401FB5144C4FF43C328D
:10BB30000C292368009218D1FFF7C4FF0A4601467A
:10BB400001A802F03BFE00992046FFF7D5FF0199BE
:10BB50000B48FFF7D1FF02990A48FFF7CDFF039981
:10BB60000948FFF7C9FF04B010BDB3F53C3FFAD058
:10BB7000FFF7A8FF00992046F3E700BF141000105C
:10BB800080100010841000108810001001211A206D
:10BB9000FFF7D2BE0B4B1A7812B90B4B1A707047D5
:10BBA0004FF0A042D2F81025520109D4064A13786A
:10BBB0000133DBB2022B1370F1D1044B0122EDE70C
:10BBC0000022EBE75232002056320020332B0020B7
:10BBD0002DE9F0411E4CFFF7DDFF23781BB1002358
:10BBE000237000F0F7F81B4B1A783AB11A4F3E78E1
:10BBF00000251D70B8461EB1012E11D0BDE8F081A0
:10BC000016493046FCF780FF32211422084600F026
:10BC10004BF800F0EDF8124A012313703B70EDE78A
:10BC200010492846FCF770FF00F008FA3246294612
:10BC30004FF4FA6000F038F8237813B1257000F063
:10BC4000C9F8074A0023137088F80030D6E700BF10
:10BC500055320020332B0020543200208BEF01009E
:10BC6000322B00209EEF0100024A1378013313703B
:10BC7000704700BF5F32002008B5054A0548012122
:10BC800001F0C0FE18B1BDE8084002F03BB908BDA4
:10BC900069BC0100C4EF01004FF0A0430322C3F8C8
:10BCA0000C27FFF7E9BF00003223B0FBF3F0B1FB34
:10BCB000F3F1094B10B51980084C094B20801A800C
:10BCC0000024084B08481C70224640F2666101F0CF
:10BCD000ABFE064B1C7010BD5A3200205C320020B7
:10BCE000603200205E320020643200205F3200208B
:10BCF00010B52C4A1378CBB1013B13702A4A117846
:10BD00000129104613D0022925D079B9274B1B8869
:10BD100063B1274B274A198811804FF0A0430824AC
:10BD2000C3F80845012301B91380037010BD214AEF
:10BD30001388013B9BB21380002BF7D11E4B1B884D
:10BD40003BB113804FF0A0430822C3F80C25022317
:10BD5000EBE71180F6E717490B88013B9BB20B809C
:10BD6000002BE3D1114B1C88013CA4B21C806CB9A0
:10BD70001248147001F0A0FE11492046FCF7C4FEE1
:10BD80004FF0A0430822C3F80C25CFE7084B1B88CF
:10BD90000B804FF0A0430821C3F80815012313704E
:10BDA000C4E700BF5F3200205E3200206032002016
:10BDB0005C320020583200205A32002064320020C9
:10BDC000B2EF0100704772DF704773DF704774DFB6
:10BDD0007047000008B5FFF7FAFF024628B1BDE83A
:10BDE000084002490020FCF78FBE08BDC8EF0100E3
:10BDF000014B01221A707047983200202DE9F0475C
:10BE0000FCF7F6FF0546002840F08C80464B1A7878
:10BE1000002A00F08780454C1870FFF7DBFF0123F4
:10BE200063700623A3701A23DFF82481E3704FF0B8
:10BE30000909FF230227237115224C233C4927704F
:10BE400004EB09006371E7712272A57188F8009014
:10BE500002F0B4FC98F80010364E1531C9B22A46EB
:10BE60002B46204688F80010FFF7ADFF37700A23F5
:10BE7000314F73703148B57003233B7002F01CFDE5
:10BE80003B780130F05403F1020A0133DBB25FFA70
:10BE90008AFA2A4806F8039087F800A002F00CFD01
:10BEA0002649024606EB0A0002F088FC234802F00D
:10BEB00003FD3B7898F800100344DBB2204632467D
:10BEC0003B70FFF780FF044638B102461C49284604
:10BED000FCF71AFE204602F015F81A4C1022002139
:10BEE000204602F094FC184B5A88002520464FF457
:10BEF0007A7301212570656025725343A58140F254
:10BF00007122B3FBF2F36381FFF75FFF044648B190
:10BF100002460E492846FCF7F7FD2046BDE8F047EB
:10BF200001F0F0BFBDE8F087983200209932002080
:10BF3000342B0020B8320020D7320020E3EF01007C
:10BF4000ECEF010088320020982E00200EF0010056
:10BF5000843200206CDF70476DDF704776DF7047FA
:10BF600077DF704749DF704707B50622FF21684633
:10BF700002F04DFC0C48FFF7EFFF06220B48694624
:10BF800002F0E9FB062230B90949084802F016FC24
:10BF900003B05DF804FB0549054802F00FFC0248B8
:10BFA000FFF7D8FFF4E700BFD8320020A82E00200A
:10BFB000D932002010B504461048FFF7CDFFFFF737
:10BFC00009FF0F4AA31D13F8011D02F8011BA3422C
:10BFD000F9D10C490C48C0234B750622103102F0F0
:10BFE000EDFB0648FFF7B6FF084902460020FCF7C4
:10BFF0008BFDBDE81040FFF7FBBE00BFD83200202C
:10C00000A82E0020982E0020D93200202AF001000E
:10C0100008B5084B93F90400074B93F900208242BE
:10C0200007D01870FFF79CFF18B1BDE8084001F079
:10C0300069BF08BD982E0020492B002008B5FCF7E9
:10C04000D1FE4FF6FF73984204D0BDE808403B2173
:10C05000FFF784BF08BD000013B5094A1378013308
:10C06000DBB2092B137009D9002401A81470FFF763
:10C0700079FF019A03492046FCF746FD02B010BD46
:10C08000DF32002046F0010038B5102303704FF076
:10C0900080530C4AD3F80031934204460D4607D131
:10C0A00015232370FFF758F8022360702B7038BDFA
:10C0B000054A934201D11123F3E7044A9342F1D197
:10C0C0001323EEE705280500322805003328050074
:10C0D000A0DF7047A2DF7047A6DF704762DF7047BE
:10C0E000F0B591B005460F4616460021032201A87F
:10C0F0001C4602F08CFB41F21113ADF804309DF8A0
:10C100000630012262F3420300211C2209A88DF8A7
:10C11000063002F07CFB3CB19DF8243023F00C0388
:10C1200043F00C038DF824309DF82430ADF80C70EA
:10C1300043F0100300248DF8243002AF169B0A93BD
:10C1400021462B788DF80E3003223846CDE90C4479
:10C15000CDE90E4402F05BFB11238DF809309DF808
:10C160000A3023F0170343F003032146142204A8E6
:10C170008DF80A3002F04BFB03ABCDE904379DF894
:10C180006030ADF818301423ADF81C30179B0893BD
:10C1900005EBC6036888ADF81A40063304AA09A95E
:10C1A000FFF798FF11B0F0BD0B88502B70B5054616
:10C1B0000C4602D0572B30D070BDCA8843899A42B2
:10C1C00001F112060DD10B8A022B0AD1304602F082
:10C1D00067F90022034685F8260012491046FCF74D
:10C1E00093FCE2886B8A9A420DD1238A022B0AD1F2
:10C1F000304602F055F90022034685F82700094928
:10C200001046FCF781FCEA88E3889A42D4D1217C6D
:10C210003046BDE87040FCF7E7BC034B01221A70C2
:10C22000CAE700BF5EF00100E0320020F0B5254B08
:10C230008BB006AC05460A4603F1100C2746186879
:10C240005968264603C6083363453446F7D1002DA6
:10C2500036D0002A34D01368EB6229463846FFF7FF
:10C260003DFF044648BB2A4605A912F8023B8DF85B
:10C27000163001204FF6E063ADF81430FFF728FFC9
:10C280000446D0B9032302930F4B01930F4B009345
:10C29000024601234FF6E1612846FFF721FF042300
:10C2A00002930B4B01930B4B0093012223464FF655
:10C2B000E2612846FFF714FF044620460BB0F0BDAC
:10C2C0000E24FAE70AF1010070F0010074F0010099
:10C2D00078F0010082F3010070B5284E88B0331861
:10C2E000ADF80E20B28893F8263004464FF6FF7062
:10C2F00082420D4600D03BB921490020FCF704FCE6
:10C300000524204608B070BDBDF80E20531E132B27
:10C3100005D91C490020FCF7F7FB0724F1E71022A0
:10C3200006EBC40400210DEB020002F070FAE38872
:10C33000ADF810300DF10E030693012307958DF82B
:10C3400012300325B08804A9FFF7C6FE044658B989
:10C35000BDF80E30019301230093BDF810200A4967
:10C360001023FCF7D1FBCCE7013D4FF47A70ADB25E
:10C37000FFF728FD002DE5D1C3E700BFE432002020
:10C380007DF00100AEF00100D0F0010007B50422FD
:10C3900000210DEB020002F03AFA054801A9FFF76F
:10C3A00045FF08B101F0AEFD03B05DF804FB00BF2E
:10C3B000E43200200C4B1B78062B10D10B4B1B6872
:10C3C0001A070CD10A4B186800F0F003302B08D084
:10C3D00000F0E000A0F140035842584170470020AF
:10C3E00070470120704700BFE00F00F0E40F00F03D
:10C3F000E80F00F0094B1B78062B0CD1084B1B688B
:10C400001A0708D1074B186800F0F000A0F13003BC
:10C410005842584170470020704700BFE00F00F0BD
:10C42000E40F00F0E80F00F008B5FFF7C3FF28B1F4
:10C430004B4B4C4A1B68C3F304231360FFF7DAFF2E
:10C4400010B1494B494A1A60494B4A4A1B68C3F329
:10C4500042331360FFF7CEFF20B1474AD36823F081
:10C460008073D3604FF080430022C3F80C21C3F8DF
:10C470001021C3F83825FFF7BDFF10B13F4B032251
:10C480001A60FFF7B7FF40B13D4B05221A60012249
:10C490009A6700229A603F225A604FF08052394BCF
:10C4A000D2F80414C3F82015D2F80814C3F82415E0
:10C4B000D2F80C14C3F82815D2F81014C3F82C15B0
:10C4C000D2F81414C3F83015D2F81814C3F8341580
:10C4D000D2F81C14C3F84015D2F82014C3F8441540
:10C4E000D2F82414C3F84815D2F82814C3F84C1510
:10C4F000D2F82C14C3F85015D2F83014C3F85415E0
:10C50000D2F83414C3F86015D2F83814C3F864159F
:10C51000D2F83C14C3F86815D2F84014C3F86C156F
:10C52000D2F84424C3F8702503F54053FB22C3F826
:10C530001825FFF73FFF28B1134B144A1B6803F07F
:10C540004F0313604FF08043D3F80024D20744BF59
:10C550006FF00102C3F800240D4B0E4A1A6008BDAB
:10C56000240300104035014074C007400DF0ADBAFF
:10C57000440200103C050040F0ED00E0A005004042
:10C580001056004000C0004058020010E40E004069
:10C590004C2B00200090D00310DF704711DF704754
:10C5A00013B504460949684601F0B4FB019808B97F
:10C5B00002B010BDD0E900312046984718B1684656
:10C5C00001F0B2FBF2E71120F2E700BF28F1010011
:10C5D00013B504460749684601F09CFB019B0BB963
:10C5E00002B010BD2046D3E900219047684601F013
:10C5F0009BFBF3E740F101000C4A92F816333F2B06
:10C600004FEA53110DD904290BD0094B996821B178
:10C610001A6842F480021A6070474FF48003136076
:10C62000704742F2020001F06DBC00BF00E100E083
:10C63000B4350020064B9A6822B11A6822F48002B1
:10C640001A607047034B4FF48002C3F88020704794
:10C65000B435002000E100E0F7B5154F3C782CBB65
:10C66000144E012520463570FFF79AFF11281AD085
:10C670002046FFF7ADFF104B10491868019001A844
:10C68000FFF78AFF044670B90D4B307018700D4BE0
:10C690003D70E02283F8162383F81523FFF7ACFFE3
:10C6A0002846FFF795FF204603B0F0BD0824FAE7BF
:10C6B000153300201433002022F1010079DF01003E
:10C6C0001633002000E100E070B50F4E3378B3B1AF
:10C6D0000E4D01202870FFF763FF112811D00220B2
:10C6E000FFF776FFFFF75AFF044630B93070287025
:10C6F000FFF7A0FF0320FFF76BFF204670BD082463
:10C70000FBE70024F9E700BF1533002014330020B5
:10C71000054B1B7833B1054B1B780BB1FFF7D4BF2A
:10C72000FFF79ABF0820704714330020153300200C
:10C73000014B1878704700BF1533002007B5084932
:10C74000684601F0E7FA019B13B903B05DF804FBFA
:10C75000D3E900209047684601F0E6FAF3E700BF0E
:10C7600034F10100FFF7EABF48DF70471FB50D4CF9
:10C7700001A8FFF7F9FF70B9214602A801F0CAFA33
:10C78000039B002BF4D00198D3E90021904702A825
:10C7900001F0CAFAF4E7052801D001F0B3FB04B0B8
:10C7A00010BD00BF58F1010060DF704769DF7047BE
:10C7B00061DF704730B5104D8FB02C240DF10201B0
:10C7C00003A8ADF80240FFF7F3FF70B9294601A8AE
:10C7D00001F0A0FA029B002BF0D003A8D3E90021BE
:10C7E000904701A801F0A0FAF4E7052801D001F074
:10C7F00089FB0FB030BD00BFDCF101007FB50546FD
:10C800000C4600294BD0274B0B600C22002101A8BD
:10C8100001F0FDFF032622688DF8045001A90125CF
:10C8200020208DF80650ADF80860FFF7BFFF0C22FE
:10C83000002101A801F0EBFF22688DF8045001A946
:10C840004020FFF7B3FF0C22002101A801F0DFFF19
:10C8500022688DF8046001A92846FFF7A7FF0C2283
:10C86000002101A801F0D3FF4FF4AF5322680193D8
:10C8700001A9A120FFF79AFF0C22002101A801F0D5
:10C88000C6FF9DF8043022686FF3000301A9A020C1
:10C890008DF80430FFF78AFF002004B070BD0E2031
:10C8A000FBE700BFC02A002070B5066814490446A3
:10C8B00032460020FCF728F92046FFF775FF236871
:10C8C000B34205461AD032464FF080560D4900203B
:10C8D000FCF71AF9D6F80C3122680B499B0203F1D8
:10C8E00000539A1A0020FCF70FF9D6F80C31226891
:10C8F0009B0203F100539B1A044A1360284670BD43
:10C9000064F101007DF10100ACF101001833002059
:10C91000064B01221A604FF08041D1F81834C3F35E
:10C920000042DB03F9D4024B9A7070470C000040C0
:10C930001C33002038B5074C051E04F1080318BF4E
:10C940001C4623682BB11A6822605B68284698470A
:10C95000F7E738BD2433002008B9FFF7EBBF704775
:10C9600010B50E4C2378BBB96360A360E36023610C
:10C970000B4B186810F0010002D1072100F08AF873
:10C98000FFF7D6FE20B94FF080430122C3F81825E7
:10C9900001232370002010BD8520FCE71C330020FC
:10C9A00000E100E007B500230DF107008DF8073026
:10C9B00001F030FB074BDA68013ADA60DB680BB94B
:10C9C000FFF7A6FF9DF8070001F048FB03B05DF8F4
:10C9D00004FB00BF1C330020012813B508D0032836
:10C9E0001CD018B9114B0122C3F8802002B010BD31
:10C9F0000F4C00230DF107008DF8073001F00AFB02
:10CA000023780BB9FFF7ACFFE3689DF8070001330B
:10CA1000E3600123A37001F021FBE7E70721002079
:10CA200000F038F8FFF7BEFFE0E700BF00E100E0EC
:10CA30001C330020144B07B51A686AB10020186037
:10CA40001B6800934FF08042009B0123C2F808331B
:10CA50000E4A5370FFF76EFF0D4B1A688AB1002221
:10CA60001A601B680193019B4FF080430222C3F8B8
:10CA70000823064B0120987003B05DF804EBFFF724
:10CA800059BF03B05DF804FB000100401C330020D7
:10CA900004010040002810B5C3B2A8BF00F16042F5
:10CAA0004FEA5010BABF0D4A03F00F0402F561427D
:10CAB0004FEA41114FEA8000C9B200F16040B4BFB3
:10CAC000115582F8001300F5614003F01F020123A5
:10CAD0009340C0F88031036010BD00BF14ED00E04A
:10CAE00000F1804000F5C040002382B0036003687D
:10CAF0000193019B02B07047800000F1A040D0F884
:10CB0000002722F44032C0F80027D0F8003743EA6B
:10CB10000143C0F800377047054B4FF0FF3207283C
:10CB200043F8202084BFC01880F85020704700BF11
:10CB30003033002010B5144C94F85E300BBB04F178
:10CB400038032021FF22013911F0FF0103F8012BE6
:10CB5000F9D1C8B2FFF7E0FF01310E29F9D1072161
:10CB60000620FFF797FF4FF4BE70FFF7B9FF074BA2
:10CB70004FF00042C3F80423012384F85E30002004
:10CB800010BD0820FCE700BF3033002000600040EB
:10CB9000034B93F85E00003818BF0120704700BFB8
:10CBA00030330020F0B52E4C0546201890F938009F
:10CBB000002853DAC87800280BBF082300230E266C
:10CBC0000826B34201D10420F0BD54F82370013788
:10CBD00030D1661944F8232086F8383010B9E218AD
:10CBE00082F850508A783AB3AA0002F1A042D2F8F3
:10CBF000006726F00206C2F80067097828B39B0098
:10CC000003F1804303F5C0432A02D3F8104524F40E
:10CC1000473424F44074C3F810450904D3F81005D0
:10CC200002F4F85201F440310A430243C3F81025DC
:10CC30000020C9E70133C4E74E7805F5E0724FF0F4
:10CC4000A047B60047F82260D7E7083B234493F893
:10CC5000582042EA811183F85810B5E70820B3E75D
:10CC60003033002010B51E4C231893F93820072AC2
:10CC700016DD224492F850309B09032B0BD14FF064
:10CC8000A043D3F81015C14001F001010231BDE805
:10CC90001040FFF731BF012B0CBF02210321F6E743
:10CCA000D3B2072B1AD8930003F1804303F5C04396
:10CCB000D3F8100540F00100C3F8100502F1400060
:10CCC000800080B2FFF70CFF41B154F822302BB145
:10CCD000012303FA02F2034BC3F8042310BD00BF83
:10CCE00030330020006000400E4B034493F938209D
:10CCF000072A02DD0021FFF7FFBED3B2072B10D8B1
:10CD0000930003F1804303F5C043D3F8101521F0DD
:10CD10000101C3F81015012303FA02F2024BC3F814
:10CD200008237047303300200060004038B50446C7
:10CD3000FFF7DAFF0E4B191991F8380091F93820F6
:10CD4000072819469FBF02F5A2730A4A002542F838
:10CD5000235004F5E0724FF0A043022543F822501F
:10CD6000FFF7DAFE0B19FF2283F8382038BD00BF29
:10CD700030330020006000402DE9F04F87B00024E0
:10CD80005A4D03944FF48072012102F1804303F560
:10CD9000C04390B21B68012B06D1D5F804330B4277
:10CDA00002D0FFF79DFE0C430432B2F5907F4FEAAC
:10CDB0004101EAD14E4B1B68012B0AD14FF4BE70E2
:10CDC000FFF78EFE4FF0A04344F00044D3F8103537
:10CDD000039314F0FF0F1AD0464F0126002534426A
:10CDE00010D0AB0003F1804303F5C043D3F8100526
:10CDF000D3F8101557F8253023B1C1F30141C0F322
:10CE0000042098470135082D4FEA4606E7D1002C4B
:10CE100065DA00214FF0FF33CDE90413354D364E6E
:10CE20004FF00009CA4601274FF0A04816F9013B10
:10CE30005A1C45D0C3F3C20106AA5018DCB210F840
:10CE4000042C03F03F0B03F0070307FA03F31A4225
:10CE500036D005EB0B02A40992F9382055F82220B0
:10CE600052B9032C2CD10DF1100E1EF801C04CEA62
:10CE7000030C0EF801C001E0032CF4D00BF5E071B7
:10CE800010F80C0C58F821101842C1F3014105D0DC
:10CE9000022915D1032C0FD1214604E003290FD11B
:10CEA000032C09D102215846019209F10109FFF72B
:10CEB00023FE019A5FFA89F912B12146584690473C
:10CEC0000AF1010ABAF1060FB0D1B9F1000F06D08C
:10CED0004FF0A043039AD3F81035934202D107B024
:10CEE000BDE8F08F0393049B059398E70060004032
:10CEF0007C610040303300208833002000F1804006
:10CF000000F5E040002382B0036003680193019BB9
:10CF100002B07047F0B5504B504C1B6885B0002BE9
:10CF20003DD04FF4827094F82E20FFF7E7FF2AB32C
:10CF300094F82F3013BB4A4B1B68002B33D04FF4AF
:10CF40008070FFF7DBFF638B94F82D108B424FD975
:10CF500022895B1A9BB292B26383D31A626802EB96
:10CF60004303404AC2F82C36C2F830164FF48270A0
:10CF7000FFF7C4FF3C4B01221A6014E06368029380
:10CF80002389ADF80C30E36800218DF8041023BB31
:10CF90002374236801A89847002384F82F3094F85D
:10CFA0002E30002BC7D1314B1B685BB14FF488701A
:10CFB000FFF7A4FF0023237402238DF8043001A897
:10CFC000236898472A4B1B68EBB14FF48A70FFF730
:10CFD00095FF0023237405B0F0BD208B6083636050
:10CFE0002081E160002AD4D11E4B01221A60D0E7D3
:10CFF000BCD1E368012284F82F2013B100226283A0
:10D00000AFE76383B2E766694FF000470125002E62
:10D01000E1D0B6FA86F227FA02F34632920026EA07
:10D02000030602F1804303F5E0431B68002BEED0BA
:10D030001046FFF763FFA2F58C72D30882F004025A
:10D04000C2F380028DF808308DF8045023688DF803
:10D05000092001A89847DAE70471004090330020C6
:10D0600000710040007000400470004010710040EA
:10D07000147100400023435082B043580193019B38
:10D0800002B070471FB501238DF80030054B8DF8B5
:10D09000080001916846D3E90012904705B05DF899
:10D0A00004FB00BFC03300202DE9F041474E057955
:10D0B0001C2303FB05630446DB7E002B40F08380CA
:10D0C00003680868471C0BD04FF0A04C012787402D
:10D0D000CCF8087500F5E0774FF0030E4CF827E028
:10D0E000D1F804C0BCF1FF3F1FBF0CF5E0774FF053
:10D0F000A04E4FF000084EF827808F69C3F82475C2
:10D1000091F814E04F7DBEF1010F4EEA0707C3F816
:10D110006C75C3F80C05C3F814C520D18F68781C52
:10D120001FBF07F5E0704FF0A04C4FF0000E4CF819
:10D1300020E0C868B0F1FF3F0DD04FF0A04E4FF097
:10D14000010C0CFA00FCCEF808C500F5E07C4FF0AD
:10D1500003084EF82C80C3F80805C3F810751C238B
:10D160006B43F01842600869F050EAB10A7F20680A
:10D170004FF48871FFF77EFF20684FF49071FFF73E
:10D1800079FF20684FF49271FFF774FF20684FF425
:10D19000A271FFF76FFF20680D4BC0F804331146F2
:10D1A00040F30730FFF776FC23680822C3F8002518
:10D1B0001C2303FB056500204FF480732876E8826A
:10D1C0006B83BDE8F0810820FBE700BFC03300207F
:10D1D00010030200F0B5036802792A480021C3F861
:10D1E00000151C2101FB0201496869B12649C3F8F9
:10D1F000081343F30731C3F3043549090124AC4054
:10D200002031224D45F82140D3F80C65D3F8145550
:10D21000D3F80815D3F810454FF0FF37BE42C3F8D6
:10D220000C7518BF06F5E076C3F81475C3F80875D9
:10D23000C3F810751EBF4FF0A043022743F82670B5
:10D240006E1C1FBF4FF0A04305F5E075022643F8A2
:10D250002560651C1FBF04F5E0744FF0A043022554
:10D2600043F824504B1C1FBF4FF0A04301F5E07161
:10D27000022443F821401C2303FB02030022DA7638
:10D280005A60F0BDC03300201003020000E100E04E
:10D2900001F06043B3F1005F2DE9F041064632D161
:10D2A0001C4B07791C2505FB07359846AC7D64BBF4
:10D2B000AA750068A960AC824FF49071FFF7DAFE9E
:10D2C0004FF4AC713068FFF7D5FE3368AA7DA968CA
:10D2D000C3F84415C3F8482501229A606A68B2B9B8
:10D2E000D3F82021D3F858014AB90028F8D00F20EC
:10D2F0001C2303FB07870023BB75BDE8F0810028D2
:10D3000018BF0F20F4E71020F7E71120F5E72046BB
:10D31000F3E700BFC0330020F8B501F06043B3F17C
:10D32000005F04460F465FD10379304E1C2101FB9C
:10D330000361496821B100684FF40475C0F80853CF
:10D340001C2000FB0363DD7D55B1187E00283AD018
:10D3500021B123684FF40472C3F80423112031E093
:10D36000DA75DF605D761D7620684FF48871FFF70F
:10D3700081FE20684FF4A271FFF77CFE2368C3F89A
:10D380003475C3F8382515BB01221A6021791C2297
:10D3900002FB016252680ABBD3F81041D3F8442162
:10D3A000D3F82401144302D10028F5D022461C23CF
:10D3B00003FB01660023984218BF03209A42F375CD
:10D3C00018BF0F20F8BD1F611A760125CCE7D3F8EE
:10D3D000002242F02002C3F80022D7E74FF4047283
:10D3E000C3F804230020EDE71020EBE7C033002052
:10D3F000704700007FB5384AD2F82461002E48D02B
:10D4000010464FF49271FFF735FE02238DF800307D
:10D41000D2F88034C2F880340393D2F83C358DF8CA
:10D4200008302E4BDA6801920022DA751A766846C7
:10D43000D3E9001290472848D0F8443173B14FF433
:10D44000A271FFF717FE254BDA7D3AB10022DA759B
:10D45000D0F83C05D968C0B2FFF714FE1E48D0F8DA
:10D460002031A3B14FF49071FFF704FE1B4B9A7D5E
:10D470006AB1D0F84C158DF80810002299688DF823
:10D48000002001919A756846D3E90012904704B0D4
:10D4900070BDD2F81031002BCDD04FF488711046FA
:10D4A000FFF7E8FD0D4BD2F83C15D87DC9B2884294
:10D4B000C1D11C7ED96864B1D2F8005225F0200594
:10D4C000C2F800521A69DC75DA601E76FFF7DAFDE1
:10D4D000B1E7DC75FAE700BF00200040C033002050
:10D4E000094A537891780133DBB2994208BF00238F
:10D4F000117899421FBF03705078182303FB002056
:10D5000014BF043000207047DC33002073B505469B
:10D5100000240DF107000E468DF8074000F07AFD5B
:10D520000DF10600FFF7DCFF90B10670094B9DF886
:10D53000062045605A709DF8070000F08FFD24B961
:10D54000054B4FF48012C3F80021204602B070BD95
:10D550000424F0E7DC33002000E100E0204B214907
:10D560001A682F2300BF00BF00BF00BF00BF00BF6D
:10D5700000BF00BF8A422FD000BF00BF00BF00BF66
:10D5800000BF00BF00BF00BF00BF00BF00BF00BFA3
:10D5900000BF00BF00BF00BF00BF00BF00BF00BF93
:10D5A00000BF00BF00BF00BF00BF00BF00BF00BF83
:10D5B00000BF00BF00BF00BF00BF00BF00BF00BF73
:10D5C00000BF00BF00BF00BF00BF00BF00BF00BF63
:10D5D00000BF00BF00BF00BF013BC3D1704700BF09
:10D5E0004C2B00200024F4000C4B0D484FF400326B
:10D5F00010B5C3F8802001244FF48033C0F84833BD
:10D60000C0F808334460FFF7A9FF064B8460002090
:10D610001860FFF7A3FF044B187010BD00E100E095
:10D62000001001405835002049350020401A2123C0
:10D6300020F07F40B0FBF3F070470000F8B51F4BBF
:10D640001F491B680025C1F84051C1F84451C1F879
:10D650004851C1F84C51C1F80051C1F804514BB3C5
:10D66000D1F8044517490968641A24F07F442F460D
:10D670001A68A24209D8A41A15441A7CDE691AB1A4
:10D68000D3E905201F749047AEB90F4A0F4B1178AC
:10D690001B788B4205D10133DBB2022B08BF00237C
:10D6A000137012780A4B43F822500A4B4FF4801241
:10D6B000C3F80021F8BD3346DAE700BF5C3500202F
:10D6C0000010014058350020553500205435002009
:10D6D0004C35002000E100E02DE9F74FA64AA749AC
:10D6E00013780978A64C99423BD00133DBB2022B68
:10D6F00008BF00231370A3491278A34B0F6853F897
:10D7000022003B1823F07F4300220B60236815465C
:10D710001646944613B942B1236006E01968814267
:10D720000DD902B12360091A196001262368DFF8B8
:10D73000609200930027BDB9DFF860A264E0401A50
:10D740000E44D968D3F81CE0C3F800C031B1BA194F
:10D7500022F07F42C3E90121DD611D4673460122AB
:10D76000D8E700252E46E1E72846ED69854A43685B
:10D770001268DFF82CE2D0F808C0991A21F07F4136
:10D78000714500F2AA80614401600122027422689E
:10D790000023C0E90133C361002A40F0A880206063
:10D7A000C9E75A1C9AF80210D4F800B0D2B29142DC
:10D7B0008AF8002004BF00228AF80020182202FB09
:10D7C00003A31A799868022A74D0032A00F0828091
:10D7D000012A19D1027CBAB9D3E903C18160596920
:10D7E0009B698361694BC1601B78002B0CBF63464A
:10D7F00013464360BAE7904200F09E809046D2699B
:10D80000002AF8D1002303749AF800309AF8012016
:10D810009A42C6D1236827B9009A9A4201D1002EB4
:10D8200042D0002B00F08580D3F80090584C554B27
:10D83000D4F804651868574F351A3B7825F07F45B2
:10D8400003359BB94FF48033C4F84433C4F8043330
:10D85000514B4FF400324FF00108C3F880211A6099
:10D86000C4F80080FFF77AFE87F80080A9452CBF36
:10D870004844401920F07F40C4F84005D4F80435EE
:10D880009B1B23F07F43801B033320F07F408342A8
:10D890000AD9D4F80435C4F84035FFF75FFE3E4B93
:10D8A0004FF40032C3F80021384B00221A7003B045
:10D8B000BDE8F08F5A46D846A2E78BF81020DBF877
:10D8C0001CB00123BBF1000FF7D1002B9CD0C4F892
:10D8D00000B099E700231A46F4E7D31A23F07F43F8
:10D8E000634534BFACEB0303002303604DE70168DD
:10D8F000136899421BD8591A1160C2614FE7A1EB16
:10D900000C01D3F81CC01A46BCF1000F0AD06346C4
:10D91000D3F800C08C45F2D3ACEB010CC3F800C0C7
:10D920009C4613460160C0F81CC0D86103E713464B
:10D93000EEE7FFF759FEB7E7404510D1DBF81C30A2
:10D94000236063B9DFF83CE001920121C9F80810B7
:10D95000CEF800300D4B1970FFF700FE019A1368E6
:10D96000D269C8F81C2012B111680B4413602368F7
:10D970005B4518BF012745E7543500205535002089
:10D980005C350020583500204C35002048350020FB
:10D99000001001404935002000E100E0DC330020A8
:10D9A000FEFF7F0008B5FFF71FFE104B00200F227F
:10D9B00018809A700E4B18600E4B18700E4B187032
:10D9C0000E4B4FF48012E021C3F8802183F814132A
:10D9D0001A6002F18042A2F56F22C2F8080583F8AE
:10D9E0001113074BD2F804251A6008BDDC33002060
:10D9F0005C350020543500205535002000E100E062
:10DA000058350020074B9B784BB132B128B10368E1
:10DA1000187C20B959745A61704707207047082054
:10DA2000704700BFDC3300202DE9F743DFF8848026
:10DA300098F8023005460E461746ABB3A0B304294A
:10DA400030D9436983B3437C0024012B0DF10700D7
:10DA50000CBF8946A1468DF8074000F0DBFA0DF1B6
:10DA60000600FFF73DFDD8B1012303700F4B456061
:10DA7000D3F80435C0E90497C0E902369DF80630B2
:10DA800088F801309DF8070000F0E8FA24B9084B47
:10DA90004FF48012C3F80021204603B0BDE8F083A4
:10DAA0000424EFE70724F7E70824F5E70010014016
:10DAB00000E100E0DC330020064A92783AB130B150
:10DAC000426922B1002202740221FFF71FBD082023
:10DAD000704700BFDC33002037B550E8023F1FFA23
:10DAE000A3F5C488A54202BFBFF32F8F00220DE02B
:10DAF000C48925448489A54228BF2D1BC3EA054556
:10DB000040E80254002CE8D14FF001028DF80320C8
:10DB10000193019B9DF803200B6002F0FF0322B1EB
:10DB20004B880068184403B030BD1846FBE70A88EC
:10DB30004B889A4209D150E8022FC2EA224240E8BB
:10DB40000223002BF7D1012070470020704729DF06
:10DB5000704728DF704770B503689E6886B004463A
:10DB60000D466EB11022002101A800F050FEA368FE
:10DB70000593237902952BB1012B0BD001A8B04757
:10DB800006B070BD01238DF80430236903936369E7
:10DB90000493F3E702238DF80430E3681B03F5E7F1
:10DBA000034B187A0122B0FA80F05A74400970478A
:10DBB0007035002038B5254C237A012B05D0022B77
:10DBC00042D1022808D0032831D0637C002B37D102
:10DBD000BDE8384000F042B81D4B00221B68E260EF
:10DBE0001A793AB1012AF0D11A6901321A615B69D6
:10DBF0009A420AE0D3E905128D1AB5F5805F94BF09
:10DC0000521902F580529A619142DED102284FF0FA
:10DC1000000308BF194623720D4B18BF0D21186869
:10DC2000FFF799FF0B490C48FFF781FFCDE7E36849
:10DC30000133082B01D8E360C7E70023E360E5E781
:10DC4000BDE83840FEF764BD38BD00BF7035002028
:10DC500088350020843500206035002070B5214CC7
:10DC6000214E237A25463BB920492148FFF734FF4E
:10DC7000306008B9606070BD022334682B7223796C
:10DC80004BB1012B20D003212046FFF764FF002376
:10DC90002B726B60EFE7D4E90523D21AB2F5805FEF
:10DCA000D4E9031028BF4FF480529208012A38BFEC
:10DCB000012219441844FFF74AFF014650B11128C8
:10DCC000E1D101232B72D6E7D4E903031844FFF70F
:10DCD00040FFF2E72B7C002BCDD1BDE87040022045
:10DCE000FFF768BF7035002088350020843500209C
:10DCF0006035002000F0FD03012B08D1044B002209
:10DD00005A74421E504250411874FFF7A7BF704723
:10DD1000703500200B684A684360934208BF0023B7
:10DD2000016008BF43607047436843B1026891686F
:10DD300052680B449342436004BF00234360704722
:10DD400013B50478012C13D104238DF800304368F7
:10DD500010491B7810488DF804302246FFF7DCFA92
:10DD60000E4B1C700E4B68461B68984702B010BDE6
:10DD7000022C09D1C368074907488DF800400122E9
:10DD80000193FFF7C9FAEDE7002CEFD103238DF8DB
:10DD90000030E7E790350020502B0020913500201F
:10DDA0008C350020F0B5204E044617469C460FCE19
:10DDB00089B06D460FC596E80F0085E80F006369CE
:10DDC0000693237C8DF81CC0003B18BF01238DF8FF
:10DDD0001430637C1548002B14BF0E2300238DF8EC
:10DDE0001530E3680293A368039323680193636883
:10DDF00000930F4B1F600F4B00221A7069460E4AAA
:10DE0000FFF752F968B9236801330AD09DF81D3035
:10DE100013B90648FFF7ECFA084904480122FFF756
