:020000021000EC
:108000000000012061850100A5850100A785010010
:10801000A9850100AB850100AD85010000000000CD
:10802000000000000000000000000000AF8501001B
:10803000B185010000000000B3850100B585010095
:10804000D9500200BB850100995A0200BF8501008A
:10805000C1850100000000001D540200B955020056
:10806000C7850100C9850100CB850100CD850100D0
:10807000CF850100D1850100D3850100D5850100A0
:10808000D7850100E15C0200DB850100DD85010090
:108090007D5D0200E1850100094E0200E5850100D9
:1080A000E7850100E98501000000000000000000F4
:0880B000EB850100ED850100E4
:048400004D4F4B4F42
:10840400354936480A1A02D0072291438D46344929
:1084140034480A1A06D00722914381F309880222BC
:1084240082F3148830483149314A00F044F8314825
:108434003149324A00F03FF831483249324A00F0BB
:108444003AF832483249334A00F035F83248334971
:10845400334A00F030F833483349344A00F02BF8FB
:1084640033483449344A00F026F834483449002269
:1084740000F02CF833483449002200F027F8334840
:108484003349091A082902DB002202604160314A9B
:1084940090471F481F49884205D00268043003B43E
:1084A400904703BCF7E700208646EC4600200021F5
:1084B400294A9047FEE7884207D0521A05D003782C
:1084C40001300B700131013AF9D17047884202D072
:1084D40002700130FAE770470000012000F8002024
:1084E40000000120000001207C8202002C2B0020CF
:1084F400902B0020F0850100F085010090720200AD
:108504007C8202002C2B00202C2B0020AC73020058
:10851400AC730200AC730200AC730200AC730200D3
:10852400AC730200AC730200AC7302007A820200E6
:10853400E0820200902B0020902B0020902B002042
:10854400485D0020485D0020485D0020485D002013
:10855400485F002073850100298B01000B484FF010
:108564000701884385460A488047FFF749BF094801
:1085740009490A4A884207D0521A05D003780130C3
:108584000B700131013AF9D170470000000001205D
:108594004D4A020040730200C02A00202C2B002008
:1085A400FEE7FEE7FEE7FEE7FEE7FEE7FEE7FEE79F
:1085B400FEE7FEE7FEE7FEE7FEE7FEE7FEE7FEE78F
:1085C400FEE7FEE7FEE7FEE7FEE7FEE7FEE7FEE77F
:1085D400FEE7FEE7FEE7FEE7FEE7FEE7FEE7FEE76F
:0C85E400FEE7FEE7FEE7FEE7FEE700BF53
:1085F0000369C1688B429DBF8268D21802F1FF32C5
:1086000003F1FF3394BF501A581A70472DE9F8430D
:10861000D0E902940546A9EB04084068904520443F
:108620000F46144404D90EF085FDEC60BDE8F883D4
:108630004246A4EB09040EF07DFD6868224607EB74
:108640000801F0E72DE9F843C56806468946174654
:108650004FF000083469B3687068A54228BFE41879
:10866000013C621B5C1BBC4228BF3C46944228BFB5
:1086700014464946284422460EF05CFDB368254462
:10868000AB4208BF00253F1BA044A144F560E1D1E7
:108690004046BDE8F883000010B5114C114AA261B4
:1086A0000223C4E90433104BE361A2644FF4007366
:1086B0000E4A0F492362E26400231022E01DA362E8
:1086C0006362E362A3656365E36522650EF08EFD78
:1086D000084920460EF08AFD2023A37110BD00BF7B
:1086E000902B0020AC730200182C0020082C0020D6
:1086F000B5730200B9730200F8B5184C182300FBDB
:10870000033503FB00402544C46A012C0F4616467E
:108710000FD0022C1AD0F4B92846FFF769FF864221
:1087200005D8324639462846FFF770FF34462046C2
:10873000F8BD2846FFF75CFF8642344628BF044652
:10874000224639462846FFF761FFF0E72846BDE894
:10875000F840FFF777BF0024E9E700BF902B002027
:1087600073B50E4B1B7804460D4616460BB9FFF742
:1087700093FF00230DF107008DF807300DF09CFFEB
:10878000324629462046FFF7B7FF04469DF807000A
:108790000DF0B6FF204602B070BD00BF902B002048
:1087A000826810B504464068531C834205D820688F
:1087B0008154A360E3680133E360D4E901329A4253
:1087C0000BD121682069FFF7CBFFA368984215BF42
:1087D0004FF0FF330023E360A36010BD2DE9F84F95
:1087E0009946DDE90A431646054688460A464FF093
:1087F000010AB24212D2CA4538BFCA4613F0010B71
:1088000001D184B90024EB68002B48DB0127B9F1C2
:10881000010F1FD909F1FF397743F8E70AF1010A7F
:10882000B2FBF6F2E5E79B0712D5B9F1000F0CBFDA
:1088300030272027A245E6D239462846FFF7B0FF69
:10884000EB68002B04F1FF34DDDB002CF2D1D9E71B
:108850002027EFE7B8FBF7F39E42DDD9DFF8489019
:10886000B8FBF7F3284619F8031007FB1388FFF746
:1088700097FFEB68002B03DBB7FBF6F3B74210D290
:10888000BBF1000F0BD054B1A24508D220212846DD
:10889000FFF786FFEB68002B04F1FF34F3DABDE845
:1088A000F88F1F46DCE700BFC07302002DE9F04FD0
:1088B0009BB00AAB0E46059340210023CDE9061379
:1088C000CDE90830039015464FF00A0A16F8011B4F
:1088D00039B9089B002B00F30B8108981BB0BDE849
:1088E000F08F252940F0B5804FF0000B07E0302BCA
:1088F0000FD14BF0020B01E04BF0010B0E4631465D
:1089000011F8013B2D2BF7D0F1D8232B11D02B2BB5
:108910000CD00024314611F8013BA3F130000928A6
:108920000AD80AFB0434303C0E46F3E74BF0040B44
:10893000E4E74BF0080BE1E72E2B0FD10E464FF08A
:108940000009304610F8011BA1F13007092F07D8A4
:108950000AFB0913A3F130090646F2E74FF00009BC
:10896000304610F8011B01F0FB07682F0646F8D0CF
:10897000782909D86F290BD8632966D020D82529F2
:1089800067D0582900F09480089B002B9EDAA0E75E
:1089900070390829F8D801A353F821F0E18A0100C1
:1089A0008989010089890100C18A01008989010042
:1089B0009F8A01008989010089890100B18A01002B
:1089C0006429E1D129680F68081D87EAE7712860EA
:1089D000A1EBE7714FF0010809293EDCC84538BF1B
:1089E000C8462CB1002F02DB1BF0040F00D0013C65
:1089F0001BF0020F02D0B9F1000F04D01BF0010FE1
:108A000001D17CBB002408990029BDDB002F35DA99
:108A10007F422D2105A8FFF7C3FE08990029B3DB8B
:108A20000BF00301022904D1B9F1000F01D154BBAD
:108A3000002408990029A7DBCDE9004B4B460A2208
:108A4000394605A8FFF7CAFE9EE72B681A1D19785C
:108A50002A6005A8FFF7A4FE96E708F10108B1FB1C
:108A6000FAF1B9E7A045CED2202105A8FFF798FE7C
:108A70000899002904F1FF34C3DAC4E71BF0040F9E
:108A8000CBD02B21C6E7A045D3D2302105A8FFF7D4
:108A900087FE0899002904F1FF34C8DAC9E729687C
:108AA000CDE9004B081D28604B460A220968C8E73B
:108AB0002968CDE9004B081D28604B461022F5E7D8
:108AC0002B681A1D2A601C6814F8011B00293FF44A
:108AD0005BAF05A8FFF764FE089B002BF4DA53E7B1
:108AE00029680B1D2B6000220823CDE90032E5E741
:108AF000079A1AB103980AA9FFF732FEDDE90723A6
:108B000013440893E9E600BF0EB403B503AB01AA12
:108B100053F8041B0193FFF7C9FE02B05DF804EBA4
:108B200003B070473DDF704707B5194B19490093F3
:108B30000122194B0020FFF7E7FF4FF08053174940
:108B4000D3F80C2100209202FFF7DEFF0021084637
:108B50000BF0F4FA01F059FE00F084F90120FFF760
:108B6000E1FF0F490020FFF7CFFF0BF0D3FB02F02E
:108B7000B5FA02F09BF900F0A9FB01F091FE06F0B6
:108B800059FE02F093F802F0E3F801F058FEECE72A
:108B90001B740200DC730200D07302002474020014
:108BA0003D74020010B58EB0EB238DF80430002325
:108BB0008DF805008DF806308DF807209AB192B235
:108BC000181D0EAC14FA80F0CC5C00F8344C013364
:108BD00098B28242F4D8043201A900200BF08EFE34
:108BE00000200EB010BD0422F6E7000010B5027898
:108BF000EA2A86B0034603D1C478221D8A4203D0F4
:108C0000002211460D2014E04278013A032A12D8BE
:108C1000DFE802F0021323300429F1D89B782343C4
:108C2000EED11A4B5B885BBAADF80430022201A981
:108C30000120FFF7B7FF06B010BD022CE0D11A7972
:108C40005B7943EA0223114A538001F0A7FF0BF03E
:108C5000E1FB002211462046EBE70429D0D89B789F
:108C60002343CDD1094B1B798DF80430012201A992
:108C70000320DEE7012CC3D11A79044B1A7101F0ED
:108C80008DFF002211460420D3E700BFD42E002020
:108C900076DF70477ADF70477FDF70478FDF70477E
:108CA000A8DF7047A9DF704766DF70470DF07CBC16
:108CB000094B48881B8898424FF0000207D108886A
:108CC00040F67723984202BF8A88033A92B203495A
:108CD0000020FFF719BF00BF2C2B002055740200A5
:108CE0001FB50446028834490020FFF70DFF238892
:108CF000212B3FD019D8112B36D00CD8012B56D0B0
:108D0000102B2DD021462D480BF060FD204600F0A1
:108D1000A5FD04B010BD132BF4D1294800231A4639
:108D200085210088FFF7B8FF2FE0522B32D0562B59
:108D300038D0512BE6D1A379002BE3D0A27B043AA3
:108D4000022ADFD8022B18BF01238DF80030A0883B
:108D50004FF4C1736946ADF80430FFF7A1FF14E08A
:108D6000A288174B1A80CDE70BF054FB144B4FF63B
:108D7000FF72F7E713490020FFF7C6FE0023A08823
:108D8000ADF800306946FFF789FF0028BAD00DF032
:108D90000BFCB7E70A4800231A4619460088FFF77C
:108DA00081FFF2E7A0881321FFF772FFEDE7A088AB
:108DB0000021FFF779FFE8E7837402005C59002087
:108DC0002C2B00209D74020008B503784BB9054B8D
:108DD0003B211888FFF75CFF18B1BDE808400DF093
:108DE000E3BB08BD2C2B0020014B1888704700BF47
:108DF0002C2B0020034B18884FF6FF73C01A18BFA6
:108E0000012070472C2B002007B50BF077FF08B12D
:108E10000DF0CAFB002301A9012001930CF040F8DA
:108E200008B10DF0C1FB01A80CF090F808B10DF0ED
:108E3000BBFB03B05DF804FB08B5084908480DF01A
:108E40005CFF08B10DF0B0FB054817210DF063FF82
:108E500018B1BDE808400DF0A7BB08BDB18C0100FA
:108E6000302E002000B589B0FFF7CEFF0BF08EFB4F
:108E70000822002101A80EF086F9274A4FF0C87396
:108E800001A8CDE90123FFF705FF08B10DF08CFB28
:108E9000FFF7D2FF0021142201A80EF074F911236C
:108EA0008DF81130ADF812308DF814300122002306
:108EB00001938DF8082003930AF096FF01A98DF81D
:108EC000100016480DF04EFE08B10DF06DFB00F0DD
:108ED00091FC0BF06DFD1C22002101A80EF053F94E
:108EE00000234FF42032CDE90132ADF812304FF4B7
:108EF00070228DF814300A4B039206930322094B1B
:108F00008DF8102001A807930DF05EFD08B10DF05B
:108F10004BFB09B05DF804FB10003C00182E00204C
:108F2000C98D0100AD8C010076DF704700BF184687
:108F3000BFF34F8F00BF074BDB6803F4E0620549C6
:108F4000054B1343CB60BFF34F8F00BF00BF00BF83
:108F5000FCE700BF00ED00E00400FA0582B00190DC
:108F6000019B1B781A46019B01331B781B021A4395
:108F7000019B02331B781B041A43019B03331B78AC
:108F80001B061343184602B0704729DF704700BF25
:108F9000184611DF704700BF184682B001904FF0AD
:108FA000A043184602B0704700B585B0019001ABF0
:108FB0001846FFF7F2FF0390019B012202FA03F328
:108FC0001946039800F04CF800BF05B05DF804FBAB
:108FD00000B585B0019001AB1846FFF7DEFF0390A6
:108FE000019B012202FA03F31946039800F042F8AC
:108FF00000BF05B05DF804FB00B585B0019001AB82
:109000001846FFF7CAFF0390039BD3F80435029379
:10901000029BDA43019B012101FA03F31A40039BEF
:10902000C3F80825019B01229A40029B1A40039B2A
:10903000C3F80C2500BF05B05DF804FB00B583B094
:1090400001900091009B002B03D10198FFF7C0FF16
:1090500002E00198FFF7A8FF00BF03B05DF804FB32
:1090600082B001900091019B009AC3F8082500BFCF
:1090700002B0704782B001900091019B009AC3F842
:109080000C2500BF02B0704784B00190244B0393BD
:10909000019B002B40D0234B1A680399019B00BF12
:1090A00000BF00BF00BF00BF00BF00BF00BF8A42BB
:1090B0002FD000BF00BF00BF00BF00BF00BF00BF78
:1090C00000BF00BF00BF00BF00BF00BF00BF00BFA8
:1090D00000BF00BF00BF00BF00BF00BF00BF00BF98
:1090E00000BF00BF00BF00BF00BF00BF00BF00BF88
:1090F00000BF00BF00BF00BF00BF00BF00BF00BF78
:1091000000BF00BF00BF00BF00BF00BF00BF00BF67
:1091100000BF013BC3D1019300BF04B0704700BF43
:109120000024F400842B002000B583B00190019B43
:109130004FF47A7202FB03F31846FFF7A5FF00BF56
:1091400003B05DF804FB00B587B0019000230593E0
:10915000019BB3F5A03F1CD8019B1B0B0593019B02
:10916000C3F30B03002B02D0059B0133059330237F
:1091700003930023049308E0039A049B13441846C6
:109180000AF092FF049B01330493049A059B9A42D0
:10919000F2D33220FFF7C8FF0123184607B05DF86D
:1091A00004FB000008B5074B1B681846FFF7CBFF10
:1091B000044B1B681A4604490020FFF7A5FC00BFBA
:1091C00008BD00BF802E0020B474020082B0019060
:1091D0000091019B022B02D1024B01221A7000BFA9
:1091E00002B07047942E002000B587B00390029122
:1091F0000192154B00221A70039B03F54033019A2C
:1092000002991846FFF7C1FE0023ADF816300BE0B7
:109210006420FFF739FF0C4B1B78002B0FD1BDF8F2
:1092200016300133ADF81630BDF8163042F20F7229
:109230009342EDD905490020FFF766FC00E000BF2E
:1092400007B05DF804FB00BF942E0020C474020038
:1092500000B585B0019001238DF80F3004220199EB
:1092600007480DF01CFF0346002B02D000238DF8A9
:109270000F309DF80F30184605B05DF804FB00BFB5
:10928000D474020008B54FF44130FFF7E1FF034604
:10929000184608BD00B585B00390029101920A4BB3
:1092A0001B68002219464FF4403000F075FC03465D
:1092B0001A46039B1A80039B1A88029B1A8000BFE0
:1092C00005B05DF804FB00BF802E002000B5ADF5B1
:1092D000437D0023C1930DF10B0300221A7000237C
:1092E0008DF8F3320023BB93B44B1B78002B00F0B6
:1092F0000382B34B00221A60B2490020FFF704FC3E
:109300006420FFF711FF0023C193AF4BD3F804355E
:10931000C0930023C1931AE001F01AFDAA4BD3F8C1
:109320000435C09918460CF0D3FC0346B3F5FA7F18
:109330000DD3A54BD3F80435C093C19B5A1CC192E1
:10934000272B04D9A1490020FFF7DEFBCCE19C4B81
:109350001B68002BE0D00023C193FFF723FF0122FD
:1093600001219B4801F008F90023BD9372ABBA9329
:1093700000238DF8F33209AB1421184600F088FB66
:1093800000238DF8FF32904BD3F80435C09301F0E1
:10939000DFFC8F4B1B884FF6FF72934204D18D493F
:1093A0000020FFF7B1FB9FE1874BD3F80435C0994C
:1093B00018460CF08DFC0346B3F5FA7F0DD3824BB3
:1093C000D3F80435C093C19B5A1CC192772B04D9A2
:1093D0007E490020FFF798FB86E10DF10B03002288
:1093E0001A700DF10B0203AB1146184600F080FB1A
:1093F00003468DF8E732784B1A68BD9B1A44704BD0
:109400001B689A4202D301238DF8FF329DF8E732A0
:1094100083F00103DBB2002B07D09DF8FF3283F00D
:109420000103DBB2002B40F057810320FFF7E4FD7E
:109430000023C1930DF10B031B78002B18D0BA9AAF
:10944000BD9BD0180DF10B031B781A4603AB1946D0
:109450000DF070FE0DF10B031B781A46BD9B1344F3
:10946000BD930DF10B031B781A46BB9B1344BB93B2
:10947000BB9800F0E9FB01F06BFCBD9BFF2B07D80C
:109480009DF8FF3283F00103DBB2002B40F0268110
:10949000BD9BFF2B09D94FF48073ADF8FC32BDF8AA
:1094A000FC32BD9AD31ABD9307E0BD9BADF8FC32E8
:1094B000BDF8FC32BD9AD31ABD93BDF8FC32002B27
:1094C00000F00E81444B1868BDF8FC329B089BB23B
:1094D0001A46BA99FFF788FEBDF8FC223E4B1B687E
:1094E00013443D4A1360BD9B002B1BD00023ADF8F5
:1094F000FA3212E0BDF8FC22BDF8FA3213441A46E3
:10950000BA9B1A44BDF8FA32BA990B4412781A7011
:10951000BDF8FA320133ADF8FA32BDF8FA32BD9A2D
:109520009A42E7D82D490020FFF7EEFA2A4B1B6834
:10953000B3F5826F13D99DF8F332002B0FD10123BD
:109540008DF8F332FFF79EFE034683F00103DBB292
:10955000002B04D022490020FFF7D6FAC4E01E4BAE
:109560001A68174B1B689A42C0F0BC8072AA08A9FF
:109570000DF122031846FFF78DFE0DF122031B8823
:109580001946184B1A680E4B1B68009313460A467F
:1095900015490020FFF7B8FA0DF122031B881A467F
:1095A000104B1B689A4223D005220321084800F083
:1095B000E3FF0E490020FFF7A7FA95E07C2E00207C
:1095C000802E0020DC74020000100140F0740200C4
:1095D0004C2E002004750200902E00202075020001
:1095E00024750200842E00203C7502006075020084
:1095F00001220321434800F0BFFF434BAA221A7007
:10960000414B01225A70404B80229A703E4B0022FF
:10961000DA703E4B1B681B0CDAB23B4B1A713B4BAA
:109620001B681B0ADAB2384B5A71384B1B68DAB226
:10963000354B9A7108AB1B881B0A9BB2DAB2324BCE
:10964000DA7108AB1B88DAB22F4B1A722E4B032249
:109650005A722D4B00229A722B4B0022DA722C493F
:109660000020FFF751FA4FF4FA70FFF75DFD254B2C
:109670001B8813211846FFF757FC224B4FF6FF7249
:109680001A804FF4FA60FFF74FFD01210320FFF726
:10969000D5FCFFF77EFCB890B89BB793B79B002B27
:1096A00005D01C4A4FF4B071B7980CF06FFF0DF065
:1096B000C5F94FF47A70FFF737FD0C2112480AF014
:1096C0003DFD4FF47A70FFF72FFD00210320FFF7D7
:1096D000B5FCFFF72DFC5AE600BF58E600BF56E682
:1096E00000BF54E600BF52E60B4B00221A70002167
:1096F0000320FFF7A3FC00E000BF0DF5437D5DF8FC
:1097000004FB00BF4C2E0020402E0020802E0020A5
:109710006C750200787502007C2E002010B584B0B4
:1097200001900091009B1B7A0393009B5B6802935E
:10973000274B1B78032B30D0032B44DC012B02D0AA
:10974000022B1AD03FE0029B08331846FFF706FCB5
:109750000346204A13601F4B1C681F4BD3F8043587
:109760001E4A1268114618460CF0B2FA0346224609
:109770001B490020FFF7C8F926E0039B023B029A31
:1097800013441B881A46174B1A60164B1B681A465F
:1097900015490020FFF7B8F916E0039BDBB2194624
:1097A000029800F091F9034683F00103DBB2002B2D
:1097B00003D00E490020FFF7A7F9039A0C490020B7
:1097C000FFF7A2F900E000BF00BF04B010BD00BF6A
:1097D0007C2E0020802E002000100140982E0020BA
:1097E000AC750200842E0020C0750200CC7502000A
:1097F000D875020000B587B001AB0C2200211846D5
:109800000DF0C1FC0823ADF804300F4B02930F4B51
:10981000039301AB19460E4800F0A2FD0590059A8E
:109820000C490020FFF770F9059B0493049B002B63
:1098300005D0094A4FF4EB7104980CF0A7FE059B84
:10984000184607B05DF804FBB19801007998010053
:109850004C2E0020E47502007875020000B583B03C
:1098600001900199034800F0F3FD00BF03B05DF8DB
:1098700004FB00BF4C2E002000B585B00190019A7A
:1098800009490020FFF740F9019B0393039B002B3C
:1098900005D0064A40F2ED1103980CF077FE00BFA8
:1098A00005B05DF804FB00BFF47502007875020096
:1098B00000B589B003900291029B1B78092B00F23E
:1098C000B68001A252F823F0439901006999010082
:1098D000AB990100F198010025990100339901002D
:1098E000CB990100039A0100C19901001F9A010060
:1098F000029B1B781A4655490020FFF705F9012203
:109900000421039800F038FE0790079B0693069BFE
:10991000002B00F094804E4A4FF4097106980CF029
:1099200035FE8CE0029B1B781A464A490020FFF75F
:10993000EBF8029B1B781A4647490020FFF7E4F832
:1099400080E0029B5B681B78184600F0EDF8434B03
:10995000D3F80435424A1360029B1B781A464149EA
:109960000020FFF7D1F86DE0029B1B781A463E49B4
:109970000020FFF7C9F83D4B02221A70029B5B687A
:109980001B78012B5DD101220221039800F0F4FD28
:109990000790079B0593059B002B52D02C4A40F261
:1099A000552105980CF0F2FD4BE0029B1B781A46FE
:1099B0002F490020FFF7A8F82C4B03221A7041E032
:1099C00002990398FFF7AAFE3CE02A4B01221A7085
:1099D000029B9B881A46284B1A60029B9B881A465A
:1099E000264B1A60029B1B781946234B1A68234B9F
:1099F0001B68009313460A4621490020FFF784F8AC
:109A000020E0029B1B781A461E490020FFF77CF8D5
:109A1000184B00221A70184B00221A6012E0029BA9
:109A20001B781A4618490020FFF76EF80AE0029BDF
:109A30001B781A4615490020FFF766F802E000BFC0
:109A400000E000BF00BF09B05DF804FB047602002F
:109A5000787502001476020024760200001001409E
:109A6000982E002034760200407602007C2E0020E2
:109A7000647602002E2B0020882E00208C2E0020E1
:109A800090760200A4760200B0760200B87602005A
:109A900000B583B001900B468DF803309DF803307C
:109AA0009BB21A46520013441A46D200D31A9AB2F5
:109AB00014230199034800F0C5FD00BF03B05DF811
:109AC00004FB00BF9C2E002000B583B001900B4624
:109AD0008DF803309DF803301A460199034800F0D1
:109AE000D6FD0346184603B05DF804FB9C2E00200B
:109AF00000B585B001900091009A0199094800F0E5
:109B00001EFE03468DF80F309DF80F30002B03D05A
:109B10000121044800F03DFE9DF80F30184605B0C5
:109B20005DF804FB9C2E002000B583B003468DF841
:109B30000730124B01221A70114A9DF8073013703A
:109B4000104B00221A60104B42F210721A600F4B39
:109B500000221A600A4B1B781A460D490020FEF7B6
:109B6000D3FF074B1B78042B04D00A490020FEF7D3
:109B7000CBFF00BF03B05DF804FB00BF7C2E0020CC
:109B80007D2E0020842E0020802E0020902E00208C
:109B9000D07602000077020086B003900291019215
:109BA000019B002B02D0019B1B8801E04FF6FF7345
:109BB000ADF81630002304933CE0BDF816301B0AC4
:109BC0009BB2DBB21AB2BDF816301B021BB21343B4
:109BD0001BB2ADF81630039A049B13441B789AB25B
:109BE000BDF816305340ADF81630BDF81630DBB274
:109BF0001B09DBB29AB2BDF816305340ADF81630EF
:109C0000BDF816301B031AB2BDF9163053401BB213
:109C1000ADF81630BDF816305B011BB203F4FF53EC
:109C20001AB2BDF9163053401BB2ADF81630049B82
:109C300001330493049A029B9A42BED3BDF81630B6
:109C4000184606B07047000000B583B001900C4B79
:109C50001B78002B10D00B4B1B68013B094A13608B
:109C6000084B1B68002B07D10199074800F028FC1E
:109C7000064B1B68034A136000BF03B05DF804FB8A
:109C80002E2B00208C2E00204C2E0020882E002011
:109C9000A0DF704700BF1846A2DF704700BF18461C
:109CA000A5DF704700BF1846A6DF704700BF184603
:109CB000A8DF704700BF184662DF704700BF184634
:109CC00082B001900091019BDAB2009B1A70019B57
:109CD0001A0A009B0133D2B21A70019B1A0C009B26
:109CE0000233D2B21A70019B1A0E009B0333D2B218
:109CF0001A700423184602B0704782B00190019B8D
:109D00001B781AB2019B01331B781B021BB2134351
:109D10001BB29BB2184602B0704700B591B00190DB
:109D200009AB1C22002118460DF02DFA9DF82430B5
:109D300043F004038DF8243000230A9300230C938E
:109D400000230D9300230E9300230F93019B9B7917
:109D50008DF80E3041F23253ADF80C3002AB0322D5
:109D6000002118460DF00FFA9DF808306FF3030339
:109D70008DF808309DF808306FF307138DF8083020
:109D80009DF80930012262F303038DF809309DF834
:109D90000930012262F307138DF809309DF80A306B
:109DA000012262F342038DF80A309DF80A306FF306
:109DB000C3038DF80A309DF80A306FF304138DF851
:109DC0000A309DF80A3043F001038DF80A3004ABE5
:109DD0001422002118460DF0D6F903AB049302AB10
:109DE00005930023ADF818300023ADF81A30142382
:109DF000ADF81C3000230893019B9888019B083321
:109E000004AA09A9FFF748FF0346184611B05DF8F8
:109E100004FB00B591B00190009109AB1C22002118
:109E200018460DF0B0F99DF8243043F002038DF888
:109E3000243000230A9300230C9300230D93002366
:109E40000E9300230F93019B9B798DF80E3041F206
:109E50003453ADF80C3002AB0322002118460DF04C
:109E600092F99DF80830012262F303038DF808305F
:109E70009DF80830012262F307138DF808309DF831
:109E800009306FF303038DF809309DF809306FF343
:109E900007138DF809309DF80A30012262F342035E
:109EA0008DF80A309DF80A306FF3C3038DF80A303D
:109EB0009DF80A306FF304138DF80A309DF80A30CC
:109EC00043F001038DF80A3004AB14220021184638
:109ED0000DF059F903AB049302AB05930223ADF8DF
:109EE00018300023ADF81A300223ADF81C30009B67
:109EF0000893019B9888019B203304AA09A9FFF7C6
:109F0000CBFE0346184611B05DF804FB00B591B0D6
:109F1000019009AB1C22002118460DF034F99DF880
:109F2000243043F008038DF824309DF8243043F0AA
:109F300010038DF8243000230A9300230C93002390
:109F40000D9300230E9300230F93019B9B798DF8B3
:109F50000E3041F23153ADF80C3002AB0322002138
:109F600018460DF010F99DF808306FF303038DF8D3
:109F700008309DF808306FF307138DF808309DF80E
:109F80000930012262F303038DF809309DF809308E
:109F9000012262F307138DF809309DF80A3001227F
:109FA00062F342038DF80A309DF80A306FF3C30361
:109FB0008DF80A309DF80A3043F010038DF80A300E
:109FC0009DF80A3043F001038DF80A3004AB1422E7
:109FD000002118460DF0D7F803AB049302AB0593AC
:109FE0000023ADF818300023ADF81A301723ADF870
:109FF0001C3000230893019B9888019B103304AA0E
:10A0000009A9FFF749FE0346184611B05DF804FBA5
:10A0100000B583B001900091009B9A88019B1A8043
:10A02000019B1B881A4604490020FEF76DFD00BF06
:10A0300003B05DF804FB00BF2077020000B587B0D5
:10A04000019002AB0822002118460DF09CF8022373
:10A05000ADF808300023ADF80A3004AB0393019B40
:10A060001888019B9B8A02AA1946FFF719FE0590E2
:10A07000059B002B09D0019BDB6A002B03D0019BC1
:10A08000DB6A05989847002304E004AB18460CF0FF
:10A0900059FD0346184607B05DF804FB00B58BB0C8
:10A0A0000190009102238DF8143002238DF81430B2
:10A0B0009DF81A3043F001038DF81A30009B1B897C
:10A0C000ADF81C30009B5B89ADF81E30009B0C3353
:10A0D00008930198FFF7B2FF034683F00103DBB258
:10A0E000002B0CD040F2FD13ADF81830019B1B88FB
:10A0F00005AA11461846FFF7DBFD0346C3E000231F
:10A10000ADF81830019B1B8805AA11461846FFF7C9
:10A11000CFFD0990099B002B01D0099BB3E0009B68
:10A120001B7B013B072B00F2A48001A252F823F015
:10A1300051A101008BA10100C5A10100D9A101001D
:10A14000EDA1010001A201005FA2010015A2010022
:10A1500000238DF80830009B5B89012B08D8009BF9
:10A160001B7B06221946019800F006FA03468AE096
:10A1700001238DF81030009B0D330393019B9B6AE4
:10A1800002AA1146019898477CE001238DF8083017
:10A19000009B5B89012B08D8009B1B7B062219467C
:10A1A000019800F0E9F903466DE001238DF81030C5
:10A1B000009B0D330393019B9B6A02AA11460198F1
:10A1C00098475FE002238DF80830019B9B6A02AA42
:10A1D00011460198984755E003238DF80830019BFC
:10A1E0009B6A02AA1146019898474BE004238DF818
:10A1F0000830019B9B6A02AA11460198984741E0EA
:10A2000005238DF80830019B9B6A02AA114601982C
:10A21000984737E0009B5B89022B06D80322082170
:10A22000019800F0A9F903462DE0009B0D33184674
:10A23000FFF763FD0346ADF80C30BDF80C30002B82
:10A2400003D107238DF8083002E006238DF808308B
:10A25000019B9B6A02AA11460198984712E00923C4
:10A260008DF80830019B9B6A02AA11460198984715
:10A2700008E0009B1B7B03221946019800F07CF943
:10A28000034600E0002318460BB05DF804FB00BF56
:10A2900000B585B001900091009B06330393039BAA
:10A2A0001B78022B23D1039B5A88019B1B8A9A425D
:10A2B0001DD1009B9B7B042B19D0009B9B7B062B05
:10A2C00015D0009B9B7B052B11D0039B02331946B5
:10A2D0000198FFF7E3FE0290029B002B07D0019B41
:10A2E000DB6A002B03D0019BDB6A0298984700BF12
:10A2F00005B05DF804FB00B587B001900091009BAC
:10A30000DA88019B1B899A4210D108238DF80C3002
:10A31000009B1B8ADBB28DF81430009B1233049330
:10A32000019B9B6A03AA11460198984700BF07B09A
:10A330005DF804FB00B583B001900091019B1B8880
:10A340001A4606490020FEF7DFFB019B4FF6FF721D
:10A350001A8000BF03B05DF804FB00BF2C77020039
:10A3600010B588B001900091019B002B06D0009B96
:10A37000002B03D0009B5B68002B01D10E235DE016
:10A38000019B4FF6FF721A80019B1B881A462D49CC
:10A390000020FEF7B9FB2C4B02AC0FCB84E80F007A
:10A3A00041F23053ADF8183006AB9A1C02AB11469F
:10A3B0001846FFF781FC0790079B002B01D0079BF5
:10A3C0003CE0019B1A1D06AB19460120FFF760FC1B
:10A3D0000790079B002B01D0079B2FE09DF81A20C8
:10A3E000019B9A710198FFF798FC0790079B002B3F
:10A3F00001D0079B22E00198FFF788FD0790079B9B
:10A40000002B01D0079B19E000990198FFF701FD8F
:10A410000790079B002B01D0079B0FE0009B5A6819
:10A42000019B9A62009B9B68002B03D0009B9A685B
:10A43000019BDA62054B01221A700023184608B00E
:10A4400010BD00BF3C7702004C770200A42E002014
:10A4500000B583B001900091019B002B29D0009B97
:10A46000002B26D0019B9B6A002B25D0009B1B88CC
:10A47000512B19D0512B1EDC502B0BD0502B1ADC3A
:10A48000102B02D0112B0AD015E000990198FFF78C
:10A49000BFFD11E000990198FFF72DFF0CE0009936
:10A4A0000198FFF747FF07E000990198FFF7F0FEDA
:10A4B00002E000BF00E000BF03B05DF804FB000055
:10A4C00000B589B001900091019B002B01D10E23B2
:10A4D00049E0019B1B884FF6FF72934206D0244B44
:10A4E0001B7883F00103DBB2002B01D008233AE094
:10A4F0000023ADF80E30BDF80E305A1C92B2ADF804
:10A500000E201A461B4B11219954BDF80E301A46E5
:10A51000184B134419460098FFF7D2FB03469AB232
:10A52000BDF80E3013449BB2ADF80E3004AB1022D0
:10A53000002118460CF027FE019B1B8AADF8103055
:10A5400001238DF812300023ADF814300DF10E0305
:10A550000693084B0793019B1B8804AA11461846D3
:10A56000FFF7A2FB0346184609B05DF804FB00BFE5
:10A57000A42E0020A82E002000B589B001900B4623
:10A580008DF8033013468DF80230019B002B01D16A
:10A590000E234EE0019B1B884FF6FF72934206D0BC
:10A5A000264B1B7883F00103DBB2002B01D008237C
:10A5B0003FE00023ADF80E30BDF80E305A1C92B2C9
:10A5C000ADF80E201A461E4B10219954BDF80E30DE
:10A5D0005A1C92B2ADF80E201946194A9DF8033064
:10A5E0005354BDF80E305A1C92B2ADF80E201946E5
:10A5F000134A9DF80230535404AB10220021184630
:10A600000CF0C1FD019B1B8AADF8103001238DF8C1
:10A6100012300023ADF814300DF10E030693084BF1
:10A620000793019B1B8804AA11461846FFF73CFBC1
:10A630000346184609B05DF804FB00BFA42E0020B5
:10A64000A82E002084B00390029111461A460B46B2
:10A65000ADF8063013468DF80530039B9DF80520B4
:10A660001A70039B00225A70039B00229A70039B6E
:10A67000029A5A60BDF806209DF80530013392FB1E
:10A68000F3F3DAB2039BDA7000BF04B0704700B591
:10A6900087B00390029113468DF8073001238DF89F
:10A6A0001730039B1B789DF807209A4206D9039B1D
:10A6B0001B788DF8073000238DF81730039B5B78EB
:10A6C0000133039AD27893FBF2F102FB01F29B1A59
:10A6D000039A9278934202D100238DF81730039B9E
:10A6E0005B68039A52781146039A1278013202FB92
:10A6F00001F213440493049B01339DF8072002994F
:10A7000018460CF017FD049B9DF807201A70039B58
:10A710005B780133DAB2039B5A70039B5B78039A30
:10A72000D278B3FBF2F102FB01F29B1ADAB2039B7F
:10A730005A709DF81730184607B05DF804FB00B555
:10A7400087B0039002910192039B5A78039B9B78F8
:10A750009A4201D1002318E0039B5B68039A927828
:10A760001146039A1278013202FB01F21344059359
:10A77000059B1A78019B1A70059B591C019B1B783D
:10A780001A4602980CF0D6FC0123184607B05DF873
:10A7900004FB84B001900B468DF803309DF8033024
:10A7A000002B2BD09DF80330ADF80C300023ADF812
:10A7B0000E301CE0019B5A78019B9B789A421FD077
:10A7C000019B9B780133DAB2019B9A70019B9B78C5
:10A7D000019AD278B3FBF2F102FB01F29B1ADAB2D2
:10A7E000019B9A70BDF80E300133ADF80E30BDF804
:10A7F0000E20BDF80C309A42DCD302E000BF00E02E
:10A8000000BF04B070473EDF704708B50BF01CFC7A
:10A8100008B10BF0C9FE09F067FB09F0C7FC00F0B6
:10A820002DF847F2305000F0A3FA09F047FD01F08F
:10A830003DFB00F0C3F9BDE8084004F093BF08B544
:10A84000FFF7E1FF18B1BDE808400BF0ADBE08BD51
:10A85000014B01221A707047AF2E002008B5064840
:10A8600000224FF400410BF031FC18B1BDE8084064
:10A870000BF09ABE08BD00BFB02E002008B5064AF6
:10A88000064801210BF010FC08B10BF08DFEBDE86D
:10A890000840FFF7E3BF00BF51A801005C7702004A
:10A8A00008B5114B1A78EAB100221A7009F0C2FEFD
:10A8B00009F09EFC09F0B4FD00F0E6FA09F0DEFEB6
:10A8C00000F0BCFC58B100F05DFD01F091FA0120F0
:10A8D00000F012F8BDE80840012000F04BB801F08C
:10A8E0004DFBF2E708BD00BFAF2E0020014B012257
:10A8F0001A707047D22E002038B5054604F07AFF52
:10A9000009F04EFC90B10B4A0B4C137813B10023A5
:10A910001370238023889D42AAB208D3002323808A
:10A9200004F0F0FE054BB3F86030238038BD9B1A6D
:10A93000FBE700BFD22E0020D02E0020D42E002016
:10A94000094BB3F86620022A0BBF012202220749F5
:10A95000074908BFA3F866204FF0000018BFA3F80E
:10A960006620FEF7D1B800BFD42E00206077020029
:10A970008377020010B5044609F012FC28B1094A99
:10A980001378042B02D82344137010BD00231370D6
:10A99000FFF7D6FF044BBDE8104093F8660004F0C3
:10A9A00085BE00BFD32E0020D42E00201F4B204A8E
:10A9B0001B6800BF00BF00BF00BF00BF00BF00BFDB
:10A9C00000BF93422FD000BF00BF00BF00BF00BF39
:10A9D00000BF00BF00BF00BF00BF00BF00BF00BF7F
:10A9E00000BF00BF00BF00BF00BF00BF00BF00BF6F
:10A9F00000BF00BF00BF00BF00BF00BF00BF00BF5F
:10AA000000BF00BF00BF00BF00BF00BF00BF00BF4E
:10AA100000BF00BF00BF00BF00BF00BF00BF00BF3E
:10AA200000BF00BF00BF0138C3D17047842B002096
:10AA30000024F40038B5294C294D68220021204615
:10AA40000CF0A1FB0622FF2104F110000CF09BFB8F
:10AA5000BF2323700023237128464FF4FA736380C9
:10AA60000CF0E6FB29460246601D0CF063FB28460D
:10AA70000CF0DEFB1B4DE37B03442846E3730CF034
:10AA8000D7FB2946184D024604F116000CF052FB84
:10AA900028460CF0CDFB2946024604F134000CF0A8
:10AAA00049FB28460CF0C4FB2946024604F1480045
:10AAB0000CF040FB4EF207532022A4F85C3040F625
:10AAC0000A23A4F85E30A4F8622001230522A4F82A
:10AAD0006030A4F86420A4F8663038BDD42E00207D
:10AAE000A5770200AE770200C377020013B50C4BC6
:10AAF00001930C4B1A7804467AB100222D201A706B
:10AB000009F0D2FA012201A94FF4343009F0B0FA69
:10AB100005481B22214609F0ABFA02B010BD00BF68
:10AB2000E7AAAAAA1C30002004D0020070B5174C76
:10AB3000174E70220021054620460CF024FB2246C9
:10AB4000144B42F8033B6820002116F8013B02F841
:10AB5000013F5940431E98B20028F6D17023682265
:10AB600084F86C100C49FDF7CFFF2C2009F09CFAFB
:10AB700006491C224FF4303009F07AFA022D04D134
:10AB8000BDE870400148FFF7B1BF70BD3C2F002009
:10AB9000D42E0020E7E70068D1770200014B0122A4
:10ABA0001A7070471D300020024A01231370024AB8
:10ABB000137070471C3000201D30002070B5224CEF
:10ABC00070224FF43031204609F064FA2378E72BE5
:10ABD00012D16378E72B0FD1702368221B49002024
:10ABE000FDF792FFA378E27842EA0322672A09D8A8
:10ABF00017490020FDF788FFFFF71CFFBDE87040F4
:10AC0000FFF7D2BFA31803341E790023204619464C
:10AC100010F8015F69401D4601339BB29A42F7D19B
:10AC20008E4203D00B490020FDF76EFF0A49002336
:10AC300014F8012F01F8012B1A46954203F1010384
:10AC40009BB2F5D170BD00BFAC2F0020DC770200B5
:10AC5000F877020013780200D42E002008B54FF4D4
:10AC600034331A680D4B9A420D4A0BD10D4B0E49E5
:10AC700013F8010B02F8010B8B42F9D1BDE8084033
:10AC8000FFF792BF68230021013B9BB202F8011B32
:10AC9000002BF9D1FFF7CEFEF0E700BFE7AAAAAA82
:10ACA000D42E002008D0020070D0020038B51F4C0E
:10ACB0002378F3B1012B10D11D4D2B78012B0CD132
:10ACC0001C48FFF773FE1C490020FDF71DFF022002
:10ACD000FFF72CFF002323702B702578012D09D15D
:10ACE00016490020FDF710FF2846FFF71FFF00233D
:10ACF000237038BD022DFCD10E48FFF757FEFFF739
:10AD0000ADFF0F490020FDF7FFFE0E48FFF74EFE96
:10AD1000BFF34F8F0C490D4BCA6802F4E062134336
:10AD2000CB60BFF34F8F00BFFDE700BF1D30002099
:10AD30001C300020A0860100337802004778020012
:10AD40005C78020020A1070000ED00E00400FA0595
:10AD5000054B0122C3F80825044AC3F80026002247
:10AD6000C3F80825704700BF000001403546526E09
:10AD7000104B0022C0034FF47A71B0FBF1F00138A0
:10AD80001A60C3F80405C3F80C25D3F80C2542F06B
:10AD90000102C3F80C25D3F80C2542F00802C3F8D1
:10ADA0000C2501221A60D3F80024002AFBD0FFF7FB
:10ADB000CFBF00BF000001407047000030B50E4D0E
:10ADC0000FCD8BB004AC0FC495E803000B4B0C4ABD
:10ADD00000934FF4807384E80300CDE902230193CC
:10ADE000084A0723694604A80BF02EFB08B10BF0B4
:10ADF000DBFB0BB030BD00BF9C7802001E30002092
:10AE00001F310020B9AD010070B504464618B442A8
:10AE100000D170BD43F6816520780BF073FB18B14B
:10AE2000013DADB2002DF7D10134F0E710B5134B61
:10AE30001A789042044620D0187058B1002108209A
:10AE400009F020F80E490020FDF75EFEBDE8104035
:10AE5000FFF7B4BF0BF06AFB0A492046FDF754FE2A
:10AE60004FF0A0430C22C3F82027BDE81040C3F8E0
:10AE700024270121082009F005B810BD302B00203F
:10AE80007478020087780200064A13780133DBB237
:10AE90001D2B137004D9044B01211970002313706A
:10AEA000704700BF1E3100201F32002038B5104C03
:10AEB0002578012D02D0022D0FD038BD08F0D6FF25
:10AEC0000028FAD02846FFF7B1FF0A4B00221A707B
:10AED00008F0D2FF02232370EFE7064B1A78002A0E
:10AEE000EBD000201870FFF7A1FF0123F3E700BFAC
:10AEF0002F2B00201F320020204B21491A684CF2D2
:10AF0000503300BF00BF00BF00BF00BF00BF00BF85
:10AF100000BF8A422FD000BF00BF00BF00BF00BFEC
:10AF200000BF00BF00BF00BF00BF00BF00BF00BF29
:10AF300000BF00BF00BF00BF00BF00BF00BF00BF19
:10AF400000BF00BF00BF00BF00BF00BF00BF00BF09
:10AF500000BF00BF00BF00BF00BF00BF00BF00BFF9
:10AF600000BF00BF00BF00BF00BF00BF00BF00BFE9
:10AF700000BF00BF00BF013BC3D17047842B00203E
:10AF80000024F40030B58FB040F2ED23ADF804306A
:10AF90008DF80600F2B901238DF8073081B94AF621
:10AFA000AA23ADF8083006210EAB0B440131EE2286
:10AFB000C9B201A803F8342CFFF726FF0FB030BD4B
:10AFC000012902D145F25553EBE7022919D146F286
:10AFD0006663E6E700208DF807200346C5B22C1D06
:10AFE00095420EAD55FA84F404D3511DC9B204F84C
:10AFF000343CD9E70D5C04F8345C2B44DBB20130FF
:10B00000ECE70421D0E7000010B590B00F2804460B
:10B010008DF8072043D005D8012813D0072832D057
:10B0200010B010BD10284AD03428F9D100221146A2
:10B03000FFF7A8FFFFF760FF0020FFF7F7FE09F01A
:10B04000DBF9EDE79DF8072082B903AA2148062322
:10B050001146013B10F8014902F8014B13F0FF03C0
:10B06000F7D106220120FFF78DFFD9E7062A23D169
:10B07000084609F0B1FA002211462046FFF782FF88
:10B08000FFF792FDCCE79DF8072012B91249042280
:10B09000E9E7042A10D110480CF04CF8EBE79DF8D2
:10B0A00007304BB90DF1070103A809F0FFFA9DF82D
:10B0B000072003A92046D6E700220121D3E700227A
:10B0C0001146FFF75FFFFFF717FF0020FFF7AEFE07
:10B0D000D6E700BFE92E0020302F0020F7B5504DF5
:10B0E000504C0DF107000BF0FDF908B103B0F0BDB5
:10B0F0009DF807202946FDF707FD2378052BF0D89A
:10B10000DFE803F0030E1B2641559DF80720ED2ACA
:10B11000E7D1454901230B7044490A702370E0E7E9
:10B120009DF80720012A2CD13F49022323700B7878
:10B13000581C08703D49CA54D3E73B4A0323237087
:10B140001378591C1170394A9DF80710D154C8E77B
:10B15000354B1A78511C19709DF8073033498B54C0
:10B16000334A1BB9012313700423D7E70233DBB240
:10B170001370304A00211170642B4FF005022270C9
:10B18000AFD90023CAE72A4A9DF807301178012970
:10B1900004D100211170002BF3D1A2E7EE2BF0D1E6
:10B1A000224B002298781146FFF72EFFE9E71E494F
:10B1B000DFF87CC00B781D485A1CD2B20A709DF88B
:10B1C0000710C1549CF80030022B84BFDFF864E004
:10B1D0009EF8007003F1FF3388BF7F18DBB288BF91
:10B1E0008EF800708CF80030002B7FF47AAF0244A8
:10B1F000237012F8023C0F4AEE29127807D19A42C6
:10B2000008D1C2780C498078FFF7FEFE69E79A42C0
:10B210003FF467AF807800220221FFF7B3FE60E7BA
:10B22000B47802008A3200208932002020320020C7
:10B23000883200208732002024320020014B187809
:10B24000704700BF8B32002073B5FF238DF80730A5
:10B250004FF0A04303244FF00052C3F874471E215F
:10B26000C3F808251F20072200F0C0FA414B4249CD
:10B270001A6844F6206300BF00BF00BF00BF00BFD4
:10B2800000BF00BF00BF8A422FD000BF00BF00BF79
:10B2900000BF00BF00BF00BF00BF00BF00BF00BFB6
:10B2A00000BF00BF00BF00BF00BF00BF00BF00BFA6
:10B2B00000BF00BF00BF00BF00BF00BF00BF00BF96
:10B2C00000BF00BF00BF00BF00BF00BF00BF00BF86
:10B2D00000BF00BF00BF00BF00BF00BF00BF00BF76
:10B2E00000BF00BF00BF00BF00BF013BC3D1234D63
:10B2F0000DF107010F2000F073F89DF80760332E61
:10B300000BD11F49012400202C70FDF7FDFB2D7887
:10B3100055B90025284602B070BD013C002314F049
:10B32000FF042B70E4D1F4E7402000F024FA20461B
:10B3300000F031FA2A21302000F06EF8142132207A
:10B3400000F06AF82146304600F066F8002000F070
:10B3500036FA204600F076F8072000F0BFF8022009
:10B3600000F0DEF8002000F0F1F8022000F004F90F
:10B37000D0E700BF842B00200024F4008B32002093
:10B38000B87802001FB5134B1B7833B1124A1378FB
:10B390000133DBB2012B02D8137004B010BD0024BE
:10B3A00002A8147000F0AEF9BDF90C10BDF9082028
:10B3B000BDF90A30091112111B11ADF80C100091E2
:10B3C00020460649ADF80820ADF80A30FDF79CFB91
:10B3D000E3E700BF8B3200208C320020D1780200DE
:10B3E0007FB54FF0A0454FF0005660F07F008DF81C
:10B3F00000000C466846C5F80C65022100F01AFAF8
:10B4000002A8022100F0F0FAC5F808659DF809309D
:10B410002370012004B070BD37B54FF0A0444FF049
:10B42000005500F07F008DF800008DF8011068468F
:10B43000C4F80C55022100F0FDF90120C4F80855AC
:10B4400003B030BD13B504460DF106012020FFF70F
:10B45000C7FF18B90024204602B010BD0DF1070146
:10B460002320FFF7BDFF0028F4D0012C9DF8063003
:10B4700028D0022C06D0002CECD123F0080343F096
:10B48000080321E023F008038DF806309DF807300B
:10B4900023F0080343F008039DF806108DF80730E9
:10B4A0002020FFF7B9FF0028D4D09DF807102320F3
:10B4B000FFF7B2FF04460028CCD007490020FDF773
:10B4C00023FBC8E723F008038DF806309DF807300A
:10B4D00023F00803E0E700BFF078020013B504464C
:10B4E0000DF107012020FFF77BFF10B9002002B00B
:10B4F00010BD9DF8071004F0070421F00701214357
:10B5000020208DF80710FFF787FF0028EED00349B1
:10B510000020FDF7F9FA0120E9E700BF01790200F8
:10B5200013B504460DF107012020FFF759FF58B16C
:10B530009DF8071001F00F0141EA0411C9B2202063
:10B540008DF80710FFF768FF02B010BD13B5044671
:10B550000DF107012320FFF743FF58B19DF80710B5
:10B5600021F0300141EA0411C9B223208DF80710FF
:10B57000FFF752FF02B010BD042807B528D10DF126
:10B5800007012E20FFF72CFF18B9002003B05DF84B
:10B5900004FB9DF807102E2001F01F018DF8071005
:10B5A000FFF73AFF0028F0D00DF107012420FFF744
:10B5B00017FF0028E9D09DF8071001F0BF018DF8B2
:10B5C00007102420FFF728FF0028DED00120DDE748
:10B5D00040B3012849D10DF107012420FFF700FFF6
:10B5E0000028D2D09DF8071021F0400141F0400121
:10B5F00024208DF80710FFF70FFF0028C5D00DF1AC
:10B6000007012E20FFF7ECFE0028BED09DF80710A2
:10B6100001F01F0141F040012E208DF80710FFF7C7
:10B62000FBFEB3E70DF107012420FFF7D9FE002848
:10B63000ABD09DF8071021F0400141F040012420DB
:10B640008DF80710FFF7E8FE00289ED00DF10701E6
:10B650002E20FFF7C5FE002897D09DF8071001F0B7
:10B660001F018DF807102E20ACE7022823D10DF121
:10B6700007012420FFF7B4FE002886D09DF80710AC
:10B6800021F0400141F0400124208DF80710FFF720
:10B69000C3FE00283FF479AF0DF107012E20FFF71C
:10B6A0009FFE00283FF471AF9DF8071001F01F01C5
:10B6B00041F08001B0E7032888D10DF10701242073
:10B6C000FFF78EFE00283FF460AF9DF8071021F0D1
:10B6D000400141F0400124208DF80710FFF79CFE47
:10B6E00000283FF452AF0DF107012E20FFF778FE3E
:10B6F00000283FF44AAF9DF8071001F01F0141F008
:10B70000C00189E713B504460DF107012820FFF7B2
:10B7100067FE10B9002002B010BD0DF1060129200E
:10B72000FFF75EFE0028F5D0BDF8063023800DF14E
:10B7300007012A20FFF754FE0028EBD00DF1060187
:10B740002B20FFF74DFE0028E4D0BDF806306380C3
:10B750000DF107012C20FFF743FE0028DAD00DF190
:10B7600006012D20FFF73CFE0028D3D0BDF806309F
:10B77000A3800120CFE713B504460DF10701222075
:10B78000FFF72EFE28B1214622208DF80740FFF753
:10B7900043FE02B010BD13B504460DF10701212090
:10B7A000FFF71EFE48B19DF8071021F0010121436B
:10B7B00021208DF80710FFF72FFE02B010BD13B542
:10B7C00004460DF107012420FFF70AFE58B19DF849
:10B7D000071021F0080141EAC401C9B224208DF804
:10B7E0000710FFF719FE02B010BD00000E4B30B578
:10B7F0001A700E4B19700E4B02F5E075187001F5BA
:10B80000E0714FF0A043032400F5E07043F82540B9
:10B8100043F82140002143F82010012101FA02F2EF
:10B82000C3F80C2530BD00BF8D3200208E320020C1
:10B830008F32002070B5354B1A78354B1B780124B8
:10B8400004FA02F29C404FF0A04301441D46884296
:10B8500002D1C3F80C2570BD10F8016BC3F80C259C
:10B8600016F0800F14BFC3F80845C3F80C4516F056
:10B87000400FC3F80825C3F80C2514BFC3F80845CA
:10B88000C3F80C4516F0200FC5F80825C5F80C259F
:10B8900014BFC5F80845C5F80C4516F0100FC3F8DD
:10B8A0000825C3F80C2514BFC3F80845C3F80C4598
:10B8B00016F0080FC5F80825C5F80C2514BFC5F803
:10B8C0000845C5F80C4516F0040FC3F80825C3F861
:10B8D0000C2514BFC3F80845C3F80C4516F0020F39
:10B8E000C5F80825C5F80C2514BFC5F80845C5F8E6
:10B8F0000C45F607C3F80825C3F80C254CBFC3F860
:10B900000845C3F80C45C5F80825A0E78D3200208E
:10B910008E32002010B5324B324C1B784FF0A041D4
:10B92000012202FA03F3C1F808352478D1F8100592
:10B93000C1F80C35C1F80835D1F81015A2401042F5
:10B9400014BF802000200A424FF0A04118BF40F0F1
:10B950004000C1F80C35C1F80835D1F81045C1F8E0
:10B960000C35C1F80835D1F81015224218BF40F047
:10B9700020000A424FF0A04118BF40F01000C1F86B
:10B980000C35C1F80835D1F81045C1F80C35C1F8AF
:10B990000835D1F81015224218BF40F008000A42BD
:10B9A0004FF0A04118BF40F00400C1F80C35C1F8B9
:10B9B0000835D1F81045C1F80C35C1F80835D1F873
:10B9C0001015224218BF40F002000A424FF0A04278
:10B9D00018BF40F00100C2F80C35C2F80C3510BD9C
:10B9E0008D3200208F32002038B504464518AC4215
:10B9F00000D138BDFFF78EFF04F8010BF7E7000018
:10BA000037B5104C14230193237801204FF0A04543
:10BA100000FA03F3C5F8083508F0E6FCD5F8103550
:10BA20002278D340DB0701D5012008E04FF4FA600B
:10BA300008F0DAFC0198431E01930028EED103B010
:10BA400030BD00BF903200202DE9F74F2C4DDFF8BC
:10BA5000B4802B7801274FF0A04607FA03F3CDE915
:10BA600000014FF0080BC6F81C354FF000094FF0ED
:10BA7000800AFFF7C5FF0446B0B12878D6F8102534
:10BA8000C240D30798F8002007FA02F2C6F80C2546
:10BA90004FF0010048BF49EA0A0908F0A5FCBBF1D4
:10BAA000010B4FEA5A0AE4D12878009901234FF09C
:10BAB000A04203FA00F0C2F8180581F80090297836
:10BAC00001988B40C8B1C2F80C35012008F08CFCFD
:10BAD000FFF796FF98F8003000284FF0A0424FF093
:10BAE000010000FA03F3C2F80C3508BF002408F087
:10BAF0007BFC204603B0BDE8F08FC2F80835E4E7D0
:10BB000091320020903200202DE9F84F2D4E2E4C1E
:10BB1000337801254FF0A04205FA03F38346C2F8BB
:10BB200018354FF008094FF0800A274623784FF068
:10BB3000A04805FA03F3C8F80C35012008F054FCBE
:10BB400033781BEA0A0F05FA03F314BFC8F8083567
:10BB5000C8F80C35FFF754FF804620B1B9F1010950
:10BB60004FEA5A0AE2D13B7801254FF0A04905FA85
:10BB700003F3C9F80C35284608F036FC337805FA8B
:10BB800003F3C9F81C35284608F02EFCFFF738FFF0
:10BB90003378D9F81045DC403B7805FA03F308EA1E
:10BBA0000008C9F80C35284608F01EFCE443337839
:10BBB0002C4004EA08049D40C9F818552046BDE809
:10BBC000F88F00BF91320020903200202DE9F04123
:10BBD0002C4E2D4D30704FF0A044034600F5E07020
:10BBE00040F20C62297044F8202001F5E07044F81E
:10BBF0002020012000FA03F300FA01F1C4F808152F
:10BC0000C4F81815C4F80835C4F81835C4F8083550
:10BC1000C4F8081508F0E8FBD4F810353278D340A2
:10BC2000D80708D5D4F810352A78D340D90702D5DB
:10BC30000120BDE8F0814FF0A0442A78D4F81035F7
:10BC4000D340DA071AD40020F3E72B7808FA03F37D
:10BC5000C4F80C35012008F0C7FB2B7808FA03F371
:10BC6000C4F80835012008F0BFFBD4F8103532784D
:10BC7000D340DB07DCD4013FE7D1E4E713274FF0E3
:10BC80000108F8E791320020903200202DE9F84FAA
:10BC9000374F98463B784FF001094FF0A04B09FA17
:10BCA00003F3CBF80835824648460E46154608F0A1
:10BCB0009BFBFFF7A5FE044680B13B7809FA03F32E
:10BCC000CBF80C35484608F08FFB2A4B1B7809FA55
:10BCD00003F3CBF80C35484608F086FB5046FFF7D7
:10BCE00013FF1AF0010F04EA0004E4B209D135444D
:10BCF000AE4235D064B116F8010BFFF705FF0446DC
:10BD0000F6E7013DADB24FF6FF794D4528D0DCB9DD
:10BD100000243B7801264FF0A04806FA03F3C8F848
:10BD20000C35304608F060FBFFF76AFE054638B177
:10BD30003B7806FA03F3C8F80835304608F054FBA0
:10BD400005EA0400C4B210E045B929463046FFF7C1
:10BD50007BFE013D04460136ADB2D6E70121F5E791
:10BD6000B8F1000FD5D1002CD2D02046BDE8F88F15
:10BD7000913200209032002007B501238DF8040095
:10BD80008DF80510022201A98820FFF77FFF03B07C
:10BD90005DF804FB37B515461C468DF804008DF898
:10BDA0000510002301A902228820FFF76FFF01235D
:10BDB0002A4621468920FFF769FF03B030BD0346BC
:10BDC0000144FF208B4200D1704713F8012B5040F3
:10BDD000082210F0800F02F1FF324FEA400018BF36
:10BDE00080F0310012F0FF02C0B2F2D1EAE70000A9
:10BDF00070B5264B1B7833B1254A13780133DBB27B
:10BE0000042B01D8137070BD224C00251570102230
:10BE1000114623462C20FFF7BDFF02212046FFF7E5
:10BE2000CEFFA678864206D10221E01CFFF7C7FFAD
:10BE30006679864205D0BDE8704017490020FCF7BE
:10BE400063BE228852BA93B244F25C425A434FF620
:10BE5000FF73B2FBF3F2A2F58C520A23143A92FB61
:10BE6000F3F20E4B1A60B4F803305BBA99B242F2A7
:10BE700010734B430A49B3FBF1F30A4928460B60A0
:10BE8000BDE870400849FCF73FBE00BF312B0020E1
:10BE9000A43200209832002012790200A032002043
:10BEA000F6FF0900943200203179020030B5234BAF
:10BEB000234D18689B8885B00322ADF80430214BD0
:10BEC000009018689B88ADF80C304FF0A0430290AA
:10BED000FF21C3F8FC2A0022C3F808250846FFF713
:10BEE00075FE0A2008F081FAA2213020FFF744FFF6
:10BEF00093213020FFF740FF0A24FFF779FF062245
:10BF0000694628460BF0CBF870B1062202A92846F4
:10BF10000BF0C5F840B10C4B0C49012200201A70FF
:10BF2000FCF7F2FD05B030BD3220013C08F05DFAAF
:10BF300014F0FF04E1D1044B1C70F3E767790200B1
:10BF40009832002060790200312B002045790200F0
:10BF500008B54FF0A0430322C3F874274FF00052F6
:10BF6000C3F808251E2107221F20FFF73FFC3220BF
:10BF700008F03BFABDE8084000F05BB908B500F0F6
:10BF8000ABF830B1084A13780133DBB2012B01D88A
:10BF9000137008BD0023137000F07EF9BDE808405F
:10BFA000024900F08DB900BFE2320020A632002025
:10BFB0001F4B204A1B6800BF00BF00BF00BF00BF6F
:10BFC00000BF00BF00BF93422FD000BF00BF00BF23
:10BFD00000BF00BF00BF00BF00BF00BF00BF00BF69
:10BFE00000BF00BF00BF00BF00BF00BF00BF00BF59
:10BFF00000BF00BF00BF00BF00BF00BF00BF00BF49
:10C0000000BF00BF00BF00BF00BF00BF00BF00BF38
:10C0100000BF00BF00BF00BF00BF00BF00BF00BF28
:10C0200000BF00BF00BF00BF00BF0138C3D17047D1
:10C03000842B00200024F40030B54FF0A044B3B0AE
:10C040004FF0005500F07F008DF801108DF80000D2
:10C050000221C4F80C556846FFF7ECFBC4F80855FC
:10C0600033B030BD70B54FF0A045E4B04FF000568E
:10C0700060F07F008DF800000C466846C5F80C653E
:10C080000121FFF7D7FB012132A8FFF7ADFCC5F86E
:10C0900008659DF8C830237064B070BDF0B54FF0EE
:10C0A000A046E5B0BF234FF000578DF800300C4696
:10C0B0000546C6F80C7568460121FFF7BBFB214613
:10C0C00032A8FFF791FCC6F80875224632A9284627
:10C0D0000BF030F865B0F0BD014B1878704700BF29
:10C0E000E432002013B5124B00241A889B78ADF877
:10C0F00004200DF1030120468DF806308DF8034031
:10C10000FFF7B0FF9DF804209DF803309A42094ADA
:10C1100007D09DF80510994203D09DF8061099426A
:10C1200003D10120107002B010BD14702046FAE750
:10C130006D790200E432002013B50446FFF77CFF5E
:10C140000DF107012046FFF78DFF42F21070FFF757
:10C150002FFF02B010BD37B505460C4611200DF17A
:10C160000701FFF77FFF002D14BF2146802111201A
:10C17000FFF7E2FF03B030BD08B51420B621FFF78A
:10C180005BFFBDE808404CF25030FFF711BF07B528
:10C1900000230DF1070170208DF80730FFF762FFD3
:10C1A0009DF80730E12B03D15A213320FFF744FFDC
:10C1B00004213420FFF7C0FF03B05DF804FB014603
:10C1C0000F20FFF7B9BF01461020FFF7B5BF07B535
:10C1D00001462820FFF730FF0DF107012820FFF767
:10C1E00041FF03B05DF804FB70B504469DF8106094
:10C1F0009DF814500AB141F002010BB141F0040165
:10C200001620FFF799FF002C14BF042100211920EC
:10C21000FFF792FF46EA05012020FFF78DFFBDE8FA
:10C22000704004212A20FFF787BF01463E20FFF718
:10C2300083BF13B5FFF756FF58B3FFF79DFFFFF716
:10C24000A6FF0320FFF7BBFFC0215E20FFF774FFAE
:10C250000D20FFF7B8FF08211220FFF76DFF7A21AC
:10C260000120FFF778FF00240123194618461A46DB
:10C27000CDE90044FFF7B8FFC020FFF7D6FF7A21D1
:10C280000120FFF768FF1420FFF7A1FF204602B04E
:10C2900010BD4FF0FF30FAE710B5074C0C202146D7
:10C2A000FFF7E0FE2078054B00F07F00202820708B
:10C2B00028BF2020187010BDE6320020E332002095
:10C2C0002DE9F04100EB4002520082B0D31D6E46D2
:10C2D000DB08A6EBC30302AF9D460546884602ACC9
:10C2E00018B9B546BD46BDE8F081002120460AF0E8
:10C2F0004AFF05EB4501490001F0FE012046FFF72A
:10C30000CDFE41464FF0000C63782278E07894F837
:10C3100005E042EA0322A37843EA002320790CF1E6
:10C32000010C40EA0E2012B21BB200B265450A8031
:10C330004B80888004F1060401F10601E4DC044925
:10C34000013D0D70009003490020FCF7DDFBC8E7BC
:10C35000E5320020717902001F4B204A1B6800BFA4
:10C3600000BF00BF00BF00BF00BF00BF00BF9342BF
:10C370002FD000BF00BF00BF00BF00BF00BF00BF85
:10C3800000BF00BF00BF00BF00BF00BF00BF00BFB5
:10C3900000BF00BF00BF00BF00BF00BF00BF00BFA5
:10C3A00000BF00BF00BF00BF00BF00BF00BF00BF95
:10C3B00000BF00BF00BF00BF00BF00BF00BF00BF85
:10C3C00000BF00BF00BF00BF00BF00BF00BF00BF75
:10C3D00000BF0138C3D17047842B00200024F40033
:10C3E0004FF0A0430322C3F834274FF400514FF419
:10C3F0008042C3F80815C3F80825C3F80C15C3F824
:10C400000C2570474FF0A04138B503234FF4804509
:10C410004FF40054C1F834370220C1F80C55C1F86C
:10C420000C45FFF799FFC1F80855C1F8084538BD1C
:10C430004FF0A0430322C3F83427C3F83827C3F8CA
:10C4400030274FF48052C3F808254FF4FA70FFF7F5
:10C4500083BF08B54FF0A0430C22C3F834274FF434
:10C460000052C3F808254FF48042C3F80825C922BA
:10C47000D3F8100510F4005004D14FF48042C3F8F3
:10C480000C2506E0013A12F0FF02F1D1FFF7BAFFE6
:10C49000012008BD4FF0A04110B503234FF48044A4
:10C4A000C1F80C45C1F834374FF40053C1F80C35CE
:10C4B0000120C1F80845FFF74FFFC1F80C4510BD3A
:10C4C0004FF0A04110B503234FF48044C1F80C4550
:10C4D000C1F834374FF40053C1F808350120C1F8D2
:10C4E0000845FFF739FFC1F80C4510BD4FF0A041DA
:10C4F000F8B54FF480460323C1F834370446C1F839
:10C500000C650825374614F0800F4FF4005314BF14
:10C51000C1F80835C1F80C350120C1F80875FFF7DE
:10C520001BFF013D640015F0FF05E4B2C1F80C6586
:10C53000E9D1F8BD4FF0A0412DE9F0410C234FF4B3
:10C5400080468046C1F83437082500243746C1F8B4
:10C550000C750120FFF700FFC1F80865D1F8103510
:10C5600064009B04E4B248BF01344FF0010005F1C0
:10C57000FF3548BFE4B2FFF7EFFE15F0FF05E6D147
:10C58000B8F1000F04D1FFF79BFF2046BDE8F08112
:10C59000FFF780FFF9E7F8B50C461546FFF720FFD7
:10C5A000FFF7A4FFFFF755FF064620B1FFF72AFF6C
:10C5B00001263046F8BD15F8010BFFF797FFFFF78E
:10C5C00048FF013CA4B24FF6FF77013CA4B2BC4245
:10C5D00002D1FFF717FFECE715F8010BFFF786FF15
:10C5E000FFF737FFF1E738B50C461546FFF7F8FEC1
:10C5F00040F00100FFF77AFFFFF72BFF1CB9FFF7B0
:10C6000001FF204638BD012C0CBF00200120FFF7A0
:10C6100091FF013C2870A4B20135EFE770B51546D3
:10C620001A4A8AB000230446012910889278ADF88E
:10C630001630CDE907330993ADF818008DF81A20AC
:10C6400003D0022914BF022301230AAA134420465F
:10C6500013F8106C09AB019308AB00930DF11602AF
:10C6600007AB314600F09EFD70B9099B0193089B12
:10C670000093BDF81620079B02953146204600F036
:10C68000B7FD08B92023E3700AB070BD83790200BA
:10C690004FF4FA7107F095BA7FB50023CDE9013365
:10C6A0000393194B994204460D4627D801AB02AAC1
:10C6B00003A900F066FC154BB4F89263144A4AF6DD
:10C6C000EB218E4218BF1A4640F2A4639D4218D94E
:10C6D00090B9A5F2A463934213D806222046B3FB77
:10C6E000F2F3DDE90221019300F033FC20B9019B54
:10C6F000236142F2CC43E55004B070BD6FF00300FB
:10C70000D9E76FF00300F7E780969800706408009F
:10C71000400D030038B5044601F094FD04F50253C2
:10C7200004F502521833103218460021FF2522F872
:10C73000021B03F8015B8242D970F8D142F2A003D8
:10C740002046E1540622E178BDE8384000F0E6BF1B
:10C7500038B5054600F09CFE0446284600F0D0FBA4
:10C76000204638BDC17801F0D3B807F010BA0000F8
:10C770002DE9F04F8846044687B004F5A05A5C22A4
:10C78000FF2140460AF0FFFC52460221204601F0FC
:10C7900093FF9AF8123088F805309AF8962188F8B5
:10C7A00058200022C8F800209AF8031088F80410D6
:10C7B000012B04F50259194609F1180938BF012166
:10C7C00000914944CDE9012104F5A15704F5025B2C
:10C7D0000A3745460BF1100B788B019A9AF8101026
:10C7E00098F804600592400297F83420E860F88BCE
:10C7F00040022861F88C40026861388E2883788E68
:10C8000028810D29F88D688114D005D801390229B5
:10C8100004D80522AA760EE01129FAD0002B00F0E8
:10C82000978002F01F02053AD2B2122A40F29A8093
:10C83000FF22EFE7A97605AA48F29101204603936B
:10C8400001F081F8059A019BEB76B5F918E0039B9E
:10C85000002A44D0AA7E072A01D0042A3FD199F8A1
:10C860000020072A07D0042A05D0002A37D199F8DA
:10C870000420012A33D142F2A002A15C94F83F24A3
:10C88000501E814202D07F32914228D1BBF8002055
:10C8900060781FFA8EF18A1A1B2806F0010612B280
:10C8A00000F0C4801E281AD1B4F9860182425CDDF2
:10C8B000B4F988C1944558DD002E56D0B4F99C21B6
:10C8C00011FA82F12983698911FA82F16981298932
:10C8D00011FA82F22A810122EA76019AAA762BF8CD
:10C8E00002EBAA7E09F8012BE97E89F8031052B900
:10C8F000B5F91810002906DA704840688142BABFBD
:10C900000E22AA762A8337F84C2BA8F85A20029ACE
:10C910004A4505F114057FF45FAF42F2A00394F895
:10C920003F24E254009B03F502531C332344C4F11B
:10C930007F4404F57F0404F55F4458340022FF214E
:10C940000098042840F0AF80002007B0BDE8F08FC9
:10C95000FF22AA7641F6FF72EB606B612A832A817F
:10C960006A8168E756498A5C54E74042824208DAA5
:10C97000B4F988014042824203DD16B9B4F99A2124
:10C980009EE7B4F98A01824207DDB4F98CC194456F
:10C9900003DD16B9B4F99E2192E74042824208DADB
:10C9A000B4F98C014042824203DD16B1B4F9A021F2
:10C9B00086E7B4F98E01824207DDB4F990C194454F
:10C9C00003DD16B1B4F9A4217AE74042824208DAC5
:10C9D000B4F990014042824203DD16B9B4F9A221B4
:10C9E0006EE7B4F99201824207DDB4F994C194452F
:10C9F00003DD16B9B4F9A62162E74042824208DAA3
:10CA0000B4F994014042824203DD16B1B4F9A82181
:10CA100056E7B4F9980190427FF761AFB4F99601F7
:10CA20009042BFF65CAFB4F9AA2149E7B4F9AE0170
:10CA3000824207DDB4F9B0C1944503DD16B9B4F9FB
:10CA4000C2213DE74042824208DAB4F9B0014042D7
:10CA5000824203DD16B1B4F9C42131E7B4F9B20161
:10CA6000824207DDB4F9B4C1944503DD16B1B4F9CF
:10CA7000C82125E74042824208DAB4F9B4014042B5
:10CA8000824203DD16B9B4F9C62119E7B4F9B80139
:10CA900090427FF724AFB4F9B6019042BFF61FAFC2
:10CAA000B4F9CA210CE7009824F813200130C0B271
:10CAB00003F8041C009003F8012B41E7342B0020FD
:10CAC0008779020070B5054603292AD8DFE801F00E
:10CAD0000209142102F06DF80646284602F06FF8AC
:10CAE00005E002F060F80646284602F07AF80446AF
:10CAF000284602F070F809E002F055F8064628468C
:10CB000002F06FF80446284602F05FF826B134467A
:10CB100005E002F048F8DFE7002C08BF0446204695
:10CB200070BD6FF00304FAE710B50121044600F070
:10CB3000D9FBF8B94FF47A7202212046FFF76EFD57
:10CB4000C0B9104BB3F862304FF47A7159432046A4
:10CB5000FFF7A2FD70B901460C2204F5E0500AF07F
:10CB600012FB0221204600F0D6FE18B901462046ED
:10CB7000FFF7A8FF2023E37042F2C8430222E254E9
:10CB800010BD00BFD42E002013B50C460DF10702D6
:10CB90004B2106F071F99DF80730142B03D10123C6
:10CBA000238002B010BD0A2BFBD10223F8E713B596
:10CBB0000C460DF106025E2106F078F9BDF806304C
:10CBC000B3F5D77F36D012D8512B31D007D81D2BD3
:10CBD0002AD01E2B2CD000232380012026E0AD2B51
:10CBE00028D0D62B01D0602BF5D121231DE040F2B7
:10CBF000E132934220D00CD840F2D92293421BD08C
:10CC000040F2E122934202D0B3F5E67FE3D1642300
:10CC10000BE040F28F42934203D040F29152934294
:10CC2000D9D14FF4FA7300E00F23238002B010BD76
:10CC30001423FAE73223F8E7C823F6E740228721D6
:10CC400006F0D0B80022872106F0CCB873B50D46A7
:10CC50000DF106010446FFF797FFBDF806300646C2
:10CC600053B1012B4BD1322D2ED007D8142D22D009
:10CC7000212D27D00F2D11D0012619E0C82D2CD041
:10CC8000B5F5FA7F32D0642DF6D140F2E1225E2173
:10CC9000204606F0BDF84FF4627205E01D225E21C9
:10CCA000204606F0B5F827226121204606F0B0F8AC
:10CCB000304602B070BD51225E21204606F0A8F831
:10CCC0006E22F1E7D622F7E74FF4D7725E212046B5
:10CCD00006F09EF84FF4F472E6E740F2E1325E218E
:10CCE000204606F095F840F29642DDE740F2915278
:10CCF0005E21204606F08CF840F2C152D4E7642D44
:10CD000024D00CD8212D18D0322D18D0142DB3D109
:10CD10001E225E21204606F07BF82222C4E7C82DA1
:10CD20001DD0B5F5FA7FA7D140F28F425E21204693
:10CD300006F06EF840F2A442B6E76022BCE7AD22EE
:10CD40005E21204606F064F8C622ADE74FF4E67295
:10CD50005E21204606F05CF84FF4F572A4E740F23D
:10CD6000D9225E21204606F053F84FF43E729BE72D
:10CD700037B50D460DF106010446FFF718FF18B947
:10CD8000012D03D0022D29D0012025E014224B21B2
:10CD9000204606F027F807226021204606F022F8F8
:10CDA00005226321204606F01DF83822692120461D
:10CDB00006F018F840F205727821204606F028F8AF
:10CDC00040F206627A21204606F022F820B9BDF82A
:10CDD00006102046FFF73AFF03B030BD0A224B2170
:10CDE000204605F0FFFF0F226021204605F0FAFFE4
:10CDF0000D226321204605F0F5FFB8226921204667
:10CE000005F0F0FF40F60D727821204606F000F89C
:10CE100040F60E62D6E7000073B50E460DF106022D
:10CE2000DE21054606F042F8BDF80630C3F30903DB
:10CE3000044606FB03F0ADF806300AF08FF808A3AD
:10CE4000D3E9002309F0DAFF0AF074F86C210246F6
:10CE5000284605F0F5FF204602B070BDAFF3008014
:10CE6000333333333333F13F0122862105F0BABF28
:10CE70002DE9F041DFF8408006462D270025B9B2A4
:10CE800018F8012B304605F0ADFF013740EA0504E4
:10CE9000882F65B2F3D109220821304605F0A2FFA0
:10CEA000002204460B21304605F09CFF2C43204312
:10CEB00040B2BDE8F08100BF9A79020013B5FF23AC
:10CEC0000DF107020C460B70892105F0D5FF9DF886
:10CED000073003F01F03172B9EBF024AD35C237059
:10CEE00002B010BDF579020013B50C460DF1060233
:10CEF000962105F0DBFFBDF80630238002B010BD9F
:10CF000038B500228521054605F06CFF044688B936
:10CF1000284602F039FF22464FF48E61284605F07C
:10CF200061FF044630B928460122BDE8384085211A
:10CF300005F058BF204638BD41F26433C35A2BB1C7
:10CF400041615943C0F84413002070476FF00E0050
:10CF5000704737B50446084611461A46B4F8DE3223
:10CF600063B1C4E90201226104F54D7504F21E3477
:10CF70000195009402F080FF03B030BD6FF00E0009
:10CF8000FAE72DE9F0410446B0F8DE02884617467C
:10CF90001E4658B394F83A1302F0F9FE05460146CE
:10CFA00094F8250302F033FFC8F8000094F83433F6
:10CFB00094F8350300EB0320294680B202F050FFBD
:10CFC000386094F8383394F8390300EB032029468D
:10CFD00080B202F045FF3060D8F80030A3603B68B3
:10CFE000E360336823610020BDE8F0816FF00E003C
:10CFF000FAE738B50C46054600F25B3209786078EE
:10D0000003F002FAA078E17805F5577203F008FA08
:10D01000002038BD73B50C46002605460DF106020A
:10D0200090F8C2038DF806600DF107018DF80760D6
:10D0300004F0CEFA9DF8063023709DF80730637037
:10D0400095F8C33330461A0903F00F03E270A3705A
:10D0500002B070BDF0B500F5367189B0044605F038
:10D06000FDFF054600287DD104F14801204606F069
:10D07000A2F80546002875D104F2923739462046B9
:10D0800006F063FC054600286CD104F5EC763146C9
:10D09000384602F0D9FCB4F85230C4F84032B4F843
:10D0A0005430A4F84432B4F85630A4F8463204F1AF
:10D0B000C001204605F0CFFD0546002852D104F1FD
:10D0C0006001204605F0DEFD054600284AD104F146
:10D0D0009C073946204605F0E5FDB4F8A03005462A
:10D0E000C3B9B4F8A230ABB98023A4F8A0304FF490
:10D0F000C073A4F8A23004F19E03CDE90273382373
:10D10000CDE9006394F8C31394F8C203FF23C72248
:10D1100003F01EFA35BB04AA4FF4D671204605F081
:10D12000D0FD0546F0B9BDF81030A4F8A430BDF824
:10D130001430A4F8A630BDF81C30A4F8A830B4F818
:10D140006230002B08BF1423A4F8AA3004F59B52C8
:10D150004FF48073A4F8AC300432DE21204605F091
:10D16000A5FE0546B4F8DE32B3F5805F3CBF4BF652
:10D17000CC43A4F8DE322DB904F1BC012046FFF700
:10D1800049FF0546B4F8C0304BB994F8BC301B01D8
:10D1900084F8C03094F8BD301B0184F8C1302846B3
:10D1A00009B0F0BD30B51E29DDE9035411D02129A5
:10D1B00015D01B2919D1B0F826111180D0F83421CF
:10D1C0001A60D0F854312B60D0F868312360002009
:10D1D00030BDB0F826111180D0F83821F0E7B0F852
:10D1E00026111180D0F83C21EAE76FF00300EFE749
:10D1F0002DE9F04F8DB0CDE9082300F54D7307936D
:10D2000000F1F8030A93169BC360179B0361189BF8
:10D21000417000F1C2028946436103210B9204462A
:10D2200000F5057500F2FE2600F5397700F21E388C
:10D2300000F5537A00F5587B02F0A1FBB9F11E0FFF
:10D24000DDE90A3231D0B9F1210F3BD0B9F11B0F22
:10D2500045D1CDE90332079B0093CDE901AB4346AD
:10D260003A463146284601F08BFF054680B9089BB7
:10D27000A4F8FE3223830999DDE916232046FFF73F
:10D2800068FE054620B918992046FFF755FE054669
:10D2900094F8C30004F5095101303C31C0B202F0EA
:10D2A0003EFC28460DB0BDE8F08FCDE90332079B68
:10D2B0000093CDE901AB43463A463146284601F09A
:10D2C000CBFFD2E7CDE90332079B0093CDE901AB59
:10D2D00043463A463146284602F026F8C5E76FF045
:10D2E0000305D5E77FB504460E46622102F047FBF1
:10D2F00004F5025028300423437442F27C230521B4
:10D3000000228274E15204F50A5304F510513833B7
:10D310000C311A819A72C3E9002244339942F8D140
:10D3200042F2D4310523635280F88F3380F8902382
:10D3300004F5105304F513523C33083200259D6068
:10D34000C3E90055C3E905551C339342F7D14FF4A7
:10D35000F053236040F20113A3800123A3714FF423
:10D360007A724FF4FA63C4E9022343F2C8216423BA
:10D37000C4E904134FF42063238341F2E223032220
:10D3800084F82150E252414BC4F8B830204602F0F4
:10D39000EDFA04F5E0504FF490620021103009F0EE
:10D3A000F2FE41F60C43E552002E4AD104F5FC7022
:10D3B00001F01EFC0546002849D104F5027001F079
:10D3C00027FC0546002842D104F5237104F14800EA
:10D3D00001F02AFC0546002839D104F51C7001F043
:10D3E0004DFC054698BB04F52C7001F061FC054628
:10D3F00068BB04F5317001F06DFC054638BB94F84C
:10D400009C0204F5057101F077FC0546F8B904F5B6
:10D41000157001F049FD0546C8B904F1F80001F0A6
:10D420009DFC054698B96369029323690193E368FB
:10D430000093228BA36861782046FFF7D9FE05464A
:10D4400005E02046FFF706FE05460028AED004F5AD
:10D4500071721821002004F083F804F58E621821FF
:10D46000002004F07DF804F21C520C21002002F090
:10D4700013FC204603F02BFC204603F0BEFB2046A5
:10D4800003F035FC284604B070BD00BFDB07C307BE
:10D4900038B590F8643303F00F03044663F07F035C
:10D4A00080F8643300F5587105F0F7FF94F86433A1
:10D4B00003F00F0384F8643303210546204602F08D
:10D4C0005EFA94F8C30004F5095101303C31C0B252
:10D4D00002F025FB204602F033FB41F2F133E35C1E
:10D4E000012B02D1204603F015FC284638BD30B58B
:10D4F0000129C1B004460D461CD002290CBF862369
:10D500002C236A468821204605F052FC012D13D9B0
:10D51000D8B904F59A521C320DF14E01382006F0AC
:10D5200096F890B904F5995218320BA9212006F00B
:10D5300053F803E04D23E4E7002DF2D128B904F2BB
:10D54000663269462C2005F0B8FF41B030BD0000BE
:10D550002DE9F74F00259D70042491F803805C7439
:10D56000012483F803809C740C8AB1F81490B1F8FC
:10D5700012A00194C3E901550090DD6003F160043D
:10D580002F464FF6FF7E04F84C5C44F8487C4E78FA
:10D5900006F01F06B8F1000F68D1092E14BFB4467B
:10D5A0004FF0130C04F802CC04F8447C04F8437CDC
:10D5B00004F8427C04F8417C04F8407C04F83F7C89
:10D5C000002D5FD191F802C0BCF1070F50D124F8B3
:10D5D00036AC019824F81C0CB1F816C024F81ACC0B
:10D5E000B1F808C024F818CCB1F80AC000984FEA86
:10D5F0004C1CF44528BFF44624F810CCB1F80CC0FC
:10D6000024F80CCCB1F80EC00CFB00FC506844F8B8
:10D61000240C906844F8200CD06844F8340C1CF5B5
:10D62000806B48BF0CF6FF3B4FEAEB2B106824F8E9
:10D6300006BC34F80CCC24F80ECC24F80ACC34F90F
:10D6400006CC44F8280C24F808CC24F804CC4C343C
:10D6500055B1112E03D8284AB540154246D10022B3
:10D660001A7403B0BDE8F08F01258CE7B44699E742
:10D67000BCF1080F16BFB1F804C024F8369C24F89A
:10D6800036CCA6E7B1F818C024F836CCB1F81AC0E9
:10D6900024F81CCC24F81AECB1F81CC024F818CCDF
:10D6A000B1F81EC000984FEA4C1CF44528BFF44660
:10D6B00024F810CCB1F820C024F80CCCB1F822C06A
:10D6C00000FB0CFC506944F8240C906944F8200CD1
:10D6D0001CF5806BD06944F8340C48BF0CF6FF3B56
:10D6E0004FEAEB2B106924F806BCA2E700221E7457
:10D6F00083F85E20B5E700BF0E20020090F82C30C2
:10D70000052B01BF022380F828338B88A0F82E3325
:10D710001CBF012380F82833002070472DE9F04119
:10D7200090F86433C17003F00F03194380F8641359
:10D7300090F83210044600EB8101C0B0DE3115468E
:10D74000FFF757FC94F8C33053B194F832100A2312
:10D7500003FB014101F5095119442046FFF7CEFFB3
:10D7600094F864339A0707D494F89C32012B04BFD1
:10D77000B4F8A432A4F8163341F2F233E25CFF2A83
:10D7800004BF0022E25441F2F033E35823F07F4318
:10D7900023F0FF03B3F5807F16D141F2F33394F801
:10D7A0002023E254202384F8203394F85D3313F0CF
:10D7B000600F03BFB4F95E309B001BB20023052D40
:10D7C000A4F85A3038BF052541F2F0334E4AE358E9
:10D7D00023F07F4323F0FF03934201BF41F2F33371
:10D7E0000625E35C84F8203310B9204602F0D5FF0B
:10D7F0006B1EDBB2052B9ABF444AD65C8326C6F16A
:10D80000880800236A461FFA88F81746194601332C
:10D810009BB2984502F8011BF9D1052D4FD900287C
:10D820006FD1C6F1010217FA82F20B2104F53670AE
:10D8300005F0BAFB002864D1C6F10D0217FA82F296
:10D84000172104F1480005F018FC002859D1C6F151
:10D85000240217FA82F2202104F2FE2005F0CCFC0B
:10D8600000284ED1C6F1440217FA82F2162104F2C2
:10D870001E3005F02FFD002843D1C6F15A0217FAD9
:10D8800082F2172104F54D7005F069FDC8BB94F8CC
:10D890006433C6F171029B0692B209D594F8303018
:10D8A00084F85E3343F0010184F84C1384F8581374
:10D8B0003A44122104F5537005F094FD08E0B9D004
:10D8C000042DC2D0032DCBD0022DD4D0002DDDD11C
:10D8D000B8B9C6F1830217FA82F2052104F558702F
:10D8E00005F0C2FD68B943463A463146204605F088
:10D8F0003DFA30B9204602F0E9FF10B9204603F0A6
:10D900006DF840B0BDE8F081000101000D7A020021
:10D910000322FFF703BF817100207047012908B57A
:10D920000346104608D002290AD10A2203F1AE01AB
:10D9300009F000FC002008BD0A2203F1A401F7E76A
:10D940006FF00300F7E7A1F50041B92900F27384F5
:10D95000DFE811F0BA00BF00C400C900CE00D30058
:10D96000D800DD00E200E700EC00F100F600FB006B
:10D97000000105010A010F01140119011E01230113
:10D9800028012D01320137013C01410146014B01C3
:10D99000500155015A015F01640169016E01730173
:10D9A00078017D01820187018C01910196019B0123
:10D9B000A001A501AA01AF01B401B901BE01C301D3
:10D9C000C801CD01D201D701DC01E101E601EB0183
:10D9D000F001F501FA01FF01040209020E0213022F
:10D9E00018021D02220227022C02310236023B02DB
:10D9F000400245024A024F02540259025E0263028B
:10DA000068026D02720277027C02810286028B023A
:10DA1000900295029A029F02A402A902AE02B302EA
:10DA2000B802BD02C202C702CC02D102D602DB029A
:10DA3000E002E502EA02EF02F402F902FE02030349
:10DA400008030E0314031A03200326032C033203D6
:10DA500038033E0344034B03510357035D03630341
:10DA600069036F0375037B03800385038A038F03B8
:10DA7000940399039E03A403A903AE03B303B8035D
:10DA8000BD03C203C703CC03D103D603DB03E0030A
:10DA9000E503EA03EF03F403F903FE0303040804B8
:10DAA0000D04120417041C04210426042B04300462
:10DAB00035043A043F04440449044E045304580412
:10DAC0005D04620467046C04B0F8F8301360002051
:10DAD0007047B0F8FA30136000207047B0F8FC309F
:10DAE00013600020704790F81432136000207047D4
:10DAF00090F8153213600020704790F816321360CA
:10DB00000020704790F8173213600020704790F89B
:10DB1000183213600020704790F81932136000200B
:10DB2000704790F81A32136000207047D0F8203206
:10DB3000136000207047B0F81C321360002070475B
:10DB4000B0F82432136000207047D0F828321360F8
:10DB50000020704790F82C32136000207047B0F816
:10DB60002E32136000207047B0F8BA3013600020E6
:10DB7000704790F83632136000207047B0F83A32A0
:10DB800013600020704790F8373213600020704710
:10DB9000B0F8383213600020704790F804311360F9
:10DBA0000020704790F8053113600020704790F80E
:10DBB000063113600020704790F807311360002091
:10DBC000704790F8083113600020704790F80931D1
:10DBD000136000207047B0F9A63213600020704730
:10DBE000B0F9A832136000207047B0F8AC3213606F
:10DBF00000207047B0F85232136000207047B0F830
:10DC0000AA3213600020704790F850321360002051
:10DC10007047B0F99E3213600020704790F80A31C7
:10DC200013600020704790F80B311360002070479C
:10DC3000B0F80C31136000207047B0F8B8301360B2
:10DC40000020704790F80E31136000207047B0F844
:10DC50001031136000207047B0F8123113600020BB
:10DC60007047B0F81431136000207047B0F81631D7
:10DC7000136000207047B0F818311360002070471F
:10DC8000B0F81A3113600020704790F81C3113600F
:10DC90000020704790F81D3113600020704790F805
:10DCA0001E3113600020704790F8A23213600020EC
:10DCB000704790F81F3113600020704790F82131B1
:10DCC00013600020704790F82231136000207047E5
:10DCD000B0F9A03213600020704790F8FE30136056
:10DCE0000020704790F8FF3013600020704790F8D4
:10DCF000003113600020704790F80131136000205C
:10DD0000704790F8023113600020704790F803319B
:10DD100013600020704790F8203113600020704796
:10DD200090F85432136000207047B0F860321360EE
:10DD300000207047B0F86232136000207047B0F8DE
:10DD40006432136000207047B0F866321360002020
:10DD50007047B0F8683213600020704790F8E032E6
:10DD600013600020704790F8F8311360002070476E
:10DD700090F8F931136000207047D0F8FC3113603F
:10DD800000207047B0F80032136000207047B0F8F0
:10DD90000232136000207047B0F804321360002094
:10DDA000704790F88032136000207047B0F98232DB
:10DDB000136000207047B0F9843213600020704770
:10DDC000B0F87032136000207047D0F874321360DE
:10DDD00000207047B0F88632136000207047B0F81A
:10DDE0008832136000207047D0F87832136000202A
:10DDF0007047D0F87C32136000207047B0F8B03222
:10DE0000136000207047D0F8B432136000207047D0
:10DE1000D0F8BC32136000207047D0F8B8321360DD
