:020000040001F9
:10800000203F0020DD820100E5820100E7820100BF
:10801000E9820100EB820100ED8201000000000016
:10802000000000000000000000000000EF820100DE
:10803000F182010000000000F3820100F5820100DE
:10804000A98B0100F7820100A1970100F7820100CE
:10805000F78201000000000061850100258E01000B
:10806000F7820100F7820100F7820100F782010028
:10807000F7820100F7820100F7820100F782010018
:10808000F7820100B58D0100F7820100F78201003F
:10809000F9830100F7820100FD830100F7820100EE
:1080A000F7820100F78201000000000000000000DC
:1080B000F7820100F78201000000000000000000CC
:1080C00000000000000000000000000000000000B0
:1080D00000000000000000000000000000000000A0
:1080E0000000000000000000000000000000000090
:1080F0000000000000000000000000000000000080
:10810000000000000000000000000000000000006F
:10811000000000000000000000000000000000005F
:10812000000000000000000000000000000000004F
:10813000000000000000000000000000000000003F
:10814000000000000000000000000000000000002F
:10815000000000000000000000000000000000001F
:10816000000000000000000000000000000000000F
:1081700000000000000000000000000000000000FF
:1081800000000000000000000000000000000000EF
:1081900000000000000000000000000000000000DF
:1081A00000000000000000000000000000000000CF
:1081B00000000000000000000000000000000000BF
:1081C00000000000000000000000000000000000AF
:1081D000000000000000000000000000000000009F
:1081E000000000000000000000000000000000008F
:1081F000000000000000000000000000000000007F
:10820000DFF80CD000F00EF90048004701BD010076
:10821000203F002030B450E8012F93B2C48923449A
:108220008489A34228BF1B1B0489A34202BFBFF35A
:108230002F8F002007E0C3EA020340E80134002C3E
:10824000E9D14FF001000A6030BC704750E8012FBF
:10825000C2EA024240E801210029F7D1704730B458
:1082600050E8022F1FFAA2F3C488A34202BFBFF353
:108270002F8F00200DE0C48923448489A34228BFA6
:108280001B1BC2EA034340E80234002CE8D14FF044
:1082900001000A6030BC704750E8022FC2EA224257
:1082A00040E802210029F7D17047034653E8022F26
:1082B000D988B2EB324F4FF0000017BF92B241EABB
:1082C000014142EA014104E05A68B2EB324F08BF73
:1082D000012043E80212002AE8D17047064880478F
:1082E00006480047FEE7FEE7FEE7FEE7FEE7FEE79B
:1082F000FEE7FEE7FEE7FEE7C5940100018201000C
:108300002DE9F05F0546002092469B4688460646CA
:10831000814640241BE0284641464746224600F05D
:1083200071F853465A46C01A914110D31146184667
:10833000224600F050F82D1A67EB01084F462246FE
:108340000120002100F047F817EB00094E41201EE4
:10835000A4F10104DFDC484631462A464346BDE825
:10836000F09F40EA01039B0703D009E008C9121FF0
:1083700008C0042AFAD203E011F8013B00F8013BDF
:10838000521EF9D27047D2B201E000F8012B491E0B
:10839000FBD270470022F6E710B513460A460446A2
:1083A0001946FFF7F0FF204610BD30B50446002007
:1083B000034600E05B1C934203D2E05CCD5C401BB3
:1083C000F8D030BD034611F8012B00F8012B002A2C
:1083D000F9D118467047202A04DB203A00FA02F14E
:1083E000002070479140C2F1200320FA03F31943A3
:1083F000904070470020704706F09EBA04F0C2BD5E
:10840000636A7900202A04DB203A21FA02F0002175
:10841000704721FA02F3D040C2F120029140084394
:1084200019467047064C074D06E0E06840F001032E
:1084300094E8070098471034AC42F6D3FFF7E4FE07
:1084400014F8010034F8010030B58C1810F8012B35
:1084500012F00F0301D110F8013B120906D110F8F8
:10846000012B03E010F8015B01F8015B5B1EF9D101
:1084700001E001F8013B521EFBD1A142E6D30020EE
:1084800030BDA0F50830B0F5504F01D20120704743
:108490000020704709490220086009480268002A44
:1084A000FCD0064B012210331A600268002AFCD06F
:1084B00000220A6001680029FCD0704704E50140F1
:1084C00000E4014070B5B0F5204F0CD8050B000555
:1084D00000D06D1C2226002403E0301900F016F8AD
:1084E000641CAC42F9D3322003F05AFD012070BD68
:1084F000044801210160034A0349F8321160002158
:1085000001607047080501403546526E10B50146BE
:108510000003FFF7B6FF00280CD0074A00201070B8
:10852000084628DF4CF2503003F060FEBDE81040F2
:1085300006F0FEBD10BD0000252B002010B503463F
:10854000FFF79FFF002808D0044C00202070184639
:1085500029DFBDE8104006F0EBBD10BD252B002043
:108560002DE9F04700268CB0DFF86091B0464FF45B
:108570008075012437460696284604F093FB38B1EF
:10858000D9F80403204203D0284604F081FB264397
:108590002D1D64007F1CADB2082FEDD34FF4BE74C7
:1085A000204604F07FFB48B1204604F071FB46F002
:1085B000004606AA0121002004F056FB444D16F0A7
:1085C000FF0F15D00127002437420DD009EB84019D
:1085D000D1F81005D1F81015C0F3042055F8242067
:1085E000C1F3014102B190477F00641C082CEBD31A
:1085F000002E67DA4FF0FF30CDE9088000263446C0
:10860000281910F8507F90F9000027F0C008401C8E
:1086100044D009A9404603F001FC58B34FEA97192A
:10862000404602F0C3FB55F820701FB1B9F1030FAB
:1086300003D00FE0B9F1030F30D108A84FEAD802F8
:1086400008F00703815C4FF0010C0CFA03FC41EACF
:108650000C0181544FF0A04101EB8800D0F80007D5
:1086600006A9C0F3014A404603F0D8FB18B1BAF19D
:10867000020F03D012E0BAF1030F0FD1B9F1030FCB
:1086800008D1BAF1020F1BD00221404604F0C5FA0E
:10869000761CF6B217B149464046B847641C042C14
:1086A000AED3002E0ED06A460121002004F0DCFA81
:1086B00006990098884205D00690089809909DE791
:1086C0000321E2E70CB0BDE8F08700000060004045
:1086D000A431002010B5002303E0CC5CC4545B1C23
:1086E0009BB29342F9D310BD10B501460124032279
:1086F00003A0FFF75AFE00B10024204610BD000081
:10870000636A790008B5042807D028B3012841D04E
:1087100002285FD003287DD085E069462E2000F036
:1087200005F9002877D09DF8000000F01F018DF8B2
:1087300000102E2000F0E8F9002875D069462420AA
:1087400000F0F4F800286FD09DF8000000F0BF01A1
:108750008DF80010242062E06946242000F0E6F83D
:10876000002861D09DF8000000F0BF0040F04001FB
:108770008DF80010242000F0C7F9002854D0694675
:108780002E2000F0D3F800284ED09DF8000000F015
:108790001F013EE06946242000F0C8F8002843D0BD
:1087A0009DF8000000F0BF0040F040018DF800107F
:1087B000242000F0A9F9002836D069462E2000F0C8
:1087C000B5F8002830D09DF8000000F01F0040F000
:1087D00040011EE06946242000F0A8F8002823D0BC
:1087E0009DF8000000F0BF0040F040018DF800103F
:1087F000242000F089F9002816D069462E2000F0C8
:1088000095F8002810D09DF8000000F01F0040F0FF
:10881000800101E009E007E08DF800102E2000F053
:1088200073F9002800D0012008BD6946242000F01B
:108830007DF80028F8D09DF8000000F0BF0040F05F
:1088400040018DF80010242000F05EF90028EBD0E4
:1088500069462E2000F06AF80028E5D09DF8000057
:1088600000F01F0040F0C001D3E7F8B56D460446A4
:108870006E1C3146282000F059F8002827D02946E0
:10888000292000F053F8002821D0BDF800002080F6
:1088900031462A2000F04AF8002818D029462B201B
:1088A00000F044F8002812D0BDF800006080314686
:1088B0002C2000F03BF8002809D029462D2000F09C
:1088C00035F8002803D0BDF80000A0800120F8BDD5
:1088D00038B504466946212000F028F800280CD05D
:1088E0009DF8000000F0FE0121438DF800102120CA
:1088F00000F00AF9002800D0012038BD38B5044640
:108900006946242000F012F800280ED09DF80000DF
:1089100000F0F70040EAC400C1B28DF80010242036
:1089200000F0F2F8002800D0012038BD7FB50F4DCF
:1089300040F080000E468DF8000028780C49012494
:1089400004FA00F008600221684605F05FFA02218F
:1089500002A805F07FF9287884400548001F0460CC
:108960009DF80900307004B0012070BD1E2B00205E
:108970000C05005038B5044669462020FFF7D6FFA5
:10898000002812D09DF8000004F0070100F0F80064
:1089900001438DF80010202000F0B6F8002804D024
:1089A00002A1002000F02EFB012038BD4C495333BA
:1089B00044485F536574417869730D0A00000000F4
:1089C00038B5044669462320FFF7B0FF00280ED0D3
:1089D0009DF8000000F0CF0040EA0410C1B28DF80D
:1089E0000010232000F090F8002800D0012038BDAE
:1089F00038B5044669462220FFF798FF002808D0C2
:108A000021468DF80040222000F07EF8002800D09A
:108A1000012038BD1CB5044669462020FFF786FFBB
:108A2000002816D001A92320FFF780FF002810D0CE
:108A30009DF80000010906D12149497801F0F001B3
:108A400001438DF800106CB3012C10D0022C01D022
:108A500000201CBD9DF8000000F0F7008DF800001C
:108A60009DF8040000F0F70040F0080004E09DF8D5
:108A7000000000F0F7001BE08DF804009DF80010E6
:108A8000202000F041F80028E3D09DF804102320B6
:108A900000F03AF80028DCD00AA1002000F0B2FA79
:108AA00001201CBD9DF8000000F0F70040F0080018
:108AB0008DF800009DF8040000F0F700DCE70000EE
:108AC0001E2B00204C49533344485F5365744D6F4F
:108AD00064650D0A0000000038B504466946202090
:108AE000FFF724FF00280ED09DF8000000F00F00D3
:108AF00040EA0410C1B28DF80010202000F004F804
:108B0000002800D0012038BD7CB500F07F008DF832
:108B100000000A4D8DF8011009492878012404FA53
:108B200000F008600221684605F070F9287884405A
:108B30000348001F046001207CBD00001E2B0020A4
:108B40000C05005000F01F020121914040098000F7
:108B500000F1E020C0F88012704700F01F020121F0
:108B600091404009800000F1E020C0F800117047FA
:108B700000F01F02012191404009800000F1E02037
:108B8000C0F8001270474907090E002806DA00F005
:108B90000F0000F1E02080F8141D704700F1E02084
:108BA00080F80014704700002DE9F0414FF4807701
:108BB000384603F0DDF90124104EA50748B13846C8
:108BC00003F0DDF90120C5F808037470002002F0FD
:108BD00041F94FF48277384603F0CAF900280BD0E8
:108BE000384603F0CCF90220C5F80803B470BDE89C
:108BF000F041012002F02EB9BDE8F0819031002053
:108C00002DE9F741264D87B02B46AA880344A2F5EB
:108C10007F4493F82630FF3C28D03BB3BDF8242096
:108C2000142A29D842B3002205EBC0000292039215
:108C300004920592C088ADF8080009A80127CDE983
:108C400004018DF80A7014464FF47A78A88802A9B6
:108C5000A6DF060016D0404602F0D3F9641CA4B289
:108C6000032CF3D330460AB0BDE8F0810DA10020FB
:108C700000F0C8F90520F6E717A1002000F0C2F9BE
:108C80000720F0E7BDF82400BDF80820CDE900700A
:108C900010231AA1002000F0B5F90020E3E700003E
:108CA000802C00204E52465F4552524F525F4E4F2D
:108CB000545F464F554E4420636F6E6E5F68616E21
:108CC000646C653D25642C2C2C2C6E6F7469663D9C
:108CD00025640D0A00000000424C455F4E55535F6D
:108CE0004D41585F444154415F4C454E206572727E
:108CF000206C656E3D25640D0A000000736C617682
:108D0000652073656E6420737563636573733A6879
:108D1000616E646C653A256420757569643A2564F2
:108D2000202069735F646174613A2564206C656E0C
:108D30003A25640D0A00000010B501F08BF818B157
:108D40000AA2282101F034F806F0A0F902F03CFE56
:108D500005F03EFA47F2305006F0FEF902F04EFE02
:108D600004F068FEBDE8104004F062BC2E2E5C6D7D
:108D70006F6B6F5F7372635C6472697665725F6953
:108D80006E69742E630000003EDF002803D002A24B
:108D90003B2101F00DB870472E2E5C6D6F6B6F5F3D
:108DA0007372635C6472697665725F696E69742E52
:108DB0006300000007480021C0F84011C0F84411CA
:108DC000C0F84811C0F84C11C0F80011C0F80411E7
:108DD00005F064BE0010014030B5E5B004460D4614
:108DE00044F080008DF8CC000C48017801208840C8
:108DF0000B490860012133A805F008F8012101A8FA
:108E000004F028FF05480178012088400449091F23
:108E100008609DF80400287065B030BD202B00204C
:108E20000C0500502DE9FE434FF48278404603F0D4
:108E300049FF4C4F00254C4C012600B3404603F03F
:108E400049FF94F82E0010B194F82F10D1B18DF88D
:108E50000050616801912189ADF80810E26832B1D3
:108E6000218B618362602181E56010B102E025748D
:108E700000E03E6021686846884784F82F5094F8E7
:108E80002E0060B34FF48077384603F01BFF30B3F9
:108E9000384603F01FFF628B94F82D108A420AD9DE
:108EA000A2EB010080B260832289A2EB000062681D
:108EB00002EB400005E007D1E06828B184F82F609C
:108EC000658303F0F7FE04E08A4202D184F82F6044
:108ED0006583404603F0FEFE2248001D06604FF405
:108EE0008877384603F0EEFE48B1384603F0F2FECC
:108EF000257402208DF800002168684688474FF4E9
:108F00008A77384603F0DEFE28B1384603F0E2FEE9
:108F10002574BDE8FE834FF000484FF48C796769F3
:108F20001DE000BFB7FA87F028FA00F109EB8005D1
:108F30008F43284603F0C6FE88B1284603F0CAFED8
:108F4000A5F58C75E8088DF8040045F38000401CF9
:108F50008DF800608DF80500216868468847002F6D
:108F6000E0D1D6E70070004018320020F8B5064680
:108F70000C4814460D46007808B900F03BFC00236D
:108F800000938DF80030684601F050F822462946DB
:108F9000304600F009F804469DF8000001F06AF838
:108FA0002046F8BD9C35002070B50E46144900EBF4
:108FB000400001EBC0051446E86A183520B10128CD
:108FC0000FD0022805D113E0284600F047FCA0424C
:108FD00001D2002411E022463146284600F064FD0B
:108FE0000BE0284600F03AFCA042F4D20446F2E737
:108FF0003146284600F02BFD0446204670BD000097
:109000009C3500200FB408B504A900916A46039965
:1090100000F004F801B05DF814FB00002DE9F04108
:1090200088B00646644802904FF480700025CDE970
:109030000305CDE9055690460C4600BF14F8011B08
:10904000002973D0252908D002A800F0E1FC05987A
:109050000028F3DA08B0BDE8F08100200122217871
:1090600023291ED02B2919D02D2902D0302908D12F
:1090700002E040F0010001E040F00200641C002A20
:10908000EDD100222178A1F130030A2B0CD202EBA2
:10909000820201EB4202303A641CF3E740F0040024
:1090A000ECE740F00800E9E70023CFB22E2F0BD108
:1090B00014F8011FA1F130070A2F05D203EB830337
:1090C00001EB4303303BF3E76C290DD068290BD04B
:1090D000702954D00BDC252916D0582931D06329AA
:1090E0000CD0642913D114E014F8011BECE77329A8
:1090F00034D075291BD0782909D122E0D8F8000096
:10910000011DC8F80010017802A800F081FC641C61
:109110009DE7D8F800100F1DC8F800700968CDE968
:1091200000200A2202A800F0A5FBF0E733E0D8F8FF
:1091300000100F1DC8F800700968CDE900200A2250
:1091400008E0D8F800100F1DC8F800700968CDE9D4
:109150000020102202A800F0F1FBD8E7D8F80000A8
:10916000011DC8F80010076817F8011B0029CED0B0
:1091700002A800F04DFC05980028F5DAC7E7D8F8FA
:109180000000011DC8F8001001680820CDE90005A5
:1091900003461022DEE7059800287FF75BAF0498AE
:1091A00020B1024604493046FFF7E0FEDDE9041035
:1091B000084405904EE70000E435002010B5044651
:1091C0002146102000F01CF910BD00001CB512A0B3
:1091D000006801900020009000246946FFF7FCFD24
:1091E00000BF12E001A8005D9DF8001088420AD17E
:1091F00001200A4908709DF8002009A10020FFF70E
:1092000001FF01201CBD601C84B2032CEAD30020A6
:109210000249087000BFF5E726252300222B002015
:109220000D0A20726561642073746B636869702035
:109230006964206F6B2C20636869705F6964203DEE
:1092400020307825780A000010B5044624B10821A2
:10925000122000F0D5F803E00021122000F0D0F831
:1092600010BD10B5044621463E2000F0C9F810BDDF
:109270002DE9F04705460E4617469846DDE908A950
:1092800000240EB144F001040FB144F00204B8F11F
:10929000000F01D044F004042146162000F0B0F87D
:1092A00000240DB144F004042146192000F0A8F870
:1092B00000244AEA09042146202000F0A1F80421F4
:1092C0002A2000F09DF8BDE8F0872DE9F0411D202F
:1092D00001210A4600231C461D4600BF4FF0A0474F
:1092E0003E4641EA420747EA830747EA042747EA3E
:1092F000054C06F5E06747F820C000BF00BF00BF7F
:1093000000BF4FF0A0410A46012303FA00F1C2F862
:10931000081500BF00BF07221E211F2004F07EFE9B
:10932000322001F06EFE00F003F8BDE8F08100008D
:109330001CB5FFF74BFF20B11AA10020FFF762FE1A
:1093400002E04FF0FF301CBD00F0B3F800F080F8F1
:10935000032000F04DF8C0215E2000F051F80D20F0
:10936000FFF72CFF0120FFF76FFF7A21012000F0AB
:1093700085F80020009001231A46194601901846EE
:10938000FFF776FFC020FFF76CFF7A21012000F085
:1093900075F8142000F082F80AA10020FFF732FED1
:1093A0000020D0E75B53544B383332785D2068613E
:1093B00076652053544B383332782073656E736F63
:1093C000720D0A005B53544B383332785D20496E7E
:1093D000697469616C697A6174696F6E2073756311
:1093E0006365737366756C2E2E2E0D0A00000000E7
:1093F00010B5044621460F2000F002F810BD000011
:1094000038B504460D462946204600F0D1F9694694
:109410002046FFF7E1FC9DF80030224603A1002022
:10942000FFF7F0FD0A2002F0B2FD38BD5B53544B4C
:10943000383332785D726567203A20307825782C91
:1094400076616C7565203A20307825780D0A000029
:1094500038B50020009070245A2569462046FFF751
:10946000BBFC9DF80000E12803D12946332000F021
:109470009FF904213420FFF7C3FF38BDF8B5054636
:109480000E4669461120FFF7A7FC0DB1344600E0F7
:10949000802421461120FFF7B3FFF8BD38B50446FC
:1094A0002146282000F084F969462820FFF794FC23
:1094B00038BD10B5B621142000F07AF9322002F040
:1094C00066FD10BDF0B5A348A24B012600781B1D18
:1094D0001A1D4FF0805106280BD11C78240708D1A3
:1094E0001478C4F30314032C06D0042C04D0052CE8
:1094F00002D0062807D011E0B1F82443964DC4F3FA
:1095000004242C6002E01C78240707D11478C4F3EB
:109510000314032C02D1924D904C6C67D1F830515A
:10952000D1F844428F4FC4F342343C6006280CD13A
:109530001C78240709D11478C4F30314032C04D134
:10954000894C276827F0807727604FF080470024F8
:10955000C7F80C41C7F81041824F3F1F3C600628F6
:1095600007D11F783F0704D11778C7F30317032FDC
:1095700002D0062808D01FE0DFF8E8C103270CF16D
:10958000640CCCF8007007E01F783F0714D11778FF
:10959000C7F30317032F0FD1DFF8D0C10527CCF88D
:1095A0000070724F78373E60704F08373C600CF1A6
:1095B000040C3F27CCF800706D4F3F68DFF8B4C152
:1095C000CCF800706A4F3F1D3F680CF1040CCCF8DA
:1095D0000070674F08373F680CF1040CCCF800703E
:1095E000634F0C373F680CF1040CCCF80070604FEF
:1095F00010373F680CF1040CCCF800705C4F143746
:109600003F680CF1040CCCF80070594F18373F68D4
:10961000DFF860C10CF1200CCCF80070544F1C37FF
:109620003F680CF1040CCCF80070514F20373F68B4
:109630000CF1040CCCF800704D4F24373F680CF14E
:10964000040CCCF800704A4F28373F680CF1040C2A
:10965000CCF80070464F2C373F680CF1040CCCF866
:109660000070434F30373F68DFF808C10CF1400C01
:10967000CCF800703E4F34373F680CF1040CCCF846
:1096800000703B4F38373F680CF1040CCCF8007089
:10969000374F3C373F680CF1040CCCF80070344F66
:1096A00040373F680CF1040CCCF80070DFF8C8C0FC
:1096B000FB27CCF80070062813D11F783F0710D184
:1096C0001778C7F30317032F03D0042F01D0052FFA
:1096D00007D1D1F85872DFF8A4C007F04F07CCF8D3
:1096E000007027480268D20702D06FF001020260C2
:1096F000062D08D1D1F83401062804D1214801688B
:1097000041F48061016020480168C9071ED01F4AEA
:1097100016601F490B68002BFCD0036803F0FE03A2
:10972000036008680028FCD0146008680028FCD09A
:10973000BFF34F8F0C48F0380168164A01F4E0611E
:1097400011430160BFF34F8F00BFFDE7134912487B
:109750000860F0BDE00F00F0403501400DF0ADBAFB
:1097600000C007403C050040FCED00E01056004002
:109770000404001020C5004018F50040E40E00402D
:10978000000400403C1700400C12001004E50140AA
:1097900000E401400400FA050090D003702B002083
:1097A0000149024805F060BBFC3100200020004068
:1097B00030B5B3B004460D468DF8055004F07F0077
:1097C0008DF80400094801780120884008490860A4
:1097D000022101A804F01AFB044801780120884006
:1097E0000349091F086033B030BD0000202B002062
:1097F0000C05005010B5124C01202061606111A0D1
:10980000A061A4F58670E0614FF4807020620020B2
:10981000A06260620BA1C4E90B01A4F10C016163B9
:109820000A21A1632064E063606409A1E01DFEF7E2
:10983000C9FD08A12046FEF7C5FD2020A07110BD7E
:109840009C3500205465726D696E616C00000000EB
:109850005254540053454747455200000269C168BD
:109860008A4203D88068401A104400E0501A401E13
:10987000704700002DE9FC5F0E008146DDE90C47D2
:10988000C6F1000098469346824600D4084601255A
:1098900003E000BF90FBFBF06D1C5845FADAA845C9
:1098A00000D9454624B1002E01DB780700D5641E9F
:1098B000B80702D5B8F1000F0FD0F8070DD164B189
:1098C000A5420AD220214846641E00F0A1F8D9F82A
:1098D0000C000028F3DABDE8FC9FD9F80C00002842
:1098E000F9DB002E02DA56462D2102E0780707D573
:1098F0002B21484600F08CF8D9F80C000028EADB50
:1099000007F0030002280FD1B8F1000F0CD15CB1B1
:10991000A54209D230214846641E00F079F8D9F8F2
:109920000C000028F3DAD6E7CDE9004743465A4653
:109930003146484600F002F8CDE700002DE9F84F27
:109940008246DDE90A4B0126984691460D460846B7
:10995000374602E0B0FBF9F07F1C4845FAD2B84523
:1099600000D947465FEACB7017D1B4B15FEA8B707C
:1099700002D5B8F1000F02D0202000900BE030207B
:10998000FBE75046641E009900F042F8DAF80C003C
:10999000002838DB0CB1A742F3D3DAF80C0000281A
:1099A00031DB00BFB8F1010F02D9A8F1010803E0D3
:1099B000B5FBF6F0484502D306FB09F6F2E7DFF8FF
:1099C0004C8000BFB5FBF6F000FB165518F80010F0
:1099D000504600F01DF8DAF80C00002803DBB6FB57
:1099E000F9F6002EEED15FEACB700CD0002C0AD035
:1099F000A74208D220215046641E00F009F8DAF888
:109A00000C000028F2DABDE8F88F000098F401009D
:109A100010B50446D4E90130421C934205D32368B3
:109A20001954A260E068401CE060D4E9010282425F
:109A300009D121682069FFF799FAA168884203D00B
:109A40004FF0FF30E06010BD0020A06010BD2DE998
:109A5000F047C4681746894606464FF0000830694B
:109A6000A04201D9051B02E0B168201A0D1AB068A6
:109A70006D1E001BA84200D80546BD4200D33D46DE
:109A800070682A4620444946FEF76BFCB0687F1B8D
:109A90002C44A844A944A04200D10024F460002F23
:109AA000DDD14046BDE8F0872DE9F041C6680446A7
:109AB000174688468068851B6068BD4206D93044D9
:109AC000FEF74FFCF019E060BDE8F0812A46304413
:109AD000FEF747FC7E1B08EB050132466068FEF787
:109AE00040FCE660F0E702E008C8121F08C1002A47
:109AF000FAD170477047002001E001C1121F002A0F
:109B0000FBD170470121202803DA8140054801403C
:109B100003E0402802DA2038814009B10120704773
:109B200000207047FC06FFBD082806D228B1012896
:109B300003D0042801D001207047002070470000A6
:109B400010B501F0BDFE0E4C00231A4661780D4899
:109B500072DF01F0D5FE0B4AA3781F326178094805
:109B600072DF04000BD0024607A10020FFF74AFA7B
:109B70002046BDE810400D4A5E2100F019B910BD25
:109B8000C22A0020302C00205B6164765F6461741F
:109B9000615F70616464696E675D206572725F63A6
:109BA0006F64653D2578200D0A00000044A4010083
:109BB00030B58DB00B46054669460F2849D00ADC02
:109BC000012D1CD0072D18D12D4872B3042A37D08F
:109BD0000022012147E04CF25034102D45D0342DA5
:109BE0000BD10022114605F001F9204602F044FB9A
:109BF000002004F06FFA00F033FC0DB030BD12B15C
:109C0000062A0ED026E01E4A00205C3AC0F1050369
:109C100013441B7C0B54401CC0B20628F6D306220A
:109C200021E0184603F0A4FE0DE006E000F080FA03
:109C3000E3E700BF05F0DAF8DFE70422014612E0AF
:109C40001946FEF78EFB00221146284605F0CEF895
:109C5000ECE712B100220121ECE701F05FFD8DF885
:109C60000000012269462846E4E70022114605F07B
:109C7000BDF8204602F000FB002004F02BFAD5E7E7
:109C8000DC2D00207CB514460E460546012823D065
:109C90006FF48050281821D0B0F5405F23D06FF4C6
:109CA0004051C84206D1238816A100206268FFF700
:109CB000A9F904E032461BA10020FFF7A3F92148CF
:109CC0000068C00700D000BE224602B031462846D8
:109CD000BDE8704000F078B81BA100E023A100208F
:109CE000FFF790F9EBE7A06803F0FEF9034621883F
:109CF0006068CDE9000127A10020A268FFF782F982
:109D0000DDE70000415353455254494F4E20464130
:109D1000494C45442061742025733A25752E2E2E1A
:109D20000D0A0000554E4B4E4F574E204641554CA4
:109D300054206174203078253038582E2E2E0D0A8C
:109D400000000000F0ED00E0534F465444455649F2
:109D500043453A20415353455254494F4E204641C2
:109D6000494C45442E2E2E0D0A000000534F4654F8
:109D70004445564943453A20494E56414C494420B2
:109D80004D454D4F5259204143434553532E2E2E9E
:109D90000D0A00004552524F52202575205B257355
:109DA0005D2061742025733A25752E2E2E0D0A0034
:109DB0000EB5ADF80010CDE901206A46002144F24D
:109DC0000100FFF75FFF0EBD08B501238DF80030DD
:109DD0009DF80030144B186059609A606FF4804110
:109DE000401807D001280FD1DA60D8680088986140
:109DF000D86807E01A611869806858611869008896
:109E0000986118694068D861186858689868D86877
:109E1000186958699869D86972B600BF9DF8000042
:109E20000028FBD162B608BD48320020084B9B7861
:109E300023B12AB120B10068037C1BB10820704710
:109E4000072070470023037441744261184670472D
:109E50006832002070B503F05BFC104800240F212D
:109E6000047044700E4D817014206C602C706C7006
:109E7000FEF768FE07211420FEF785FE1420FEF78A
:109E80006CFE0848046007211120FEF77CFE05489F
:109E9000001F0068A860002070BD0000683200202C
:109EA0003C2B0020081501402DE9FC47DFF8789095
:109EB00099F8023073B368B3052902D20720BDE8D0
:109EC000FC87436933B3437C012B25D0002704462C
:109ED0000025884616468DF80050684600F0A6F822
:109EE00001A805F0E9F8C8B1012101700F494460EB
:109EF0000968C0E90218C0E904769DF8040089F8F1
:109F000001009DF8000000F0B5F81420FEF730FEC7
:109F10002846D4E70820D2E70F46D8E704259DF865
:109F2000000000F0A7F8F3E76832002004150140B4
:109F30000649897839B130B1416921B100210174F4
:109F4000022104F087BD082070470000683200201D
:109F500010B5024802F02CFD002010BD602B00203F
:109F6000064A0146002093782BB1531C1B780B70D6
:109F7000002191707047052070470000582B002089
:109F800070B588B0154604461E4620221B49684617
:109F9000FEF7E7F960690690207C00B101208DF89A
:109FA00014008DF81C60607C00B10E208DF8150047
:109FB000E0680290A06803902068019060680090BB
:109FC0000F480021456081700E4A6946083002F052
:109FD000B1FB00280FD12068401C0CD09DF81D005B
:109FE00018B90748083002F025FC05490122491C30
:109FF000C81D02F0E7FB08B070BD0000D0F2010000
:10A00000582B002061ED0100074910B508700122AE
:10A0100001F1080002F06CFC112803D0002800D0E8
:10A02000032010BD042010BD582B002030B5EFF3E5
:10A03000108172B60D4A9468012324B1037000297F
:10A0400000D162B630BD93604FF0E023D3F8805169
:10A05000074C25401560C3F88041D3F88441546013
:10A060005A17C3F8842100220270E8E7D433002095
:10A07000FC06FFBD0B498A68002A11D000280FD1C9
:10A08000EFF3108072B60B684FF0E022C2F8003197
:10A090004B68C2F8043100228A60002800D162B601
:10A0A00070470000D43300202DE9F04106460868CF
:10A0B0000C46411C4FF0A0474FF0010506D005FAB1
:10A0C00000F1C7F80815206802F09DFD6068411C8A
:10A0D00002D0002102F082FD3168A069C1F8240598
:10A0E000607D217D32680843C2F86C05D4E9001216
:10A0F0003068C0F80C15C0F81425207D012815D152
:10A10000A068411C02D0002102F068FDE068411CFB
:10A1100005D08540C7F80855E06802F074FDD4E921
:10A1200002123068C0F80825C0F81015BDE8F081AB
:10A13000024801210170417070470000F42A00209C
:10A140002DE9F0430546007D93B00E460024A0B1F2
:10A1500007949DF81C0020F00F00401C20F0F00038
:10A1600010308DF81C00707B8DF81D009DF81E00CE
:10A1700020F00600801C8DF81E001C216846FEF7AA
:10A1800009F99DF8000040F002008DF80000297DDB
:10A1900011B140F0100001E020F010008DF8000037
:10A1A000019403940494287D00B107A8CDE9050427
:10A1B00001278DF8427042F61920ADF840000D9449
:10A1C000B07B8DF83400F07B8DF835009DF83600BB
:10A1D000142120F00600801C20F019008DF83600B4
:10A1E000307B8DF8440008A8FEF7D4F80DF1400844
:10A1F0000DF13409ADF8287011A8CDE90889ADF842
:10A200002A40ADF82C700C90A888AB1D08AA6946AE
:10A21000A2DF002838D1B06898B38DF8427042F6BA
:10A220000810ADF840000D94307C8DF834009DF896
:10A23000350020F0FF008DF835009DF8360020F045
:10A240000600801C20F019008DF836000EA8B168B9
:10A2500000F006FD0646142108A8FEF79BF8ADF8AD
:10A2600028600EA8CDE90889ADF82A40ADF82C6029
:10A270000C90E88805F10E0208A9A3DF002803D19D
:10A2800001E0FFE7EC81002013B0BDE8F08300009F
:10A2900000B585B014216846FEF77CF89DF80D00E6
:10A2A000012120F00F00401C20F0F00010308DF84C
:10A2B0000D009DF80E008DF8041020F00F00401CDA
:10A2C00020F0F00010308DF80E009DF80F0020F007
:10A2D000FF008DF80F009DF8100020F00F00401CCB
:10A2E00020F0F00010308DF8100000200090029057
:10A2F00001F00EFA8DF80C006946064800F0C6F829
:10A30000002804D0044A40F22311FFF751FD05B0A4
:10A3100000BD0000182C0020A8A3010010B588B0D3
:10A3200000F0A4FC00F074FC002400941020ADF8B0
:10A3300000003C200194ADF80200ADF804404FF459
:10A34000C870ADF8060068467ADF18B116A2EC2195
:10A35000FFF72EFD01F0AAF9FFF79AFF00F0C6FF04
:10A3600004F0C2FE1C216846FEF714F84FF42030BA
:10A37000CDE900404FF47020029003208DF80C00CE
:10A380001048059010480690ADF80E408DF810402A
:10A39000684600F0EBF8002804D003A24FF4B47133
:10A3A000FFF706FD08B010BD2E2E5C6D6F6B6F5F62
:10A3B0007372635C626C655C626C655F696E697424
:10A3C0002E6300005DD1010029AF010010B5FFF739
:10A3D000B7FB13490020134A086448648864C864C2
:10A3E00040314FF47A730870087252885A4340F231
:10A3F0007123B2FBF3F24A81888109480121403080
:10A4000073DF04000BD0024607A10020FEF7FAFD1F
:10A410002046BDE810400BA29321FFF7C9BC10BD38
:10A42000302C0020802D00205B626C655F616476BB
:10A430005F73746172745D20206572723D3078259F
:10A44000780D0A002E2E5C6D6F6B6F5F7372635C0C
:10A45000626C655C626C655F6164762E630000000F
:10A4600074DF020003D002A10020FEF7CBBD7047CD
:10A470005B626C655F6164765F73746F705D3D3DB8
:10A480003D3E6572723D25640D0A000038B50D46EB
:10A4900004001BD0D5B1286820604FF6FF706082A1
:10A4A00028792075FF20207401208DF8020041F6E4
:10A4B0000F00ADF80000221D69460120A0DF002832
:10A4C00003D129462046FFF73BFE38BD0E2038BD9C
:10A4D00010B5027886B0EA2A03D1C278131D8B42E8
:10A4E00003D0002211460D2012E044781E4B012CAF
:10A4F00012D0022C1FD0032C29D0042C0AD1012AFF
:10A50000EFD10079187103F02DF900221146204691
:10A5100002F0FFFD06B010BD0429E2D880780028C3
:10A52000DFD1002ADDD15888010A8DF800108DF89E
:10A530000100022216E001794079022A40EA012056
:10A54000CFD1588003F00EF903F04AFADDE7042971
:10A55000C7D880780028C4D1002AC2D118798DF8D4
:10A56000000001226946D2E7802D002070B504006A
:10A5700012D001461C221448FDF7F3FE1248134D79
:10A580000560206850B17ADF002806D12068016894
:10A5900029604068686005E00E2070BD0B487BDFD5
:10A5A0000028FAD108484FF6FF711438084A20F8FD
:10A5B000041B0549343901600021FFF737FC0028EE
:10A5C000EBD0032070BD0000BC300020342B0020F5
:10A5D00075EF0100074810B54068FFF7A9FC38B1D6
:10A5E000042803D0082803D0032010BD112010BD7B
:10A5F000002010BDA830002030B585B00D46040005
:10A6000039D0BDB36868A8B31C4B4FF6FF702080EB
:10A610000FCB0DF1040C8CE80F0041F23050ADF877
:10A62000000001A8811E62DF002821D1221D694699
:10A630000120A0DF00281BD19DF80200A071204658
:10A6400000F086FD002813D1204600F033FD0028DD
:10A650000ED12946204600F0F3FD002808D1686895
:10A66000A062A86800B1E0620549012008700020DE
:10A6700005B030BDFFE70E20FAE70000A8F40100A6
:10A68000942B00203EB500283CD000293AD0826AA5
:10A69000002A37D00A88102A23D0112A33D0502A12
:10A6A00021D0512A2ED104460A4611F8060F02285D
:10A6B00028D14888238A984224D1907B042821D02D
:10A6C00006281FD005281DD02046891C02F066FDF3
:10A6D000002817D0E16A002914D003B0BDE830404B
:10A6E0000847898811E0CA8803899A420AD108225A
:10A6F0008DF800200A7C12318DF808200191826AC1
:10A70000694690473EBD4FF6FF7101803EBD000097
:10A71000F0B585B00A4605002BD02888A0F57F410A
:10A72000FF3928D01548007828B3144C1120641C38
:10A73000012720700026ADF81070611C104604F04F
:10A740000FFCBDF8101000960844ADF810000196FB
:10A7500002960396288AADF8000004A8CDE9020409
:10A760008DF80270ADF8046028886946A6DF05B050
:10A77000F0BD0E20FBE70820F9E70000942B002035
:10A7800030B585B028B30388A3F57F44FF3C22D0C1
:10A79000124B1B78FBB1114B10255B1C00241D7064
:10A7A00059709A7001250321ADF81010009401949E
:10A7B00002940394018AADF8001004A9CDE90213B4
:10A7C0008DF80250ADF8044000886946A6DF05B058
:10A7D00030BD0E20FBE70820F9E70000942B002095
:10A7E00010B500F0A3FFA0F57F41FF3901D03B2158
:10A7F00076DF10BD30B50446028889B03EA1002046
:10A80000FEF700FC2088434D21282BD011DC0128C5
:10A8100040D010281DD011281DD0132820D100238E
:10A820001A46852128887FDF002819D03AA26521A1
:10A8300037E03B2814D0512838D0522820D0562851
:10A840000ED1A088132176DF002809D032A28421FE
:10A8500027E0A08803E003F0C3F84FF6FF702880DC
:10A8600009B030BD33A10020FEF7CCFB00200090E2
:10A87000A08869468FDF0028F2D027A25E2136E04B
:10A8800000231A4619462888A9DF0028E8D022A20A
:10A89000762106E0A088002166DF0028E0D01EA215
:10A8A000892109B0BDE83040FFF782BA1022A11D0E
:10A8B00004A8FDF756FD9DF810100029D0D09DF892
:10A8C0001800042803D0062801D00528C8D1022981
:10A8D00010D001208DF800004FF4C170ADF80400D5
:10A8E000A0886946A8DF0028BAD00BA2A421FFF7F0
:10A8F0005FFAB5E70220EDE7626C655F6576745F2D
:10A9000068616E646C65722049443A307825780D30
:10A910000A000000C02A00202E2E5C6D6F6B6F5F56
:10A920007372635C626C655C626C655F696E6974AE
:10A930002E63000050485920757064617465207260
:10A940006571756573742E0D0A0000002DE9F047DE
:10A9500001883B4E40F2F3194FF6FF7510291BD0CA
:10A9600011293ED0122954D0502946D1C188F289EC
:10A97000841D914241D1618902293ED186883046A9
:10A9800000F0EAFF050038D004F10C0000F064F993
:10A99000A8B3294630464EE0C17B8788044601298A
:10A9A0002BD1A846284600F0D7FF050017D02F80EE
:10A9B00000202872234843464A460168C5F80A1019
:10A9C0004068C5F80E0004F1100105F10A0000F01E
:10A9D000D9FF6872F08900280FD129462AE00420A7
:10A9E00013E0808800F0B8FF040006D06068FFF72D
:10A9F0009FFA08B102F09EFF2580BDE8F087FFE7CF
:10AA00006868FFF795FA0028F7D0BDE8F04702F034
:10AA100091BF87880646384600F09EFF0400ECD0C0
:10AA20002B464A4606F1080104F10A0000F0AAFF8D
:10AA3000607221463846BDE8F04700F089BA000050
:10AA4000BC300020342B00202DE9F0470546038858
:10AA50003A480122A4B000F1480A102B09D0112B6A
:10AA60004AD01A2B66D1297AB2EB111F49D20123A1
:10AA700048E0D0E911218A430446011D12A802F0E2
:10AA80002CFF442212A901A8FDF76BFCDFF8AC9063
:10AA90000026374609F144090DF104080AE000BF19
:10AAA00008EB46001D2283884946201D009702F0CE
:10AAB000D9FE761C0198B042F2D8606CAD88C043D4
:10AAC00002F0F2FEA0F57F41FF390DD004EB40000B
:10AAD000012385802A465146201D02F023FF0123D1
:10AAE0002A464946201D20E024B0E521BDE8F04774
:10AAF00013A20420FFF75CB90023AA885146001D69
:10AB000013E000230D490446AA885031001D02F0CD
:10AB100009FF287A0221B1EB101F01D2012300E0C6
:10AB200000230649AA885431201D24B0BDE8F0470F
:10AB300002F0F8BE24B0BDE8F0870000D830002055
:10AB40002E2E5C636F6D706F6E656E74735C626CDD
:10AB5000655C636F6D6D6F6E5C626C655F636F6E7D
:10AB60006E5F73746174652E63000000F0B5224B54
:10AB70000F4604000FCB8BB006AE4FF6E06586E8BB
:10AB80000F0037D0AFB33868E062214606A862DF15
:10AB900000282CD120788DF82A00A21CADF828506E
:10ABA0000AA90120A0DF002821D1032013A101253B
:10ABB000CDE9041012A20026CDE90252CDE90056DB
:10ABC0004FF6E16233463946204600F0B0FC0420DF
:10ABD000009605900BA10DA2CDE90321CDE90165F9
:10ABE0004FF6E26201233946204600F0A0FC0BB08C
:10ABF000F0BDFFE70E20FAE778F201006162620023
:10AC0000575F4E0061626162000000004E0000006C
:10AC10001CB5FF2206216846FDF7B5FB0C486DDF29
:10AC2000062269460B48FDF7C0FB0A49084A10395D
:10AC3000921E38B1086942F8030F888A9080044850
:10AC40006CDF1CBD52F8030F0861908888821CBD20
:10AC5000DD2A0020902D0020007800F001007047D0
:10AC60000A780270497841700220704708B502F0F6
:10AC70005FF918B10CA2C721FFF79AF800200090E5
:10AC80006946012002F03CF818B107A2CD21FFF778
:10AC90008FF8684602F080F8002803D002A2D12184
:10ACA000FFF786F808BD00002E2E5C6D6F6B6F5F9E
:10ACB0007372635C626C655C626C655F696E69741B
:10ACC0002E6300002DE9F04107464FF01020DFF819
:10ACD000548040694FF43C340C2909D0A0421ED066
:10ACE000FDF7D8FB21464046BDE8F04100F09CBC92
:10ACF000FDF7D0FB3D687E68BF682146404600F006
:10AD000093FC084829466C3000F08EFC054831461B
:10AD1000703000F089FC034839467430E4E7BDE840
:10AD2000F081000014100010022802D10149012016
:10AD300088707047742B0020022802D1014901203D
:10AD400008707047252B002005494FF0FF32082876
:10AD500041F8202002D3084480F8482070470000C2
:10AD6000A4310020F0B54FF0FF3512B100230826C2
:10AD700001E008230C260C4C05E000BF54F82370BA
:10AD80007F1C04D05B1CB342F8D32846F0BD2618C4
:10AD90005DB286F8305044F82310002AF5D1E1184E
:10ADA00081F84800F1E70000A4310020024908447E
:10ADB00090F9300070470000A431002030B50546FE
:10ADC00005480C46002241684FF4083000F0E4F8D2
:10ADD0002880208030BD0000742B00204FF4093003
:10ADE000FDF782BC0C490D4800220B784BB14FF0A7
:10ADF000A043D3F810359B0E13F0010F03D00A7057
:10AE00007047C2707047C178491CC9B2C17002292D
:10AE1000F8D1012141707047032B0020042B002042
:10AE200010B5074C6178002909D02269521E2261B1
:10AE300005D101460348FFF76BFCE068206110BDB7
:10AE4000742B0020F0360020014900200870704764
:10AE5000022B002070B5084C050009D01034216881
:10AE6000002907D008682060496828468847F6E727
:10AE70000834F4E770BD0000903100202DE9F05F48
:10AE800026484168F1B3DFF898B00E688146DBF8D8
:10AE9000004087688078E11B21F07F45ED1CB0B948
:10AEA000DFF880804FF48030C8F84403C8F804030A
:10AEB0001120FDF747FE1120FDF74FFE4FF0010A6C
:10AEC000C8F800A02F2001F01DFA89F802A0B542B1
:10AED00000D23546124BE8193C3320F07F40186011
:10AEE000DBF800105A46091B21F07F41001B20F0BF
:10AEF0007F40C91C81420FD9106818602F2001F0D3
:10AF000001FA00E004E0BDE8F05F1120FDF730BE7B
:10AF1000BDE8F05F02F0FCBBBDE8F09F3C2B0020D9
:10AF2000041501400010014002A24FF4A971FEF780
:10AF30003FBF00002E2E5C6D6F6B6F5F7372635CA2
:10AF4000626C655C626C655F696E69742E6300009B
:10AF500038B54A7A0F4B62B100220A72596900294A
:10AF600006D001228DF80020ADF80200684688471F
:10AF700038BD0A7A62B19B684C6802461946204681
:10AF8000FEF792FF0028F3D0BDE8384002F0D2BCB3
:10AF90005B68F1E7BC30002010B5044612B11088A0
:10AFA000002211E04FF6FF70FAE7030A43EA00239C
:10AFB000A05C5840C0F30313584080EA003080B2D0
:10AFC000C3B280EA4310521C8A42EED310BD000087
:10AFD00030B50346FF2031240FE000BF13F8012BEA
:10AFE00050400822050602D584EA400000E04000F7
:10AFF000521EC0B212F0FF02F4D1491EC9B2EDD206
:10B0000030BD10B50346002240F2FB2403E0204689
:10B0100000F004F8521C9A42F9D310BD002100E060
:10B02000491C8142FCD3704770B5FFF7DBFE03F08B
:10B030008FF8154C6078002815D0002565702079B0
:10B0400090B101280FD111A10020FDF7DBFFFFF720
:10B05000C7FB012200214FF4FA6000F0B9FC03F0B5
:10B0600077F82570257170BD0DA10020FDF7CAFF8E
:10B0700032211422084600F0ABFC02F0B1FC0120A2
:10B080002070207170BD0000042B0020646576697B
:10B090006365206F66662E2E2E2E2E2E200D0A0042
:10B0A000646576696365206F6E2E2E2E2E2E2E20FF
:10B0B0000D0A000030B58FB005461C216846FDF72B
:10B0C00069F900249DF80000019440F018008DF803
:10B0D00000000394049405940694A8798DF8360032
:10B0E00041F23150ADF834000C949DF83000142139
:10B0F00020F0FF008DF830009DF8310020F00F00A7
:10B10000401C20F0F00010308DF831009DF8320026
:10B1100020F00600801C20F0080040F011008DF89F
:10B12000320007A8FDF736F90DA807900CA8089083
:10B13000ADF824401720ADF82640ADF828000B9458
:10B14000A88805F1100307AA6946A2DF0FB030BD39
:10B1500030B58FB005461C216846FDF71BF9002469
:10B160009DF80000019440F004008DF80000039465
:10B17000049405940694A8798DF8360041F2325073
:10B18000ADF834000C949DF83000142120F0FF003D
:10B190008DF830009DF8310020F00F00401C20F0A9
:10B1A000F00010308DF831009DF8320020F00600DC
:10B1B000801C20F0180040F001008DF8320007A834
:10B1C000FDF7E8F80DA807900CA80890ADF824400A
:10B1D0001420ADF82640ADF828000B94A88805F19E
:10B1E000080307AA6946A2DF0FB030BD01484068D6
:10B1F000FDF768B9742B00200A460146014802F0A9
:10B2000051B900008C2B0020C1EBC10101EB4102C0
:10B2100001461423014802F06FB900008C2B002076
:10B220000A4610B50146054802F071F9040003D042
:10B230000121024802F020F9204610BD8C2B00208D
:10B2400070B58EB00E4605461C216846FDF7A2F883
:10B2500000249DF80000019440F002008DF80000E9
:10B260000394049405940694A8798DF8360041F26D
:10B270003450ADF834000C949DF83000142120F0C7
:10B280000F00401C20F0F00010308DF830009DF8C9
:10B29000310020F0FF008DF831009DF8320020F0E1
:10B2A0000600801C20F0180040F001008DF83200EC
:10B2B00007A8FDF76FF80DA807900CA808900220CA
:10B2C000ADF82400ADF82640ADF828000B96A8880C
:10B2D00005F1200307AA6946A2DF0EB070BD000089
:10B2E00001460148FFF7CEB9F03600203EB50020F8
:10B2F00000900820ADF8000008480190084802902E
:10B3000069460848FFF778F9041E04D006A240F207
:10B31000D311FEF74DFD20463EBD000095D2010041
:10B3200045D90100F03600202E2E5C6D6F6B6F5FEB
:10B330007372635C6466755C6E72665F6466752EBC
:10B340006300000070B50A4D002300F50830AB70B3
:10B3500029DF002442F21076642001F019F8A87861
:10B36000002803D1641CA4B2B442F5D370BD000020
:10B37000742B00200E4910B50A784C780023A242A5
:10B3800012D0521CD2B20A70022A00D10B70084AA5
:10B390000B780C3252F8232002608868104420F0A9
:10B3A0007F408860012010BD0360002010BD0000B8
:10B3B0003C2B00202DE9F04205468C1DC8886A8987
:10B3C0001231012600278946904212D16089022855
:10B3D0000FD10846FFF740FC10B185F8266001E068
:10B3E00085F8267095F8263042460FA10020FDF71B
:10B3F00009FE2088698A884212D1608902280FD10B
:10B400004846FFF729FC10B185F8276001E085F870
:10B41000277095F82730424603A10020FDF7F2FD82
:10B420000120BDE8F0820000656E61626C652066F7
:10B43000656525783D25640D0A00000038B5044691
:10B440001D480D4600210068009003208DF8010082
:10B450001A2C04D0082C05D01C2C05D00AE08DF83D
:10B46000000005E00220FAE78DF800008DF80110D9
:10B470008DF8031001F04CF930B901F01BF918B147
:10B480000EA25921FEF794FC75B1144A6946204674
:10B4900001F090F818B109A25F21FEF789FC0121A3
:10B4A000204601F035F838BD204601F00DF8204661
:10B4B00001F0DCF838BD000090F201002E2E5C6D2A
:10B4C0006F6B6F5F7372635C6472697665725C67E1
:10B4D00070696F5F696E69742E630000DDD30100CF
:10B4E00030B50446006885B00D46806800281CD041
:10B4F00014216846FCF74EFF0195A068049020795E
:10B5000010B101280DD104E001208DF80000206960
:10B5100004E002208DF80000E068000302906069FA
:10B520000390206881686846884705B030BD2DE9E2
:10B53000F04F8FB0054619A8984690E8C004914690
:10B5400000241C2101A8DDF860B0FCF723FF2EB118
:10B550009DF8040040F002008DF80400BBF1000FDC
:10B5600005D09DF8040040F00C008DF804009DF813
:10B570000400CDF808A067F304108DF804000494CB
:10B5800005940694079428788DF83600ADF8349029
:10B590000094002E0BD09DF8000020F00F0000F169
:10B5A000010020F0F00000F110008DF800009DF87F
:10B5B000010020F00F0000F1010020F0F00000F188
:10B5C00010008DF801009DF8020020F0060000F147
:10B5D00002008DF8020003D020F008008DF8020070
:10B5E00000F0EF0040F001008DF802004FF0140170
:10B5F00008A8FCF7CFFE0DA80890CDF824D01D9820
:10B60000ADF828001420ADF82C001C98ADF82A40A5
:10B6100005EBC8030C90688808AA01A99B1DA2DF4E
:10B620000FB0BDE8F08F0000084B10B501221A6082
:10B63000074A1468002CFCD0016010680028FCD078
:10B640000020186010680028FCD010BD04E50140FF
:10B6500000E40140084B48881B88984207D10888BD
:10B66000A0F52063773B02D18888C01E82B203A177
:10B670000020FDF7C7BC0000C02A00205B67617492
:10B68000745F6576745F68616E646C65725D2020BE
:10B690006D5F626C655F6E75735F6D61785F64612D
:10B6A00074615F6C656E200D0A00000010B50C49D6
:10B6B0000C4800F0C5FB20B10BA24FF48171FEF7DE
:10B6C00077FB1721074800F0B1FB002806D0BDE842
:10B6D000104005A240F20511FEF76ABB10BD000044
:10B6E00055B60100082C00202E2E5C6D6F6B6F5F2D
:10B6F0007372635C626C655C626C655F696E6974D1
:10B700002E6300000148007870470000092B0020DC
:10B710000148007870470000E42A002010B500249A
:10B72000FFF7F0FF00B10124204610BD014800885A
:10B7300070470000C02A0020084808B54178491C1D
:10B74000C9B241700A2908D300214170684649DF17
:10B7500003A10020009AFDF755FC08BDDB2A00205C
:10B760005B6E726635325F636869705D2020746558
:10B770006D703D25780D0A00014800787047000083
:10B78000022B0020401A20F07F402121B0FBF1F075
:10B79000704700000F4A30B410708300517003F1FD
:10B7A000A04340F20C62C3F800278B0003F1A043D2
:10B7B000C3F80027012202FA01F307491C460B6077
:10B7C000054B10331C6082400A601A6030BC03F0E5
:10B7D0009FB90000262B0020080500502DE9FF5FCF
:10B7E000DFF8D490DFF8D4B0012699F800001546B0
:10B7F00006FA00F00F46CBF800003046FFF70EFCCB
:10B8000003F086FA0BF1040AE0B199F800004C4607
:10B8100006FA00F0D046CAF800000120FFF7FEFB50
:10B82000617806FA01F0C8F800000120FFF7F6FB86
:10B83000B046009803F0BAF900EA08040098C0077F
:10B840000AD116E04FF00008F3E75DB10121384658
:10B8500003F00AFA04407F1C6D1EADB20ED3002C1B
:10B86000F3D10BE00021F2E7387803F09FF90440B0
:10B870007F1C6D1EADB201D3002CF5D1039834EAC4
:10B88000000015D199F800004D4606FA00F0CAF8FC
:10B8900000000120FFF7C2FB03F03AFA38B1287824
:10B8A0008640CBF800600120FFF7B8FB0120044080
:10B8B00004B02046BDE8F09F262B0020080500506C
:10B8C00010B50E48022101230170437006238370D6
:10B8D0001A23C370FF2303714C230022437182712A
:10B8E000C1711521044C01720A460930E11CFCF7B4
:10B8F00038FD1E20607010BDC22A0020302C0020B0
:10B900000A480223002103700A2343708170092131
:10B91000C170017106A1044A0B6840F8053F4968EF
:10B9200041600D2090707047C22A00204F2C0020EB
:10B93000424C452041504953000000000549012276
:10B9400042F210730A70C8700022C1E901324A61E4
:10B9500070470000742B00200146034802888A4289
:10B9600000D0002070470000A83000200448008864
:10B97000A0F57F41FF3901D00120704700207047BA
:10B98000C02A0020F0B58488A518944200D8224629
:10B99000A41AC288D6189A4200D81346D21A4B88E5
:10B9A0000788BB420CD34088834209D88888A042CC
:10B9B00006D3A84204D8C888904201D3B04201D926
:10B9C0000020F0BD0120F0BD01211A20FFF736BD97
:10B9D00070B53223B0FBF3F0074C0025A080B1FB1B
:10B9E000F3F0E0802281012125701A46084602F01A
:10B9F00047FB657070BD0000F82A00200249032053
:10BA0000C1F8000700F002B80C00005010B5074A5A
:10BA100001210748FEF70AFA002805D0BDE81040CA
:10BA200004A22F21FEF7C4B910BD0000EDBA010039
:10BA30008CF201002E2E5C6D6F6B6F5F7372635C16
:10BA40006472697665725C6C65645F6D616E616776
:10BA5000652E630070B5244C607800281CD0401E11
:10BA6000607020462378018982880125ABB1408827
:10BA7000401E80B2012B1ED0022B0DD16080002809
:10BA80000AD1491E0804000C208120D062800121C7
:10BA9000032001F0D3F8257070BD0029FCD062802E
:10BAA0000121032001F0CAF8608800B96580207880
:10BAB000401C207070BD60800028FBD1E088608051
:10BAC00000B965800021032001F0B8F8EFE70020FD
:10BAD00020703222012102F0D3FABDE8704000212B
:10BAE000032001F0ABB80000F82A0020024841789A
:10BAF000491C417070470000F82A002006490120C7
:10BB0000086006480168C1F300410029FAD10449E0
:10BB100000208870704700000C00004018040040AE
:10BB20009031002017210180418000210171417175
:10BB300070470000F8B5FF202A4A8DF80000032066
:10BB40004FF0A041C2F8000701267007C1F80805B0
:10BB500007221E211F2002F061FA44F6206000F047
:10BB6000B1FA0024204D274669460F20FCF7DEFE7F
:10BB70009DF80000332806D0641CE4B22F70032C1B
:10BB8000F2D30020F8BD2E7018A10020FDF73AFA7C
:10BB900028780028F5D04020FCF72AFF0120FCF788
:10BBA00097FE2A213020FCF7AFFF14213220FCF74A
:10BBB000ABFF01213320FCF7A7FF0020FCF79EFE1E
:10BBC0000120FCF727FF0720FCF7D4FE0220FCF73A
:10BBD00083FF0020FCF7F4FE0220FCF793FD012018
:10BBE000F8BD000074000050092B00205B3344486E
:10BBF0005D202068617665206C69733364682E2E41
:10BC00002E2E0D0A000000002DE9F047394E0027C6
:10BC100080463D46DFF8E090D6F804A057E003D018
:10BC20000446D0F81C8035E099F8002002EB420170
:10BC3000521CD2B289F8002009EBC10199F80230F8
:10BC4000091D9A4201D189F8005048680A780446D3
:10BC5000012A12D0022A02D0032A3BD108E002F0C6
:10BC6000C9FE00B10127257434E00574C06900E005
:10BC700070680028F9D170602CE0207C50BB886887
:10BC80006060C868A0600869E0604869A061F078F9
:10BC900000B165606268B168184B501A20F07F40AF
:10BCA000984202D2A168084406E0881AA16820F0F0
:10BCB0007F40814202D9081A206000E0256065605B
:10BCC0000120A56020742046E56102F075FEB8F100
:10BCD0000000A4D199F8001099F801008142A3D185
:10BCE00017B97168514502D00120BDE8F0870020E6
:10BCF000FBE700003C2B002068320020FFFF7F00A4
:10BD000008B518A000901AA301221CA10020FDF77D
:10BD100079F94FF08050D0F80C0128A18202002060
:10BD2000FDF770F900210846FEF7CCFFFDF704F897
:10BD3000FEF7F4FA01203DDF27A10020FDF762F9AC
:10BD4000FDF722F8FFF786FE02F01CFC02F0D4FD9E
:10BD500002F0D0FA02F0AEFD02F044FDFCF7C8FBA1
:10BD6000EEE7000031323A32383A33330000000057
:10BD70004D61792031372032303232002D2D2D2D7A
:10BD80002D63757272656E74207379732076657297
:10BD9000206973202573202C6C617374206D6F648F
:10BDA0006966792074696D65206973202573202583
:10BDB00073202D2D2D2D2D2D0D0A00002D2D2D63E1
:10BDC0006869702072616D2073697A6520697320DB
:10BDD00025780D0A000000006465766963652073AC
:10BDE000746172742E2E2E2E2E2E2E2E2E0D0A00E3
:10BDF00010B50A8849888A4203D1FCF74DFA012020
:10BE000010BD002010BD70B50C460546FCF727FAA2
:10BE1000002802D061882868084470BDC20800F07C
:10BE200007030120895C98400840704718B1172922
:10BE300003D0072070470E20704701800020704714
:10BE400010B560B1C160172120F8021B20F8021B59
:10BE50001B2100F8021BFFF765FE002010BD0E201D
:10BE600010BD00002DE9FC4786880C46002E4AD103
:10BE7000018801270025102908D0112920D0DFF8DA
:10BE8000EC903A2920D0552965D13EE0C07B04F1E1
:10BE90000608012802D12088A8F80000B8F8001090
:10BEA000B8F80200814256D930469EDF10B1112801
:10BEB00003D050E088F805704DE088F804704DE03C
:10BEC000A01DFFF72FFE46E02246408934F8061FEA
:10BED000814200D808466080172800D21720608071
:10BEE000D06870B1607960B1D9E90010CDE9001077
:10BEF000ADF802606088ADF80400D368694610466A
:10BF0000984765712571BDE8FC87C08804F1060873
:10BF1000172800D21720B8F80010814200D8084630
:10BF2000A8F8020088F804502846B8F80010ADDFE1
:10BF300098F8050078B9E06868B1D9E90210CDE950
:10BF40000010ADF80260B8F80200ADF80400E26835
:10BF5000204669469047A07A0028D4D02846E18838
:10BF60009EDF0028CFD1A572E772CCE7ACF20100CA
:10BF700000F180400068002800D00120704708B51B
:10BF800000F18040002101600068009008BD10B5FC
:10BF900004464FF47A7104FB01F000F0D9F810BDAB
:10BFA0004FF47A71484300F0F3B9000000283ED006
:10BFB0001F49204A096800BF00BF00BF00BF00BF83
:10BFC00000BF00BF00BF91422FD000BF00BF00BF25
:10BFD00000BF00BF00BF00BF00BF00BF00BF00BF69
:10BFE00000BF00BF00BF00BF00BF00BF00BF00BF59
:10BFF00000BF00BF00BF00BF00BF00BF00BF00BF49
:10C0000000BF00BF00BF00BF00BF00BF00BF00BF38
:10C0100000BF00BF00BF00BF00BF00BF00BF00BF28
:10C0200000BF00BF00BF00BF00BF0138C3D17047D1
:10C03000702B00200024F40000283ED01F49204A25
:10C04000096800BF00BF00BF00BF00BF00BF00BF46
:10C0500000BF91422FD000BF00BF00BF00BF00BF94
:10C0600000BF00BF00BF00BF00BF00BF00BF00BFD8
:10C0700000BF00BF00BF00BF00BF00BF00BF00BFC8
:10C0800000BF00BF00BF00BF00BF00BF00BF00BFB8
:10C0900000BF00BF00BF00BF00BF00BF00BF00BFA8
:10C0A00000BF00BF00BF00BF00BF00BF00BF00BF98
:10C0B00000BF00BF00BF0138C3D17047702B002004
:10C0C0000024F40000283ED01F49204A096800BF20
:10C0D00000BF00BF00BF00BF00BF00BF00BF914254
:10C0E0002FD000BF00BF00BF00BF00BF00BF00BF18
:10C0F00000BF00BF00BF00BF00BF00BF00BF00BF48
:10C1000000BF00BF00BF00BF00BF00BF00BF00BF37
:10C1100000BF00BF00BF00BF00BF00BF00BF00BF27
:10C1200000BF00BF00BF00BF00BF00BF00BF00BF17
:10C1300000BF00BF00BF00BF00BF00BF00BF00BF07
:10C1400000BF0138C3D17047702B00200024F400D9
:10C1500000B9704700BF00BF00BF00BF00BF00BFF5
:10C1600000BF00BF00BF1F4909681F4A914200D1AC
:10C1700030E000BF00BF00BF00BF00BF00BF00BF76
:10C1800000BF00BF00BF00BF00BF00BF00BF00BFB7
:10C1900000BF00BF00BF00BF00BF00BF00BF00BFA7
:10C1A00000BF00BF00BF00BF00BF00BF00BF00BF97
:10C1B00000BF00BF00BF00BF00BF00BF00BF00BF87
:10C1C00000BF00BF00BF00BF00BF00BF00BF00BF77
:10C1D00000BF00BF01460139084600D0BBE700BFE1
:10C1E000B7E70000702B00200024F40000283ED0A8
:10C1F0001F49204A096800BF00BF00BF00BF00BF41
:10C2000000BF00BF00BF91422FD000BF00BF00BFE2
:10C2100000BF00BF00BF00BF00BF00BF00BF00BF26
:10C2200000BF00BF00BF00BF00BF00BF00BF00BF16
:10C2300000BF00BF00BF00BF00BF00BF00BF00BF06
:10C2400000BF00BF00BF00BF00BF00BF00BF00BFF6
:10C2500000BF00BF00BF00BF00BF00BF00BF00BFE6
:10C2600000BF00BF00BF00BF00BF0138C3D170478F
:10C27000702B00200024F40000283ED01F49204AE3
:10C28000096800BF00BF00BF00BF00BF00BF00BF04
:10C2900000BF91422FD000BF00BF00BF00BF00BF52
:10C2A00000BF00BF00BF00BF00BF00BF00BF00BF96
:10C2B00000BF00BF00BF00BF00BF00BF00BF00BF86
:10C2C00000BF00BF00BF00BF00BF00BF00BF00BF76
:10C2D00000BF00BF00BF00BF00BF00BF00BF00BF66
:10C2E00000BF00BF00BF00BF00BF00BF00BF00BF56
:10C2F00000BF00BF00BF0138C3D17047702B0020C2
:10C300000024F40000283ED01F49204A096800BFDD
:10C3100000BF00BF00BF00BF00BF00BF00BF914211
:10C320002FD000BF00BF00BF00BF00BF00BF00BFD5
:10C3300000BF00BF00BF00BF00BF00BF00BF00BF05
:10C3400000BF00BF00BF00BF00BF00BF00BF00BFF5
:10C3500000BF00BF00BF00BF00BF00BF00BF00BFE5
:10C3600000BF00BF00BF00BF00BF00BF00BF00BFD5
:10C3700000BF00BF00BF00BF00BF00BF00BF00BFC5
:10C3800000BF0138C3D17047702B00200024F40097
:10C3900000283ED01F49204A096800BF00BF00BFE7
:10C3A00000BF00BF00BF00BF00BF91422FD000BF41
:10C3B00000BF00BF00BF00BF00BF00BF00BF00BF85
:10C3C00000BF00BF00BF00BF00BF00BF00BF00BF75
:10C3D00000BF00BF00BF00BF00BF00BF00BF00BF65
:10C3E00000BF00BF00BF00BF00BF00BF00BF00BF55
:10C3F00000BF00BF00BF00BF00BF00BF00BF00BF45
:10C4000000BF00BF00BF00BF00BF00BF00BF0138BA
:10C41000C3D17047702B00200024F40070B50F4C7E
:10C420000025207808B1852516E00021A160616013
:10C430002161E1604FF0E020D0F80001012610F00A
:10C44000010F03D10721002000F022F800F0ACFD1D
:10C4500008B9034806602670284670BD9031002058
:10C460001805004008B500208DF800006846FDF76B
:10C47000DDFD0648C168491EC160C06808B9FFF704
:10C480003DFB9DF80000FDF7F5FD08BD9031002053
:10C490004907090E002806DA00F00F0202F1E02237
:10C4A00082F8141D03E000F1E02282F8001400F08D
:10C4B0001F02012191404009800000F1E020C0F8F6
:10C4C0008012C0F80011704710B5044600F06EFFEE
:10C4D00028B12046BDE81040002100F09EBB204658
:10C4E00000F070FF00280FD02046FEF75FFC074ADF
:10C4F00002EB8001D1F8103523F00103C1F81035AB
:10C5000001218140C2F8081310BD00000060004006
:10C510002DE9F0418846054600F048FF234E0028EB
:10C5200028461AD0FEF742FC304490F848008009B3
:10C53000032802D001280ED007E04FF0A040D0F829
:10C540001005E84010F0010F05D003212846BDE892
:10C55000F04100F062BB0221F8E700F033FF002851
:10C5600022D02846FEF722FC04464FF4807000EBF0
:10C5700084000F4F81B207EB8400D0F8102542F001
:10C580000102C0F81025084600F082FBB8F1000F48
:10C590000AD02846FEF70AFC56F82000002803D0EF
:10C5A0000120A040C7F80403BDE8F081A4310020B9
:10C5B000006000402DE9FC41DFF8A480044608EB50
:10C5C0000400002790F930001346C0170E46401CA7
:10C5D00001D0082741E0F27819462046FEF7C2FB59
:10C5E0000546401C38D0B07850B14FF0A04000EB69
:10C5F0008400D0F8001721F00201C0F8001707E00E
:10C6000000217378204600910A46019100F0A6FAB5
:10C61000F078C0B11348317800EB8500D0F81025D0
:10C62000114B1A40C0F810254FF4F8524FF4403324
:10C6300002EA042203EA01410A43D0F810150A4332
:10C64000C0F8102509E008EB0500327810F8481F03
:10C6500041EA8211017000E004273846BDE8FC8100
:10C66000A431002000600040FFE0FCFF10B504464C
:10C67000FFF72AFF204600F0A5FE40B12046FEF756
:10C6800095FB0A4A002102EB8000C0F810152046F5
:10C6900000F088FA2046FEF789FBC0B2FEF754FB93
:10C6A0000349FF20214481F8300010BD00600040A4
:10C6B000A431002070B5144D95F8540008B108203D
:10C6C00070BD0020411E2A18401CC0B282F83010F4
:10C6D0002028F8D300242046FEF736FB641CE4B281
:10C6E0000C2CF8D307210620FFF7D2FE4FF4BE70C2
:10C6F00000F0CEFA05494FF00040C1F804030120D4
:10C7000085F85400002070BDA43100200060004076
:10C71000034890F85400002800D001207047000022
:10C72000A43100200121B1EB507F01D101207047DD
:10C73000002070472DE9F04105460F4600791F495A
:10C74000C0EBC00001EB80041646E07E10B108206B
:10C75000BDE8F08139462846FDF7A6FC66603869D9
:10C760002060F6B13E7F4FF48871286800F0CBFC62
:10C770004FF49071286800F0C6FC4FF4927128685D
:10C7800000F0C1FC4FF4A271286800F0BCFC2868DE
:10C790000B49C0F8041328683146000B40B2FFF77C
:10C7A00077FE28680821C0F800150020E075207683
:10C7B000A0750121E176A076CAE70000FC310020D7
:10C7C000100302002DE9F04105460E460079184994
:10C7D000C0EBC00001EB800417463046FFF7A2FF14
:10C7E00098B1616800234FF4047011B12968C1F851
:10C7F0000803E17D79B1217E49B1616811B12968F1
:10C80000C1F804031120BDE8F0811020FBE7266188
:10C810000123277604E0E7750020E6606076207645
:10C820003A4631462846BDE8F04100F005B8000020
:10C83000FC310020704700002DE9F05F8946044676
:10C840004FF488759A46904600260068294600F005
:10C850005AFC4FF4A2773946206800F054FC206857
:10C86000C0F83495C0F838852068BAF1000F16D0AA
:10C87000D0F8001241F02001C0F800122079DFF852
:10C880006C80C0EBC00108EB8100406850B12068AB
:10C890004FF40471C0F804133046BDE8F09F012145
:10C8A0000160EBE7AA46B9464FF4927B51462068F7
:10C8B00000F024FC07464946206800F01FFC0546AE
:10C8C0005946206800F01AFC014647EA0500084373
:10C8D000ECD020790022C0EBC00308EB8300C275C6
:10C8E00001B10326002DD7D00F26D5E7FC3100205B
:10C8F0002DE9F04704460079254FC0EBC00007EB57
:10C90000800590460E460846FFF70CFF30B12046E2
:10C9100000F040F820B11120BDE8F0871020FBE7BF
:10C9200085F816804FF00008AE60A5F814802079D5
:10C930004FF49079C0EBC00007EB800546464946AE
:10C94000206800F0E0FB4FF4AC773946206800F037
:10C95000DAFB2068A97DAA68C0F84425C0F848150C
:10C96000206801218160686880B9CA46B94651468D
:10C97000206800F0C3FB07464946206800F0BEFB74
:10C980000743F4D000B10F2685F816803046C3E780
:10C99000FC31002000790549C0EBC00001EB8000AC
:10C9A000807D002800D0012070470000FC3100206D
:10C9B0002DE9F041024600792549C0EBC00001EBAA
:10C9C000800710684FF00008C0F80085786880B1D3
:10C9D00010682049C0F8081310680121000B40B20C
:10C9E00000F01F0399404009800000F1E020C0F8EA
:10C9F00080111068D0F80C35D0F81465D0F80855BF
:10CA0000D0F810454FF0FF31C0F80C15C0F81415E0
:10CA10001068C0F80815C0F81015581C02D0184648
:10CA200000F0C9F8701C02D0304600F0C4F8601C59
:10CA300002D0204600F0BFF8681C02D0284600F063
:10CA4000BAF887F81B80C7F80480BDE8F0810000C1
:10CA5000FC31002010030200044801214174007AD7
:10CA600008B1002070470120704700006C3400209E
:10CA7000012801D0032808D10449002201284A7462
:10CA800000D00020087400F059BD70476C340020BD
:10CA900070B5254C0246207A012837D0022841D1B2
:10CAA00022480023022A006802D0032A2ED11BE06C
:10CAB000E360017911B1012928D10DE0D0E90565C4
:10CAC000711B4FF48056B14200D331462944816135
:10CAD0004569A9420ED019E00169491C016142690A
:10CAE000914213D1237217E0E168491CE1600829E3
:10CAF0000CD9E3602372022A0ED00D21FEF7F0FC60
:10CB00000B480A49091D0068FFF772F9607C28B1DB
:10CB1000BDE8704000F04EBA0021EFE7BDE870407C
:10CB200000F00CBD70BD00006C340020502B0020C4
:10CB3000C0F20100F0B5DDE9054500BF4FF0A047A8
:10CB40003E4641EA420747EA830747EA042747EAA5
:10CB5000054C06F5E06747F820C0F0BD70B541EA26
:10CB60004201DDE904564FF0A04441EA830141EA65
:10CB7000052104EB800041EA0641C0F8001770BDB2
:10CB800070B541EA4201DDE904564FF0A04441EAA4
:10CB9000830141EA052104EB800041EA0641C0F827
:10CBA000001770BD1CB5002100910B4601220191B8
:10CBB000FFF7D4FF1CBD1CB5002100910B460122DC
:10CBC0000191FFF7DDFF1CBD4FF0A042002302EBF7
:10CBD000800043EA8101C0F8001770471CB50022AD
:10CBE0000B46009211460192FFF7CAFF1CBD1CB50F
:10CBF0000446002000900346012211460190204681
:10CC0000FFF798FF1CBD1CB5002100910B460122C7
:10CC100001911146FFF7B4FF1CBD4FF0A04202EB9B
:10CC20008000D0F8002722F44032C0F80027D0F866
:10CC3000002742EA0141C0F80017704701224FF077
:10CC4000A043824011B1C3F808257047C3F80C25F2
:10CC5000704701224FF0A043824011B1C3F808256C
:10CC60007047C3F80C25704718B5084B6C46014453
:10CC70001B68009306E000BF54F82030D3F810354D
:10CC8000401C08C28142F7D818BD0000BCF2010068
:10CC9000034908B50844002101600068009008BD00
:10CCA0000060004002494058012800D00020704731
:10CCB00000600040024A1060101D016070470000D3
:10CCC0002C76004002494058002800D001207047CF
:10CCD00000700040034908B5084400220260006863
:10CCE000009008BD00700040014609B90E20704751
:10CCF0000248006808600020F9E7000094F4010091
:10CD0000FEB505460C462046FFF7EEFF06460EB17F
:10CD10003046FEBD00200090019002908DF800503A
:10CD200001208DF802000321ADF80410694620208F
:10CD3000226869DF064600200090019002900120E1
:10CD40008DF8000069464020226869DF0646002011
:10CD500000900190029003208DF8000069460120A8
:10CD6000226869DF064600200090019002904FF48F
:10CD7000AF5000906946A120226869DF0646002076
:10CD80000090019002908DF800006946A020226872
:10CD900069DF06460020BCE72DE9F041044625681E
:10CDA0002A4611A10020FCF72DF9204660DF064637
:10CDB0002068A84214D02A4612A100202368FCF75C
:10CDC00021F900F007FC2168471A3A4619A1002012
:10CDD000FCF718F900F0FEFB2168401A1E490860B4
:10CDE0003046BDE8F081000052414D2073746172FD
:10CDF000747320617420307825782E2E2E2E0D0A23
:10CE00000000000052414D20737461727473206100
:10CE10007420307825782C2063616E206265206153
:10CE2000646A757374656420746F20307825782E79
:10CE30000D0A000052414D2073697A652063616ECE
:10CE40002062652061646A757374656420746F2064
:10CE5000307825782E0D0A006C2B00202DE9F0414A
:10CE600090B080461CE02C20049004A905A861DF46
:10CE7000044604B115E005AD114901A800F0E0F841
:10CE800009E000BF03980646376828467168B8472E
:10CE900001A800F0ECF800BF03980028F1D100BF12
:10CEA000E1E700BF052C07D000BF06A24FF4917147
:10CEB0002046FCF77DFF00BF10B0BDE8F081000008
:10CEC00088F401002E2E5C636F6D706F6E656E745A
:10CED000735C736F66746465766963655C636F6DBC
:10CEE0006D6F6E5C6E72665F7364685F626C652EF8
:10CEF0006300000010B50D4C2078A0B10120A07097
:10CF000000F082FC11280CD0022000F095FC11DF0B
:10CF1000002807D12070A07000F028FE032000F048
:10CF20008BFC002010BD082010BD0000682B0020E5
:10CF300038B5114C207808B1082038BD0125A570FE
:10CF4000002000F061FC112814D0002000F074FCD7
:10CF50000A480B4900680090684610DF0028ECD1B1
:10CF60002570A070607001F0FFF800F033FE012022
:10CF700000F062FC002038BD682B002004F40100A2
:10CF8000859C01000EB50749684600F059F805E098
:10CF9000D0E900108847684600F069F80298002838
:10CFA000F6D10EBD20F40100014800787047000062
:10CFB000682B00200548817819B1007818B1FFF777
:10CFC00099BF08207047FFF7B3BF0000682B00200F
:10CFD0001FB5684648DF40B1052816D004B00BA243
:10CFE000BDE810406B21FCF7E3BE144901A800F036
:10CFF00027F806E0D0E900210098904701A800F04A
:10D0000036F803980028E4D0F4E71FBD2E2E5C63A9
:10D010006F6D706F6E656E74735C736F667464654C
:10D02000766963655C636F6D6D6F6E5C6E72665F73
:10D030007364685F736F632E630000005CF401002B
:10D04000016009684160AFF3008010B5D0E90021AC
:10D050005368994201D1002104E0D1E90034A34290
:10D0600002D01946816010BD08314160F0E7816847
:10D0700000290BD0026892680A44826041684B68BC
:10D080009A4203D108314160FFF7DFBF70470000CB
:10D0900010B50446FDF7AEFB2146044800F064F9E4
:10D0A0002046BDE81040FEF71BB90000802C002090
:10D0B0000C4A10B502F1F0030EE0991AC91001EB09
:10D0C000D171491002EBC1010C68844201D90B46B1
:10D0D00002E005D201F108029A42EED3002010BD11
:10D0E000486810BD04F3010000B5FFF7E1FF002818
:10D0F00000D1014800BD0000F0F2010040580028B6
:10D1000000D00120704708B50022425040580090DE
:10D1100008BD50B58DB0140002464FF0EB038DF8FA
:10D1200000308DF801204FF000028DF80220684693
:10D130008DF803404FF0040209D0002305E0CE5CD7
:10D140008654521C5B1C92B29BB2A342F7D3014699
:10D150000020FBF755FD0DB0284650BD0078002893
:10D160000AD106483B21008876DF002804D004A2BB
:10D170004FF4A471FCF71CBE70470000C02A0020C9
:10D180002E2E5C6D6F6B6F5F7372635C626C655C9F
:10D19000626C655F696E69742E6300002DE9F04171
:10D1A0008AB001274FF002080C468DF810808DF8E8
:10D1B00016700989ADF818106189ADF81A1004F1DC
:10D1C0000C010026CDE907160546ADF8208003A81E
:10D1D000ADF822600990A98A288808AAA5DF18B1AD
:10D1E000E96AC1B1884716E003A8FDF735FD90B1A3
:10D1F000ADF81460288804A9A8DF002812D1217B8B
:10D2000004F10D00092943D2DFE801F0420F1D238C
:10D2100026282A402C0040F2FD10ADF81400288882
:10D2200004A9A8DF0AB0BDE8F0818DF800600CE029
:10D2300006221CE08DF808700190AA6A694628460B
:10D2400090470020EEE78DF800706289022AF1D243
:10D25000EEE78DF80080F0E7032012E0042010E0F4
:10D2600005200EE06089032805D203220821284604
:10D27000FDF786FAD6E7B4F80D00ADF8040018B152
:10D2800006208DF80000D8E70720FAE70920F8E724
:10D290000322ECE710B50B781E4A092B2BD2DFE8EE
:10D2A00003F00F1528052A2A2F352B00012204210F
:10D2B000FDF766FA00281ED017A240F2232114E0E1
:10D2C00048680078BDE81040FEF738BB02231370B1
:10D2D0004968097801290ED101220221FDF750FA8F
:10D2E000002808D00CA24FF41571BDE81040FCF7DF
:10D2F0005FBD0320107010BDBDE8104000F01AB8EB
:10D30000012050708888D060106110BD00205070DE
:10D31000D06010BD742B00202E2E5C6D6F6B6F5F84
:10D320007372635C6466755C6E72665F6466752EAC
:10D33000630000000A7A48680A490B78012B06D07E
:10D34000022B0AD0032B07D11146FDF755BFC27A35
:10D35000806862F31F6048607047104430F8020C28
:10D3600088607047742B002070B5054608880C460D
:10D37000102808D0112806D0502805D0572802D1EF
:10D3800009490120087070BD2846FEF713F82046B1
:10D39000A41DEB882288618912309A42F3D1BDE83E
:10D3A0007040C9B2FDF794B8DA2A00200449084455
:10D3B00090F93000082801DB0120704700207047F9
:10D3C000A43100200449084490F93000082801D213
:10D3D0000120704700207047A431002070B54FF045
:10D3E000A044D4F81005124E800E10F0010F4FF03B
:10D3F000010504D175700FA10020FBF703FED4F8DE
:10D400001005000A10F0010F04D135700EA10020A4
:10D41000FBF7F8FDD4F81005000F10F0010F05D050
:10D42000BDE870400EA10020FBF7ECBD70BD000010
:10D43000022B00206B65795F6972715F68616E64B1
:10D440002E2E2E2E0D0A0000554152545F52785F49
:10D4500050494E206973206C6F770D0A0000000060
:10D4600033617869732069727120656E61626C65E1
:10D470002E2E2E0D0A00000030B5002911D00022FA
:10D480000DE0447883789C420BD05B1CC478DBB2FF
:10D49000B3FBF4F504FB1533521C837092B28A423D
:10D4A000EFD330BD2DE9F041044600781546012642
:10D4B000A84201D2054600266278E778531CB3FBE8
:10D4C000F7FC07FB1C33A778BB4200D1002663683A
:10D4D000401C12FB00372A46781CFAF742FF3D70C9
:10D4E0006078E178401CC0B2B0FBF1F201FB1200A1
:10D4F00060703046BDE8F08110B5037000244470C0
:10D5000084705B1C4160B2FBF3F1C17010BD10B5BB
:10D510000B46447881788C4201D1002010BD4468CC
:10D520000078401C11FB004111F8010B10700246FD
:10D530001846FAF716FF012010BD00002DE9F04152
:10D54000214C0025214E207A012730B92048311D79
:10D550000068FEF758FC306038B102202072316854
:10D56000087928B101281ED116E06560BDE8F08178
:10D57000D1E90503C01A4FF48052904200D31046FF
:10D58000B7EB900F01D2820800E001220869C96858
:10D590001844194429DF03E0D1E90301084428DFD6
:10D5A00038B111280ED003213068FDF799FF25729C
:10D5B000DBE7207C0028D9D1BDE8F0410021022022
:10D5C000FFF766BA2772D1E76C340020502B002099
:10D5D000C0F2010002480068810201F1005070476A
:10D5E0000C01001010B54FF434300F4A00680D499B
:10D5F000904209D160230D4A0020145C0C54401C59
:10D6000080B29842F9D308E0002002460A54401C38
:10D6100080B26028FAD301F0E1FCBDE81040FCF7CD
:10D6200087BD0000802D0020E7AAAAAA08D002002A
:10D6300070B568224FF430311E48FBF74BF81D4C93
:10D640002078E72812D16078E7280FD1602268237C
:10D6500019A10020FBF7D6FCA078E17841EA00256B
:10D66000602D09D21BA10020FBF7CCFC01F0B6FC19
:10D67000BDE87040FCF75CBD6019002102790846E6
:10D68000241D03E0235C5940401C80B2A842F9D31A
:10D69000914203D016A10020FBF7B4FC0549D0311C
:10D6A000002003E0225C0A54401C80B2A842F9D357
:10D6B00070BD0000B02C00206C656E5F7265616CFF
:10D6C0003D25642C6275665F73697A656F663D25DA
:10D6D000640D0A00726561642066616C73683A20AB
:10D6E0006C656E206E6F7420747275650D0A000093
:10D6F000726561642066616C73683A2063616C6373
:10D700005F786F72206E6F7420747275650D0A00F9
:10D7100070B5012670044FF0E0210025C1F88001AA
:10D72000084C4010C4F84803C4F8080366602F2072
:10D73000FEF7E8FDA660044C2F20A560FEF7E2FD91
:10D74000A57070BD001001403C2B00201FB50123C7
:10D750008DF800308DF808100192D0E9001268466B
:10D7600090471FBD0149012048707047F42A0020EE
:10D7700070B50D460446FCF7C5F970B12846FCF7B4
:10D78000D3F968B16807000E002C0CDA04F00F0121
:10D7900001F1E02181F8140D09E042F2010070BDB1
:10D7A00042F2020070BD04F1E02484F8000400207D
:10D7B00070BD000038B50021012558B101280ED0F8
:10D7C00003280BD107210020FEF762FEBDE8384098
:10D7D000FEF748BE4FF0E020C0F8805138BD8DF80C
:10D7E00000106846FCF722FC064C207808B9FEF7CA
:10D7F00015FEE068401CE060A5709DF80000FCF795
:10D8000039FC38BD903100203EB5044609496846D0
:10D81000FFF716FC08E000BFD0E900212046904742
:10D8200030B16846FFF723FC02980028F4D13EBDD2
:10D8300011203EBD08F401003EB504460849684683
:10D84000FFF7FEFB07E000BFD0E90021204690472C
:10D850006846FFF70CFC02980028F5D13EBD000099
:10D8600014F4010070B50028049D18D0002916D0CA
:10D87000002A14D05FF0000430F814609E420FD1EB
:10D8800000200123A34008E001EB800426680DB1CD
:10D890001E4300E09E43401C26609042F4D370BDBE
:10D8A000641C202CE8D370BD70B5054600242146C9
:10D8B000284600F00AF808B1204670BD641CA4B2E6
:10D8C000202CF4D34FF6FF7070BD01228A40024233
:10D8D00001D001207047002070472DE9F04192B03F
:10D8E00080464FF0000017460D00009012D0002433
:10D8F0006E46A1B23846FFF7E8FF40B1009935F80F
:10D90000140006EB410188800098401C0090641CC4
:10D91000202CEED3442269464046FAF722FD12B08D
:10D92000BDE8F08108B5009313460122FFF79AFF86
:10D9300008BD000002498969002900D008477047E6
:10D94000BC300020002804D002A24FF4F571FCF78F
:10D950002FBA70472E2E5C6D6F6B6F5F7372635CB6
:10D960006466755C6E72665F6466752E63000000A7
:10D9700010B5044611486DDFFCF772FD1049002018
:10D98000C0F105020B18401CA25CC0B21A74062834
:10D99000F6D3C020487509480A69801E40F8032F55
:10D9A000898A818005486CDF024606A10020FBF7CA
:10D9B00029FBBDE8104000F013B80000DD2A00206C
:10D9C000802D00205B7365745F626C655F6D6163C1
:10D9D0005D206572725F636F64653D25780D0A0096
:10D9E0000149012008707047C22A002038B514464A
:10D9F000002200928DF800001D468DF8011013469C
:10DA0000022269468820FDF7E9FE012322462946C5
:10DA10008920FDF7E3FE38BD08B5002200928DF89D
:10DA200000008DF801100123022269468820FDF7CD
:10DA3000D5FE08BD2DE9FF41002521A100950195E6
:10DA4000D1E90001CDE902011F4A03204FF0A041B6
:10DA5000C2F8000701272020C1F808050F21102077
:10DA6000FDF798FE0A20FDF7CCFAA2213020FFF73F
:10DA7000D3FF93213020FFF7CFFF144E002400BFC7
:10DA800000F046FE1148062269460C30FAF78DFC7C
:10DA900068B10E48062202A90C30FAF786FC30B1B4
:10DAA00037700BA10020FBF7ADFABDE8FF813220F3
:10DAB000FDF7A7FA641CE4B20A2CE1D33570F4E751
:10DAC000FFFFFFFFFFFF0000140000500C2B0020A1
:10DAD0005B53485433585D20686176655F736874A2
