:020000040001F9
:10800000685B0020DD820100E5820100E78201005B
:10801000E9820100EB820100ED8201000000000016
:10802000000000000000000000000000EF820100DE
:10803000F182010000000000F3820100F5820100DE
:10804000F98A0100F78201009D930100F782010087
:10805000F78201000000000061850100298D010008
:10806000F7820100F7820100F7820100F782010028
:10807000F7820100F7820100F7820100F782010018
:10808000F7820100058D0100F7820100F7820100EF
:10809000F5830100F7820100F9830100F7820100F6
:1080A000F7820100F78201000000000000000000DC
:1080B000F7820100F78201000000000000000000CC
:1080C00000000000000000000000000000000000B0
:1080D00000000000000000000000000000000000A0
:1080E0000000000000000000000000000000000090
:1080F0000000000000000000000000000000000080
:10810000000000000000000000000000000000006F
:10811000000000000000000000000000000000005F
:10812000000000000000000000000000000000004F
:10813000000000000000000000000000000000003F
:10814000000000000000000000000000000000002F
:10815000000000000000000000000000000000001F
:10816000000000000000000000000000000000000F
:1081700000000000000000000000000000000000FF
:1081800000000000000000000000000000000000EF
:1081900000000000000000000000000000000000DF
:1081A00000000000000000000000000000000000CF
:1081B00000000000000000000000000000000000BF
:1081C00000000000000000000000000000000000AF
:1081D000000000000000000000000000000000009F
:1081E000000000000000000000000000000000008F
:1081F000000000000000000000000000000000007F
:10820000DFF80CD000F00EF90048004759B8010023
:10821000685B002030B450E8012F93B2C489234436
:108220008489A34228BF1B1B0489A34202BFBFF35A
:108230002F8F002007E0C3EA020340E80134002C3E
:10824000E9D14FF001000A6030BC704750E8012FBF
:10825000C2EA024240E801210029F7D1704730B458
:1082600050E8022F1FFAA2F3C488A34202BFBFF353
:108270002F8F00200DE0C48923448489A34228BFA6
:108280001B1BC2EA034340E80234002CE8D14FF044
:1082900001000A6030BC704750E8022FC2EA224257
:1082A00040E802210029F7D17047034653E8022F26
:1082B000D988B2EB324F4FF0000017BF92B241EABB
:1082C000014142EA014104E05A68B2EB324F08BF73
:1082D000012043E80212002AE8D17047064880478F
:1082E00006480047FEE7FEE7FEE7FEE7FEE7FEE79B
:1082F000FEE7FEE7FEE7FEE7C19001000182010014
:108300002DE9F05F0546002092469B4688460646CA
:10831000814640241BE0284641464746224600F05D
:1083200071F853465A46C01A914110D31146184667
:10833000224600F050F82D1A67EB01084F462246FE
:108340000120002100F047F817EB00094E41201EE4
:10835000A4F10104DFDC484631462A464346BDE825
:10836000F09F40EA01039B0703D009E008C9121FF0
:1083700008C0042AFAD203E011F8013B00F8013BDF
:10838000521EF9D27047D2B201E000F8012B491E0B
:10839000FBD270470022F6E710B513460A460446A2
:1083A0001946FFF7F0FF204610BD30B50446002007
:1083B000034600E05B1C934203D2E05CCD5C401BB3
:1083C000F8D030BD034611F8012B00F8012B002A2C
:1083D000F9D118467047202A04DB203A00FA02F14E
:1083E000002070479140C2F1200320FA03F31943A3
:1083F0009040704705F040BF04F038BA70477047AE
:10840000636A7900202A04DB203A21FA02F0002175
:10841000704721FA02F3D040C2F120029140084394
:1084200019467047064C074D06E0E06840F001032E
:1084300094E8070098471034AC42F6D3FFF7E4FE07
:108440006CF201008CF2010030B58C1810F8012B91
:1084500012F00F0301D110F8013B120906D110F8F8
:10846000012B03E010F8015B01F8015B5B1EF9D101
:1084700001E001F8013B521EFBD1A142E6D30020EE
:1084800030BDA0F50830B0F5504F01D20120704743
:108490000020704709490220086009480268002A44
:1084A000FCD0064B012210331A600268002AFCD06F
:1084B00000220A6001680029FCD0704704E50140F1
:1084C00000E4014070B5B0F5204F0CD8050B000555
:1084D00000D06D1C2226002403E0301900F016F8AD
:1084E000641CAC42F9D3322003F0B3FA012070BD12
:1084F000044801210160034A0349F8321160002158
:1085000001607047080501403546526E10B50146BE
:108510000003FFF7B6FF00280CD0074A00201070B8
:10852000084628DF4CF2503003F0DEFABDE8104078
:1085300006F02ABB10BD00003F47002010B50346DF
:10854000FFF79FFF002808D0044C00202070184639
:1085500029DFBDE8104006F017BB10BD3F470020E3
:108560002DE9F04700268CB0DFF86091B0464FF45B
:108570008075012437460696284604F055F838B130
:10858000D9F80403204203D0284604F043F82643D8
:108590002D1D64007F1CADB2082FEDD34FF4BE74C7
:1085A000204604F041F848B1204604F033F846F084
:1085B000004606AA0121002004F018F8444D16F0E8
:1085C000FF0F15D00127002437420DD009EB84019D
:1085D000D1F81005D1F81015C0F3042055F8242067
:1085E000C1F3014102B190477F00641C082CEBD31A
:1085F000002E67DA4FF0FF30CDE9088000263446C0
:10860000281910F8507F90F9000027F0C008401C8E
:1086100044D009A9404603F063F958B34FEA9719CB
:10862000404602F0A1F955F820701FB1B9F1030FCF
:1086300003D00FE0B9F1030F30D108A84FEAD802F8
:1086400008F00703815C4FF0010C0CFA03FC41EACF
:108650000C0181544FF0A04101EB8800D0F80007D5
:1086600006A9C0F3014A404603F03AF918B1BAF13D
:10867000020F03D012E0BAF1030F0FD1B9F1030FCB
:1086800008D1BAF1020F1BD00221404603F087FF48
:10869000761CF6B217B149464046B847641C042C14
:1086A000AED3002E0ED06A460121002003F09EFFBB
:1086B00006990098884205D00690089809909DE791
:1086C0000321E2E70CB0BDE8F08700000060004045
:1086D000EC4D002010B5002303E0CC5CC4545B1CBF
:1086E0009BB29342F9D310BD10B501460124032279
:1086F00003A0FFF75AFE00B10024204610BD000081
:10870000636A790008B5042807D028B3012841D04E
:1087100002285FD003287DD085E069462E2000F036
:10872000D7F8002877D09DF8000000F01F018DF8E1
:1087300000102E2000F090F9002875D06946242002
:1087400000F0C6F800286FD09DF8000000F0BF01CF
:108750008DF80010242062E06946242000F0B8F86B
:10876000002861D09DF8000000F0BF0040F04001FB
:108770008DF80010242000F06FF9002854D06946CD
:108780002E2000F0A5F800284ED09DF8000000F043
:108790001F013EE06946242000F09AF8002843D0EB
:1087A0009DF8000000F0BF0040F040018DF800107F
:1087B000242000F051F9002836D069462E2000F020
:1087C00087F8002830D09DF8000000F01F0040F02E
:1087D00040011EE06946242000F07AF8002823D0EA
:1087E0009DF8000000F0BF0040F040018DF800103F
:1087F000242000F031F9002816D069462E2000F020
:1088000067F8002810D09DF8000000F01F0040F02D
:10881000800101E009E007E08DF800102E2000F053
:108820001BF9002800D0012008BD6946242000F073
:108830004FF80028F8D09DF8000000F0BF0040F08D
:1088400040018DF80010242000F006F90028EBD03C
:1088500069462E2000F03CF80028E5D09DF8000085
:1088600000F01F0040F0C001D3E7F8B56D460446A4
:108870006E1C2946282000F02BF8002827D031460E
:10888000292000F025F8002821D0BDF80000208024
:1088900029462A2000F01CF8002818D031462B2049
:1088A00000F016F8002812D0BDF8000060802946BC
:1088B0002C2000F00DF8002809D031462D2000F0C2
:1088C00007F8002803D0BDF80000A0800120F8BD03
:1088D0007FB50F4D40F080000E468DF800002878DF
:1088E0000C49012404FA00F008600221684604F0F3
:1088F0001BFF022102A804F03BFE287884400548B3
:10890000001F04609DF80900307004B0012070BDA4
:108910006E4700200C05005038B5044669462020FB
:10892000FFF7D6FF00280ED09DF8000004F00701E5
:1089300000F0F80001438DF80010202000F08CF8C2
:10894000002800D0012038BD38B5044669462320F0
:10895000FFF7BEFF00280ED09DF8000000F0CF000A
:1089600040EA0410C1B28DF80010232000F074F822
:10897000002800D0012038BD1CB5044669462020DF
:10898000FFF7A6FF002816D001A92320FFF7A0FFBC
:10899000002810D09DF8001022480A0905D1C2789D
:1089A00002F0F0020A438DF800202CB1012C1AD0FD
:1089B000022C09D000201CBD9DF80010C17001F0F0
:1089C0000F008DF800001CE09DF8000000F0F7009B
:1089D00040F008008DF800009DF8040000F0F7005A
:1089E00040F008000BE09DF8000000F0F70040F0B8
:1089F00008008DF800009DF8040000F0F7008DF8E5
:108A000004009DF80010202000F026F80028D2D0A5
:108A10009DF80410232000F01FF80028CBD001207F
:108A20001CBD00006E47002038B504466946202072
:108A3000FFF74EFF00280ED09DF8000000F00F0059
:108A400040EA0410C1B28DF80010202000F004F8B4
:108A5000002800D0012038BD7CB500F07F008DF8E3
:108A600000000A4D8DF8011009492878012404FA04
:108A700000F008600221684604F056FE2878844021
:108A80000348001F046001207CBD00006E470020E9
:108A90000C05005000F01F020121914040098000A8
:108AA00000F1E020C0F88012704700F01F020121A1
:108AB00091404009800000F1E020C0F800117047AB
:108AC00000F01F02012191404009800000F1E020E8
:108AD000C0F8001270474907090E002806DA00F0B6
:108AE0000F0000F1E02080F8141D704700F1E02035
:108AF00080F80014704700002DE9F0414FF48077B2
:108B0000384602F097FF0124104EA50748B13846B9
:108B100002F097FF0120C5F808037470002001F0EF
:108B200075FF4FF48277384602F084FF00280BD09F
:108B3000384602F086FF0220C5F80803B470BDE88D
:108B4000F041012001F062BFBDE8F081D84D002066
:108B50002DE9F741264D87B02B46AA880344A2F59C
:108B60007F4493F82630FF3C28D03BB3BDF8242047
:108B7000142A29D842B3002205EBC00002920392C6
:108B800004920592C088ADF8080009A80127CDE934
:108B900004018DF80A7014464FF47A78A88802A967
:108BA000A6DF060016D0404602F00BF8641CA4B203
:108BB000032CF3D330460AB0BDE8F0810DA10020AC
:108BC00000F0A2F90520F6E717A1002000F09CF9BB
:108BD0000720F0E7BDF82400BDF80820CDE90070BB
:108BE00010231AA1002000F08FF90020E3E7000015
:108BF000C84800204E52465F4552524F525F4E4F7A
:108C0000545F464F554E4420636F6E6E5F68616ED1
:108C1000646C653D25642C2C2C2C6E6F7469663D4C
:108C200025640D0A00000000424C455F4E55535F1D
:108C30004D41585F444154415F4C454E206572722E
:108C4000206C656E3D25640D0A000000736C617632
:108C5000652073656E6420737563636573733A682A
:108C6000616E646C653A256420757569643A2564A3
:108C7000202069735F646174613A2564206C656EBD
:108C80003A25640D0A00000010B500F0C3FE18B1CB
:108C90000AA2282100F06CFE02F05CFC04F026FF22
:108CA00047F2305005F084FF02F06EFC04F024FB24
:108CB00002F006FDBDE8104004F018B92E2E5C6DE0
:108CC0006F6B6F5F7372635C6472697665725F6904
:108CD0006E69742E630000003EDF002803D002A2FC
:108CE0003B2100F045BE70472E2E5C6D6F6B6F5FB1
:108CF0007372635C6472697665725F696E69742E03
:108D00006300000007480021C0F84011C0F844117A
:108D1000C0F84811C0F84C11C0F80011C0F8041197
:108D200005F05CBB001001402DE9FE434FF4827852
:108D3000404603F089FC4C4F00254C4C012600B303
:108D4000404603F089FC94F82E0010B194F82F10DF
:108D5000D1B18DF80050616801912189ADF80810FA
:108D6000E26832B1218B618362602181E56010B1DC
:108D700002E0257400E03E6021686846884784F878
:108D80002F5094F82E0060B34FF48077384603F0EC
:108D90005BFC30B3384603F05FFC628B94F82D1017
:108DA0008A420AD9A2EB010080B260832289A2EB39
:108DB0000000626802EB400005E007D1E06828B1DE
:108DC00084F82F60658303F037FC04E08A4202D107
:108DD00084F82F606583404603F03EFC2248001D66
:108DE00006604FF48877384603F02EFC48B13846C9
:108DF00003F032FC257402208DF8000021686846DB
:108E000088474FF48A77384603F01EFC28B138466D
:108E100003F022FC2574BDE8FE834FF000484FF4B8
:108E20008C7967691DE000BFB7FA87F028FA00F176
:108E300009EB80058F43284603F006FC88B12846DD
:108E400003F00AFCA5F58C75E8088DF8040045F3DD
:108E50008000401C8DF800608DF805002168684690
:108E60008847002FE0D1D6E700700040604E002018
:108E7000F8B506460C4814460D46007808B900F0CF
:108E800095FA002300938DF80030684600F0AEFE9E
:108E900022462946304600F009F804469DF80000B5
:108EA00000F0C8FE2046F8BDE451002070B50E4623
:108EB000144900EB400001EBC0051446E86A183580
:108EC00020B101280FD0022805D113E0284600F078
:108ED000A1FAA04201D2002411E0224631462846E0
:108EE00000F0BEFB0BE0284600F094FAA042F4D25A
:108EF0000446F2E73146284600F085FB044620464A
:108F000070BD0000E45100200FB408B504A9009121
:108F10006A46039900F004F801B05DF814FB000004
:108F20002DE9F04188B00646644802904FF4807005
:108F30000025CDE90305CDE9055690460C4600BF56
:108F400014F8011B002973D0252908D002A800F0CD
:108F50003BFB05980028F3DA08B0BDE8F08100205B
:108F60000122217823291ED02B2919D02D2902D0A6
:108F7000302908D102E040F0010001E040F0020099
:108F8000641C002AEDD100222178A1F130030A2BC4
:108F90000CD202EB820201EB4202303A641CF3E78E
:108FA00040F00400ECE740F00800E9E70023CFB20E
:108FB0002E2F0BD114F8011FA1F130070A2F05D273
:108FC00003EB830301EB4303303BF3E76C290DD044
:108FD00068290BD0702954D00BDC252916D05829CC
:108FE00031D063290CD0642913D114E014F8011B8B
:108FF000ECE7732934D075291BD0782909D122E0F8
:10900000D8F80000011DC8F80010017802A800F08F
:10901000DBFA641C9DE7D8F800100F1DC8F800703B
:109020000968CDE900200A2202A800F0FFF9F0E764
:1090300033E0D8F800100F1DC8F800700968CDE9BA
:1090400000200A2208E0D8F800100F1DC8F80070B0
:109050000968CDE90020102202A800F04BFAD8E7F9
:10906000D8F80000011DC8F80010076817F8011BA8
:109070000029CED002A800F0A7FA05980028F5DA5A
:10908000C7E7D8F80000011DC8F8001001680820E3
:10909000CDE9000503461022DEE7059800287FF79A
:1090A0005BAF049820B1024604493046FFF7E0FE6A
:1090B000DDE90410084405904EE700002C52002022
:1090C000F0B5A348A24B012600781B1D1A1D4FF0D6
:1090D000805106280BD11C78240708D11478C4F3DA
:1090E0000314032C06D0042C04D0052C02D006282F
:1090F00007D011E0B1F82443964DC4F304242C604A
:1091000002E01C78240707D11478C4F30314032C5D
:1091100002D1924D904C6C67D1F83051D1F8444255
:109120008F4FC4F342343C6006280CD11C782407CE
:1091300009D11478C4F30314032C04D1894C276893
:1091400027F0807727604FF080470024C7F80C4154
:10915000C7F81041824F3F1F3C60062807D11F7897
:109160003F0704D11778C7F30317032F02D006284F
:1091700008D01FE0DFF8E8C103270CF1640CCCF83D
:10918000007007E01F783F0714D11778C7F3031763
:10919000032F0FD1DFF8D0C10527CCF80070724F34
:1091A00078373E60704F08373C600CF1040C3F2765
:1091B000CCF800706D4F3F68DFF8B4C1CCF8007098
:1091C0006A4F3F1D3F680CF1040CCCF80070674FEC
:1091D00008373F680CF1040CCCF80070634F0C3773
:1091E0003F680CF1040CCCF80070604F10373F68FA
:1091F0000CF1040CCCF800705C4F14373F680CF194
:10920000040CCCF80070594F18373F68DFF860C184
:109210000CF1200CCCF80070544F1C373F680CF157
:10922000040CCCF80070514F20373F680CF1040C4F
:10923000CCF800704D4F24373F680CF1040CCCF88B
:1092400000704A4F28373F680CF1040CCCF80070CE
:10925000464F2C373F680CF1040CCCF80070434F9C
:1092600030373F68DFF808C10CF1400CCCF80070D3
:109270003E4F34373F680CF1040CCCF800703B4F84
:1092800038373F680CF1040CCCF80070374F3C378E
:109290003F680CF1040CCCF80070344F40373F6845
:1092A0000CF1040CCCF80070DFF8C8C0FB27CCF838
:1092B0000070062813D11F783F0710D11778C7F325
:1092C0000317032F03D0042F01D0052F07D1D1F8A6
:1092D0005872DFF8A4C007F04F07CCF80070274899
:1092E0000268D20702D06FF001020260062D08D199
:1092F000D1F83401062804D12148016841F4806185
:10930000016020480168C9071ED01F4A16601F4926
:109310000B68002BFCD0036803F0FE0303600868B1
:109320000028FCD0146008680028FCD0BFF34F8FE1
:109330000C48F0380168164A01F4E06111430160FD
:10934000BFF34F8F00BFFDE7134912480860F0BD1F
:10935000E00F00F0403501400DF0ADBA00C007400D
:109360003C050040FCED00E01056004004040010F5
:1093700020C5004018F50040E40E00400004004005
:109380003C1700400C12001004E5014000E40140CD
:109390000400FA050090D003B847002001490248B4
:1093A00005F0A4BA444E00200020004010B5124C35
:1093B00001202061606111A0A061A4F58670E061C8
:1093C0004FF4807020620020A06260620BA1C4E9AB
:1093D0000B01A4F10C0161630A21A1632064E06325
:1093E000606409A1E01DFEF7EDFF08A12046FEF72D
:1093F000E9FF2020A07110BDE45100205465726D7A
:10940000696E616C00000000525454005345474798
:10941000455200000269C1688A4203D88068401A38
:10942000104400E0501A401E704700002DE9FC5F18
:109430000E008146DDE90C47C6F1000098469346D0
:10944000824600D40846012503E000BF90FBFBF0F4
:109450006D1C5845FADAA84500D9454624B1002EBE
:1094600001DB780700D5641EB80702D5B8F1000FFC
:109470000FD0F8070DD164B1A5420AD22021484689
:10948000641E00F0A1F8D9F80C000028F3DABDE85A
:10949000FC9FD9F80C000028F9DB002E02DA5646B2
:1094A0002D2102E0780707D52B21484600F08CF8E3
:1094B000D9F80C000028EADB07F0030002280FD1DE
:1094C000B8F1000F0CD15CB1A54209D23021484659
:1094D000641E00F079F8D9F80C000028F3DAD6E71A
:1094E000CDE9004743465A463146484600F002F867
:1094F000CDE700002DE9F84F8246DDE90A4B012651
:10950000984691460D460846374602E0B0FBF9F012
:109510007F1C4845FAD2B84500D947465FEACB7070
:1095200017D1B4B15FEA8B7002D5B8F1000F02D049
:10953000202000900BE03020FBE75046641E00998D
:1095400000F042F8DAF80C00002838DB0CB1A74232
:10955000F3D3DAF80C00002831DB00BFB8F1010FBB
:1095600002D9A8F1010803E0B5FBF6F0484502D3A3
:1095700006FB09F6F2E7DFF84C8000BFB5FBF6F01A
:1095800000FB165518F80010504600F01DF8DAF8E8
:109590000C00002803DBB6FBF9F6002EEED15FEAE3
:1095A000CB700CD0002C0AD0A74208D22021504604
:1095B000641E00F009F8DAF80C000028F2DABDE8C1
:1095C000F88F0000F0EE010010B50446D4E9013038
:1095D000421C934205D323681954A260E068401CE2
:1095E000E060D4E90102824209D121682069FFF7D5
:1095F0003FFCA168884203D04FF0FF30E06010BD0F
:109600000020A06010BD2DE9F047C46817468946C8
:1096100006464FF000083069A04201D9051B02E060
:10962000B168201A0D1AB0686D1E001BA84200D840
:109630000546BD4200D33D4670682A46204449464F
:10964000FEF78FFEB0687F1B2C44A844A944A042BB
:1096500000D10024F460002FDDD14046BDE8F08742
:109660002DE9F041C6680446174688468068851B88
:109670006068BD4206D93044FEF773FEF019E06021
:10968000BDE8F0812A463044FEF76BFE7E1B08EBF6
:10969000050132466068FEF764FEE660F0E702E02E
:1096A00008C8121F08C1002AFAD17047002001E043
:1096B00001C1121F002AFBD17047000001212028A0
:1096C00003DA81400548014003E0402802DA2038EF
:1096D000814009B10120704700207047FC06FFBDA2
:1096E000082806D228B1012803D0042801D001207F
:1096F000704700207047000010B501F0A7FE0E4C27
:1097000000231A4661780D4872DF01F0BFFE0B4A54
:10971000A3781F326178094872DF04000BD002463B
:1097200007A10020FFF7F0FB2046BDE810400D4ADE
:109730005E2100F01DB910BD0A47002078480020C6
:109740005B6164765F646174615F70616464696EBB
:10975000675D206572725F636F64653D2578200DDB
:109760000A00000004A0010070B58EB00124054677
:109770006B460F2849D00BDC304E012D1CD0072D35
:1097800018D12F4882B3042A36D00022012146E0A6
:109790004CF25034102D44D0342D0BD10022114600
:1097A00005F066F8204602F02BFA002004F020F9BC
:1097B00000F036FC0EB070BD12B1062A10D025E0C4
:1097C0001F490020B1F15C01C0F105020A44127C7E
:1097D0001A54401CC0B20628F6D3062219461EE0D1
:1097E000084603F023FD09E003E000BF05F040F860
:1097F000E0E70422014612E0FEF7B3FD0022114625
:10980000284605F035F83470D4E712B10022012162
:10981000ECE701F05DFD8DF8000022466946284620
:10982000E4E70022114605F023F8204602F0E8F9AB
:10983000002004F0DDF800F05BFABBE77A47002077
:10984000244A00207CB514460E460546012823D044
:109850006FF48050281821D0B0F5405F23D06FF40A
:109860004051C84206D1238816A100206268FFF744
:109870004BFB04E032461BA10020FFF745FB2148CB
:109880000068C00700D000BE224602B0314628461C
:10989000BDE8704000F078B81BA100E023A10020D3
:1098A000FFF732FBEBE7A06803F092F8034621884C
:1098B0006068CDE9000127A10020A268FFF724FB22
:1098C000DDE70000415353455254494F4E20464175
:1098D000494C45442061742025733A25752E2E2E5F
:1098E0000D0A0000554E4B4E4F574E204641554CE9
:1098F00054206174203078253038582E2E2E0D0AD1
:1099000000000000F0ED00E0534F46544445564936
:1099100043453A20415353455254494F4E20464106
:10992000494C45442E2E2E0D0A000000534F46543C
:109930004445564943453A20494E56414C494420F6
:109940004D454D4F5259204143434553532E2E2EE2
:109950000D0A00004552524F52202575205B257399
:109960005D2061742025733A25752E2E2E0D0A0078
:109970000EB5ADF80010CDE901206A46002144F291
:109980000100FFF75FFF0EBD08B501238DF8003021
:109990009DF80030144B186059609A606FF4804154
:1099A000401807D001280FD1DA60D8680088986184
:1099B000D86807E01A6118698068586118690088DA
:1099C000986118694068D861186858689868D868BC
:1099D000186958699869D86972B600BF9DF8000087
:1099E0000028FBD162B608BD904E0020084B9B7842
:1099F00023B12AB120B10068037C1BB10820704755
:109A00000720704700230374417442611846704771
:109A1000B04E002070B503F0D9FA104800240F2191
:109A2000047044700E4D817014206C602C706C704A
:109A3000FFF730F807211420FFF74DF81420FFF747
:109A400034F80848046007211120FFF744F805485E
:109A5000001F0068A860002070BD0000B04E00200C
:109A600084470020081501402DE9FC47DFF8789075
:109A700099F8023073B368B3052902D20720BDE814
:109A8000FC87436933B3437C012B25D00027044670
:109A90000025884616468DF80050684600F0A6F866
:109AA00001A805F035F8C8B1012101700F494460E3
:109AB0000968C0E90218C0E904769DF8040089F835
:109AC00001009DF8000000F0B5F81420FEF7F8FF43
:109AD0002846D4E70820D2E70F46D8E704259DF8AA
:109AE000000000F0A7F8F3E7B04E00200415014095
:109AF0000649897839B130B1416921B10021017439
:109B0000022104F047BC082070470000B04E00203E
:109B100010B5024802F00EFC002010BDA84700203E
:109B2000064A0146002093782BB1531C1B780B701A
:109B3000002191707047052070470000A047002069
:109B400070B588B0154604461E4620221B4968465B
:109B5000FEF707FC60690690207C00B101208DF8BB
:109B600014008DF81C60607C00B10E208DF815008B
:109B7000E0680290A06803902068019060680090FF
:109B80000F480021456081700E4A6946083002F096
:109B900095FA00280FD12068401C0CD09DF81D00BC
:109BA00018B907480830FEF72AFC05490122491C6C
:109BB000C81D02F0CBFA08B070BD000028ED01000E
:109BC000A0470020E5E70100074910B50870012211
:109BD00001F1080002F04EFB112803D0002800D04C
:109BE000032010BD042010BDA047002030B5EFF3C6
:109BF000108172B60D4A9468012324B103700029C4
:109C000000D162B630BD93604FF0E023D3F88051AD
:109C1000074C25401560C3F88041D3F88441546057
:109C20005A17C3F8842100220270E8E71C50002074
:109C3000FC06FFBD0B498A68002A11D000280FD10D
:109C4000EFF3108072B60B684FF0E022C2F80031DB
:109C50004B68C2F8043100228A60002800D162B645
:109C6000704700001C5000202DE9F04106460868AE
:109C70000C46411C4FF0A0474FF0010506D005FAF5
:109C800000F1C7F80815206802F07FFC6068411CED
:109C900002D0002102F064FC3168A069C1F82405FB
:109CA000607D217D32680843C2F86C05D4E900125A
:109CB0003068C0F80C15C0F81425207D012815D196
:109CC000A068411C02D0002102F04AFCE068411C5F
:109CD00005D08540C7F80855E06802F056FCD4E985
:109CE00002123068C0F80825C0F81015BDE8F081F0
:109CF0000248012101704170704700003447002084
:109D00002DE9F0430546007D93B00E460024A0B136
:109D100007949DF81C0020F00F00401C20F0F0007C
:109D200010308DF81C00707B8DF81D009DF81E0012
:109D300020F00600801C8DF81E001C216846FEF7EE
:109D400029FB9DF8000040F002008DF80000297DFD
:109D500011B140F0100001E020F010008DF800007B
:109D6000019403940494287D00B107A8CDE905046B
:109D700001278DF8427042F61920ADF840000D948D
:109D8000B07B8DF83400F07B8DF835009DF83600FF
:109D9000142120F00600801C20F019008DF83600F8
:109DA000307B8DF8440008A8FEF7F4FA0DF1400866
:109DB0000DF13409ADF8287011A8CDE90889ADF886
:109DC0002A40ADF82C700C90A888AB1D08AA6946F3
:109DD000A2DF002838D1B06898B38DF8427042F6FF
:109DE0000810ADF840000D94307C8DF834009DF8DB
:109DF000350020F0FF008DF835009DF8360020F08A
:109E00000600801C20F019008DF836000EA8B168FD
:109E100000F004FD0646142108A8FEF7BBFAADF8D1
:109E200028600EA8CDE90889ADF82A40ADF82C606D
:109E30000C90E88805F10E0208A9A3DF002803D1E1
:109E400001E0FFE7EC81002013B0BDE8F0830000E3
:109E500000B585B014216846FEF79CFA9DF80D0008
:109E6000012120F00F00401C20F0F00010308DF890
:109E70000D009DF80E008DF8041020F00F00401C1E
:109E800020F0F00010308DF80E009DF80F0020F04B
:109E9000FF008DF80F009DF8100020F00F00401C0F
:109EA00020F0F00010308DF810000020009002909B
:109EB00001F008FA8DF80C006946064800F0C6F873
:109EC000002804D0044A40F22111FFF751FD05B0EB
:109ED00000BD000060480020689F010010B588B0F8
:109EE00000F0A2FC00F072FC002400941020ADF8F9
:109EF00000003C200194ADF80200ADF804404FF49E
:109F0000C870ADF8060068467ADF18B116A2EA21DB
:109F1000FFF72EFD01F0A4F9FFF79AFF00F0C6FF4E
:109F200004F00EFE1C216846FEF734FA4FF4203090
:109F3000CDE900404FF47020029003208DF80C0012
:109F40001048059010480690ADF80E408DF810406E
:109F5000684600F0EBF8002804D003A24FF4B37178
:109F6000FFF706FD08B010BD2E2E5C6D6F6B6F5FA6
:109F70007372635C626C655C626C655F696E697468
:109F80002E63000045CA0100E1AA010010B5FFF7E9
:109F9000B3FB13490020134A086448648864C8640A
:109FA00040314FF47A730870087252885A4340F275
:109FB0007123B2FBF3F24A818881094801214030C4
:109FC00073DF04000BD0024607A10020FEF79CFFC0
:109FD0002046BDE810400BA29321FFF7C9BC10BD7D
:109FE00078480020C84900205B626C655F61647638
:109FF0005F73746172745D20206572723D307825E4
:10A00000780D0A002E2E5C6D6F6B6F5F7372635C50
:10A01000626C655C626C655F6164762E6300000053
:10A0200074DF020003D002A10020FEF76DBF70476D
:10A030005B626C655F6164765F73746F705D3D3DFC
:10A040003D3E6572723D25640D0A000038B50D462F
:10A0500004001BD0D5B1286820604FF6FF706082E5
:10A0600028792075FF20207401208DF8020041F628
:10A070000F00ADF80000221D69460120A0DF002876
:10A0800003D129462046FFF73BFE38BD0E2038BDE0
:10A0900010B5027886B0EA2A03D1C278131D8B422C
:10A0A00003D0002211460D2012E044781E4B012CF3
:10A0B00012D0022C1FD0032C29D0042C0AD1012A43
:10A0C000EFD10079187102F0ABFF00221146204653
:10A0D00002F093FC06B010BD0429E2D88078002875
:10A0E000DFD1002ADDD15888010A8DF800108DF8E3
:10A0F0000100022216E001794079022A40EA01209B
:10A10000CFD1588002F08CFF03F0C8F8DDE70429B6
:10A11000C7D880780028C4D1002AC2D118798DF818
:10A12000000001226946D2E7C849002070B504004A
:10A1300012D001461C221448FEF713F91248134DA1
:10A140000560206850B17ADF002806D120680168D8
:10A1500029604068686005E00E2070BD0B487BDF19
:10A160000028FAD108484FF6FF711438084A20F841
:10A17000041B0549343901600021FFF737FC002832
:10A18000EBD0032070BD0000044D00207C47002070
:10A19000F9E90100074810B54068FFF7A9FC38B19C
:10A1A000042803D0082803D0032010BD112010BDBF
:10A1B000002010BDF04C002030B585B00D460400E5
:10A1C00039D0BDB36868A8B31C4B4FF6FF70208030
:10A1D0000FCB0DF1040C8CE80F0041F23050ADF8BC
:10A1E000000001A8811E62DF002821D1221D6946DE
:10A1F0000120A0DF00281BD19DF80200A07120469D
:10A2000000F086FD002813D1204600F033FD002821
:10A210000ED12946204600F0F3FD002808D16868D9
:10A22000A062A86800B1E062054901200870002022
:10A2300005B030BDFFE70E20FAE7000000EF010097
:10A24000DC4700203EB500283CD000293AD0826A85
:10A25000002A37D00A88102A23D0112A33D0502A56
:10A2600021D0512A2ED104460A4611F8060F0228A1
:10A2700028D14888238A984224D1907B042821D071
:10A2800006281FD005281DD02046891C02F0FAFBA5
:10A29000002817D0E16A002914D003B0BDE830408F
:10A2A0000847898811E0CA8803899A420AD108229E
:10A2B0008DF800200A7C12318DF808200191826A05
:10A2C000694690473EBD4FF6FF7101803EBD0000DC
:10A2D000F0B585B00A4605002BD02888A0F57F414F
:10A2E000FF3928D01548007828B3144C1120641C7D
:10A2F000012720700026ADF81070611C104604F094
:10A3000071FBBDF8101000960844ADF810000196DE
:10A3100002960396288AADF8000004A8CDE902044D
:10A320008DF80270ADF8046028886946A6DF05B094
:10A33000F0BD0E20FBE70820F9E70000DC47002015
:10A3400030B585B028B30388A3F57F44FF3C22D005
:10A35000124B1B78FBB1114B10255B1C00241D70A8
:10A3600059709A7001250321ADF8101000940194E2
:10A3700002940394018AADF8001004A9CDE90213F8
:10A380008DF80250ADF8044000886946A6DF05B09C
:10A3900030BD0E20FBE70820F9E70000DC47002075
:10A3A00010B500F09DFFA0F57F41FF3901D03B21A2
:10A3B00076DF10BD10B50446028888B03DA10020AC
:10A3C000FEF7A2FD21884248212929D011DC01296C
:10A3D0003ED010291DD011291DD013291ED10023D4
:10A3E0001A46852100887FDF002817D039A2632113
:10A3F00035E03B2912D0512936D052291ED056299A
:10A400000CD1A088132176DF002807D031A2822149
:10A4100025E0A18801E04FF6FF71018008B010BD72
:10A4200033A10020FEF770FD00200090A08869464F
:10A430008FDF0028F2D027A25C2136E000231A46E5
:10A4400019460088A9DF0028E8D022A2742106E07E
:10A45000A088002166DF0028E0D01EA2872108B076
:10A46000BDE81040FFF784BA1022A11D04A8FDF733
:10A4700078FF9DF810100029D0D09DF8180004280E
:10A4800003D0062801D00528C8D1022910D0012008
:10A490008DF800004FF4C170ADF80400A088694643
:10A4A000A8DF0028BAD00BA2A221FFF761FAB5E716
:10A4B0000220EDE7626C655F6576745F68616E64CB
:10A4C0006C65722049443A307825780D0A00000006
:10A4D000084700202E2E5C6D6F6B6F5F7372635C9C
:10A4E000626C655C626C655F696E69742E63000006
:10A4F0005048592075706461746520726571756586
:10A5000073742E0D0A0000002DE9F04701883B4EC0
:10A5100040F2F3194FF6FF7510291BD011293ED0D8
:10A52000122954D0502946D1C188F289841D914204
:10A5300041D1618902293ED18688304600F0D2FFA0
:10A54000050038D004F10C0000F064F9A8B32946E6
:10A5500030464EE0C17B8788044601292BD1A846AE
:10A56000284600F0BFFF050017D02F80002028727A
:10A57000234843464A460168C5F80A104068C5F8B2
:10A580000E0004F1100105F10A0000F0C1FF68722D
:10A59000F08900280FD129462AE0042013E08088A2
:10A5A00000F0A0FF040006D06068FFF7A1FA08B130
:10A5B00002F01EFE2580BDE8F087FFE76868FFF720
:10A5C00097FA0028F7D0BDE8F04702F011BE87885F
:10A5D0000646384600F086FF0400ECD02B464A467B
:10A5E00006F1080104F10A0000F092FF60722146B2
:10A5F0003846BDE8F04700F087BA0000044D00205F
:10A600007C4700202DE9F047054603883A4801229F
:10A61000A4B000F1480A102B09D0112B4AD01A2BF4
:10A6200066D1297AB2EB111F49D2012348E0D0E963
:10A6300011218A430446011D12A802F0ACFD4422F8
:10A6400012A901A8FDF78DFEDFF8AC900026374671
:10A6500009F144090DF104080AE000BF08EB4600C7
:10A660001D2283884946201D009702F059FD761C63
:10A670000198B042F2D8606CAD88C04302F072FD20
:10A68000A0F57F41FF390DD004EB40000123858008
:10A690002A465146201D02F0A3FD01232A464946C1
:10A6A000201D20E024B0E521BDE8F04713A20420DE
:10A6B000FFF75EB90023AA885146001D13E000236E
:10A6C0000D490446AA885031001D02F089FD287A00
:10A6D0000221B1EB101F01D2012300E00023064943
:10A6E000AA885431201D24B0BDE8F04702F078BD9F
:10A6F00024B0BDE8F0870000204D00202E2E5C63C2
:10A700006F6D706F6E656E74735C626C655C636FA9
:10A710006D6D6F6E5C626C655F636F6E6E5F7374A0
:10A720006174652E63000000F0B5224B0F460400F3
:10A730000FCB8BB006AE4FF6E06586E80F0037D042
:10A74000AFB33868E062214606A862DF00282CD14A
:10A7500020788DF82A00A21CADF828500AA9012003
:10A76000A0DF002821D1032013A10125CDE9041089
:10A7700012A20026CDE90252CDE900564FF6E16261
:10A7800033463946204600F0ACFC04200096059084
:10A790000BA10DA2CDE90321CDE901654FF6E262DF
:10A7A00001233946204600F09CFC0BB0F0BDFFE7CA
:10A7B0000E20FAE7D0EC010061626200575F4E00A4
:10A7C00061626162000000004E0000001CB5FF22C3
:10A7D00006216846FDF7D7FD0C486DDF0622694665
:10A7E0000B48FDF7E2FD0A49084A1039921E38B1BC
:10A7F000086942F8030F888A908004486CDF1CBD0A
:10A8000052F8030F0861908888821CBD38470020E9
:10A81000D8490020007800F0010070470A780270E3
:10A82000497841700220704708B501F0F5FF18B172
:10A830000CA2C521FFF79CF800200090694601207A
:10A8400001F020FF18B107A2CB21FFF791F868466D
:10A8500001F064FF002803D002A2CF21FFF788F89F
:10A8600008BD00002E2E5C6D6F6B6F5F7372635CB2
:10A87000626C655C626C655F696E69742E63000072
:10A880002DE9F04107464FF01020DFF85480406971
:10A890004FF43C340C2909D0A0421ED0FDF7FAFD3C
:10A8A00021464046BDE8F04100F098BCFDF7F2FDBE
:10A8B0003D687E68BF682146404600F08FFC08482E
:10A8C00029466C3000F08AFC05483146703000F0B3
:10A8D00085FC034839467430E4E7BDE8F0810000A8
:10A8E00014100010022802D101490120887070471D
:10A8F000BC470020022802D101490120087070479E
:10A900003F47002005494FF0FF32082841F820203A
:10A9100002D3084480F8482070470000EC4D002026
:10A92000F0B54FF0FF3512B10023082601E00823EF
:10A930000C260C4C05E000BF54F823707F1C04D09B
:10A940005B1CB342F8D32846F0BD26185DB286F8EA
:10A95000305044F82310002AF5D1E11881F848005E
:10A96000F1E70000EC4D00200249084490F9300066
:10A9700070470000EC4D002030B5054605480C46F8
:10A98000002241684FF4083000F0E2F8288020806F
:10A9900030BD0000BC4700204FF40930FDF7A4BED5
:10A9A0000C48002182784AB14FF0A042D2F810251D
:10A9B000920E12F0010F03D0817070474171704701
:10A9C0004179491CC9B241710229F8D10121C170F4
:10A9D000704700004C47002010B5074C61780029F3
:10A9E00009D02269521E226105D101460348FFF7B2
:10A9F0006FFCE068206110BDBC4700203853002088
:10AA000001490020487070474C47002070B5084C41
:10AA1000050009D010342168002907D0086820609B
:10AA2000496828468847F6E70834F4E770BD000017
:10AA3000D84D00202DE9F05F26484168F1B3DFF8DA
:10AA400098B00E688146DBF8004087688078E11B8B
:10AA500021F07F45ED1CB0B9DFF880804FF48030E5
:10AA6000C8F84403C8F804031120FEF713F81120B6
:10AA7000FEF71BF84FF0010AC8F800A02F2001F0E4
:10AA800005F989F802A0B54200D23546124BE81903
:10AA90003C3320F07F401860DBF800105A46091B59
:10AAA00021F07F41001B20F07F40C91C81420FD95B
:10AAB000106818602F2001F0E9F800E004E0BDE81C
:10AAC000F05F1120FDF7FCBFBDE8F05F02F07EBA39
:10AAD000BDE8F09F844700200415014000100140AC
:10AAE00002A24FF4A871FEF743BF00002E2E5C6D4A
:10AAF0006F6B6F5F7372635C626C655C626C655FE9
:10AB0000696E69742E63000038B54A7A0F4B62B1E2
:10AB100000220A725969002906D001228DF800200E
:10AB2000ADF802006846884738BD0A7A62B19B6872
:10AB30004C68024619462046FEF796FF0028F3D0DF
:10AB4000BDE8384002F054BB5B68F1E7044D0020DB
:10AB500010B5044612B11088002211E04FF6FF70C4
:10AB6000FAE7030A43EA0023A05C5840C0F303134A
:10AB7000584080EA003080B2C3B280EA4310521CD1
:10AB80008A42EED310BD30B502460B46FF2012E0DC
:10AB900012F8014B604008210BE000F0800424B162
:10ABA000312484EA4004E0B201E04406200E4C1E49
:10ABB000E1B20029F1DC1C1EA3F10105EBB2E7D1E3
:10ABC00030BD10B50346002240F2FB2403E02046CE
:10ABD00000F004F8521C9A42F9D310BD002100E0A5
:10ABE000491C8142FCD3704770B5FFF7D9FE02F0D3
:10ABF0003DFF154CE078002815D00025E570A079C0
:10AC000090B101280FD111A10020FEF77DF9FFF7C7
:10AC1000C7FB012200214FF4FA6000F09FFC02F014
:10AC200025FF2570A57170BD0DA10020FEF76CF900
:10AC300032211422084600F091FC02F02FFB012083
:10AC40002070A07170BD00004C47002064657669DB
:10AC50006365206F66662E2E2E2E2E2E200D0A0086
:10AC6000646576696365206F6E2E2E2E2E2E2E2043
:10AC70000D0A000030B58FB005461C216846FDF76F
:10AC800089FB00249DF80000019440F018008DF825
:10AC900000000394049405940694A8798DF8360076
:10ACA00041F23150ADF834000C949DF8300014217D
:10ACB00020F0FF008DF830009DF8310020F00F00EB
:10ACC000401C20F0F00010308DF831009DF832006B
:10ACD00020F00600801C20F0080040F011008DF8E4
:10ACE000320007A8FDF756FB0DA807900CA80890A6
:10ACF000ADF824401720ADF82640ADF828000B949D
:10AD0000A88805F1100307AA6946A2DF0FB030BD7D
:10AD100030B58FB005461C216846FDF73BFB00248B
:10AD20009DF80000019440F004008DF800000394A9
:10AD3000049405940694A8798DF8360041F23250B7
:10AD4000ADF834000C949DF83000142120F0FF0081
:10AD50008DF830009DF8310020F00F00401C20F0ED
:10AD6000F00010308DF831009DF8320020F0060020
:10AD7000801C20F0180040F001008DF8320007A878
:10AD8000FDF708FB0DA807900CA80890ADF824402B
:10AD90001420ADF82640ADF828000B94A88805F1E2
:10ADA000080307AA6946A2DF0FB030BD014840681A
:10ADB000FDF788BBBC4700200A460146014801F068
:10ADC000CFBF0000D4470020C1EBC10101EB41021D
:10ADD00001461423014801F0EDBF0000D4470020D4
:10ADE0000A4610B50146054801F0EFFF040003D004
:10ADF0000121024801F09EFF204610BDD4470020EB
:10AE000070B58EB00E4605461C216846FDF7C2FAA5
:10AE100000249DF80000019440F002008DF800002D
:10AE20000394049405940694A8798DF8360041F2B1
:10AE30003450ADF834000C949DF83000142120F00B
:10AE40000F00401C20F0F00010308DF830009DF80D
:10AE5000310020F0FF008DF831009DF8320020F025
:10AE60000600801C20F0180040F001008DF8320030
:10AE700007A8FDF78FFA0DA807900CA808900220EC
:10AE8000ADF82400ADF82640ADF828000B96A88850
:10AE900005F1200307AA6946A2DF0EB070BD0000CD
:10AEA00001460148FFF7CEB9385300203EB50020D7
:10AEB00000900820ADF80000084801900848029072
:10AEC00069460848FFF778F9041E04D006A240F24C
:10AED000D311FEF74DFD20463EBD00007DCB0100A5
:10AEE00001D20100385300202E2E5C6D6F6B6F5F16
:10AEF0007372635C6466755C6E72665F6466752E01
:10AF00006300000070B50A4D002300F50830AB70F7
:10AF100029DF002442F21076642000F0FDFEA878BC
:10AF2000002803D1641CA4B2B442F5D370BD000064
:10AF3000BC4700200E4910B50A784C780023A24285
:10AF400012D0521CD2B20A70022A00D10B70084AE9
:10AF50000B780C3252F8232002608868104420F0ED
:10AF60007F408860012010BD0360002010BD0000FC
:10AF7000844700202DE9F04205468C1DC8886A8967
:10AF80001231012600278946904212D16089022899
:10AF90000FD10846FFF73EFC10B185F8266001E0AE
:10AFA00085F8267095F8263042460FA10020FDF75F
:10AFB000ABFF2088698A884212D1608902280FD1AC
:10AFC0004846FFF727FC10B185F8276001E085F8B7
:10AFD000277095F82730424603A10020FDF794FF23
:10AFE0000120BDE8F0820000656E61626C6520663C
:10AFF000656525783D25640D0A00000038B50446D6
:10B000001A480D4603210068009000208DF80110B9
:10B010001A2C02D0082C08D003E08DF800108DF80F
:10B02000030001F039F810B108E00221F5E701F062
:10B0300005F818B10EA25621FEF79AFC75B1144A14
:10B040006946204600F07AFF18B109A25C21FEF79C
:10B050008FFC0121204600F01FFF38BD204600F084
:10B06000F7FE204600F0C6FF38BD0000E8EC010006
:10B070002E2E5C6D6F6B6F5F7372635C64726976AA
:10B0800065725C636865636B5F6B65792E63000056
:10B09000C5CC010030B50446006885B00D46806817
:10B0A00000281CD014216846FDF774F90195A068AA
:10B0B0000490207910B101280DD104E001208DF811
:10B0C0000000206904E002208DF80000E068000321
:10B0D000029060690390206881686846884705B0DF
:10B0E00030BD2DE9F04F8FB0054619A8984690E87D
:10B0F000C004914600241C2101A8DDF860B0FDF7D2
:10B1000049F92EB19DF8040040F002008DF80400CA
:10B11000BBF1000F05D09DF8040040F00C008DF845
:10B1200004009DF80400CDF808A067F304108DF822
:10B130000400049405940694079428788DF836004A
:10B14000ADF834900094002E0BD09DF8000020F054
:10B150000F0000F1010020F0F00000F110008DF868
:10B1600000009DF8010020F00F0000F1010020F028
:10B17000F00000F110008DF801009DF8020020F0B1
:10B18000060000F102008DF8020003D020F0080054
:10B190008DF8020000F0EF0040F001008DF8020091
:10B1A0004FF0140108A8FDF7F5F80DA80890CDF8A8
:10B1B00024D01D98ADF828001420ADF82C001C9860
:10B1C000ADF82A4005EBC8030C90688808AA01A9CD
:10B1D0009B1DA2DF0FB0BDE8F08F0000084B10B53B
:10B1E00001221A60074A1468002CFCD00160106824
:10B1F0000028FCD00020186010680028FCD010BD8A
:10B2000004E5014000E40140084B48881B8898424F
:10B2100007D10888A0F52063773B02D18888C01E3B
:10B2200082B203A10020FDF76FBE00000847002096
:10B230005B676174745F6576745F68616E646C658A
:10B24000725D20206D5F626C655F6E75735F6D610E
:10B25000785F646174615F6C656E200D0A000000A8
:10B2600010B50C490C4800F04DFB20B10BA24FF477
:10B270008071FEF77DFB1721074800F039FB00289D
:10B2800006D0BDE8104005A240F20311FEF770BBE6
:10B2900010BD000009B20100504800202E2E5C6D48
:10B2A0006F6B6F5F7372635C626C655C626C655F31
:10B2B000696E69742E630000014840787047000091
:10B2C0006E470020014800787047000024470020A6
:10B2D00010B50024FFF7F0FF00B10124204610BD97
:10B2E000014800887047000008470020084808B55A
:10B2F0004178491CC9B241700A2908D30021417024
:10B30000684649DF03A10020009AFDF7FDFD08BD56
:10B31000364700205B6E726635325F636869705D28
:10B32000202074656D703D25780D0A000148407835
:10B33000704700004C470020401A20F07F40212138
:10B34000B0FBF1F07047000070B504460D461C4894
:10B3500004701C48057000BF40F20C611A48184A7E
:10B36000127840F8221000BF00BF164A127840F849
:10B37000221000BF00BF1348017801208840134904
:10B38000086000BF00BF0F480178012088400F49C6
:10B390001031086000BF00BF0948017801208840D3
:10B3A0000A49086000BF00BF0548017801208840B5
:10B3B00006491031086000BF03F04AF870BD000074
:10B3C0005347002054470020000700500805005054
:10B3D0002DE9F04107460D4616469846012403F034
:10B3E0007FF90440384603F097F8044007F0010065
:10B3F000A8B10CE02EB90021284603F005F904405D
:10B4000004E00121284603F0FFF804406D1C301EC3
:10B41000A6F101018EB20FD0002CEBD10CE004E0BC
:10B42000287803F079F804406D1C301EA6F1010164
:10B430008EB201D0002CF3D1B8F1000F00D114B9B5
:10B4400003F080F904402046BDE8F08110B50E48B5
:10B450000221012301704370062383701A23C370F5
:10B46000FF2303714C23002243718271C1711521A6
:10B47000044C01720A460930E11CFCF772FF1E20E1
:10B48000607010BD0A470020784800200A48022357
:10B49000002103700A23437081700921C17001717A
:10B4A00006A1044A0B6840F8053F496841600D2039
:10B4B000907070470A47002097480020424C452072
:10B4C00041504953000000000549012242F2107327
:10B4D0000A70C8700022C1E901324A617047000059
:10B4E000BC4700200146034802888A4200D0002061
:10B4F00070470000F04C002004480088A0F57F4110
:10B50000FF3901D001207047002070470847002014
:10B51000F0B58488A518944200D82246A41AC2889F
:10B52000D6189A4200D81346D21A4B880788BB42D5
:10B530000CD34088834209D88888A04206D3A84209
:10B5400004D8C888904201D3B04201D90020F0BD90
:10B550000120F0BD01211A20FFF750BD70B5322344
:10B56000B0FBF3F0074C0025A080B1FBF3F0E080C6
:10B570002281012125701A46084602F00FFA6570F3
:10B5800070BD00004247002002490320C1F80007B7
:10B5900000F002B80C00005010B5074A012107481E
:10B5A000FEF724FA002805D0BDE8104004A22F21A0
:10B5B000FEF7DEB910BD000079B60100E4EC010031
:10B5C0002E2E5C6D6F6B6F5F7372635C6472697655
:10B5D00065725C6C65645F6D616E6167652E6300AA
:10B5E00070B5244C607800281CD0401E6070204646
:10B5F0002378018982880125ABB14088401E80B242
:10B60000012B1ED0022B0DD1608000280AD1491ECB
:10B610000804000C208120D062800121032000F06A
:10B62000CFFF257070BD0029FCD06280012103206E
:10B6300000F0C6FF608800B965802078401C20704B
:10B6400070BD60800028FBD1E088608000B9658013
:10B650000021032000F0B4FFEFE700202070322229
:10B66000012102F09BF9BDE870400021032000F0A9
:10B67000A7BF00004247002002484178491C4170A2
:10B680007047000042470020064901200860064834
:10B690000168C1F300410029FAD1044900208870F3
:10B6A000704700000C00004018040040D84D0020F6
:10B6B0001721018041800021017141717047000014
:10B6C000F8B5FF201C4A8DF8000003214FF0A04080
:10B6D000C2F8001701267107C0F8081507221E21BD
:10B6E0001F2002F029F9154800F044FA0024144DF7
:10B6F000274669460F20FDF7EBF89DF80000332838
:10B7000014D0641CE4B26F70032CF2D30220FDF756
:10B7100033F90720FDF700F90220FDF785F9002035
:10B72000FDF712F90220FCF7EDFFF8BD6E7005A1E0
:10B730000020FDF7E9FBE9E774000050400D03002D
:10B740006E4700205B3344485D20206861766520A9
:10B750006C69733364682E2E2E2E0D0A00000000D3
:10B760002DE9F047394E002780463D46DFF8E0904E
:10B77000D6F804A057E003D00446D0F81C8035E08A
:10B7800099F8002002EB4201521CD2B289F8002045
:10B7900009EBC10199F80230091D9A4201D189F8DB
:10B7A000005048680A780446012A12D0022A02D0C2
:10B7B000032A3BD108E002F0BDFD00B1012725744A
:10B7C00034E00574C06900E070680028F9D1706049
:10B7D0002CE0207C50BB88686060C868A060086965
:10B7E000E0604869A061F07800B165606268B168A6
:10B7F000184B501A20F07F40984202D2A1680844AA
:10B8000006E0881AA16820F07F40814202D9081A18
:10B81000206000E0256065600120A560207420465E
:10B82000E56102F069FDB8F10000A4D199F80010BB
:10B8300099F801008142A3D117B97168514502D02E
:10B840000120BDE8F0870020FBE7000084470020CE
:10B85000B04E0020FFFF7F0000210846FFF710F8E0
:10B86000FDF712FAFEF73AFB01203DDF0BA10020A5
:10B87000FDF74AFBFDF730FAFFF7B2FE02F010FBCE
:10B8800002F0CEFC02F0C4F902F0B0FC02F0E8FCD9
:10B8900002F044FCFCF72CFEECE7000064657669DE
:10B8A00063652073746172742E2E2E2E2E2E2E2E12
:10B8B0002E0D0A0010B50A8849888A4203D1FCF788
:10B8C000EBFC012010BD002010BD70B50C460546F4
:10B8D000FCF7C5FC002802D061882868084470BDC8
:10B8E000C20800F007030120895C984008407047B7
:10B8F00018B1172903D0072070470E207047018028
:10B900000020704710B560B1C160172120F8021BFC
:10B9100020F8021B1B2100F8021BFFF7C9FE0020C4
:10B9200010BD0E2010BD00002DE9FC4786880C4696
:10B93000002E4AD1018801270025102908D011299D
:10B9400020D0DFF8EC903A2920D0552965D13EE08F
:10B95000C07B04F10608012802D12088A8F8000065
:10B96000B8F80010B8F80200814256D930469EDF80
:10B9700010B1112803D050E088F805704DE088F828
:10B9800004704DE0A01DFFF793FE46E0224640897B
:10B9900034F8061F814200D808466080172800D27C
:10B9A00017206080D06870B1607960B1D9E900106B
:10B9B000CDE90010ADF802606088ADF80400D368EE
:10B9C00069461046984765712571BDE8FC87C088B7
:10B9D00004F10608172800D21720B8F80010814299
:10B9E00000D80846A8F8020088F804502846B8F89D
:10B9F0000010ADDF98F8050078B9E06868B1D9E9C2
:10BA00000210CDE90010ADF80260B8F80200ADF800
:10BA10000400E268204669469047A07A0028D4D006
:10BA20002846E1889EDF0028CFD1A572E772CCE7D7
:10BA300004ED010000F180400068002800D00120E2
:10BA4000704708B500F18040002101600068009057
:10BA500008BD4FF47A71484300F05EB900283ED02B
:10BA60001F49204A096800BF00BF00BF00BF00BFD8
:10BA700000BF00BF00BF91422FD000BF00BF00BF7A
:10BA800000BF00BF00BF00BF00BF00BF00BF00BFBE
:10BA900000BF00BF00BF00BF00BF00BF00BF00BFAE
:10BAA00000BF00BF00BF00BF00BF00BF00BF00BF9E
:10BAB00000BF00BF00BF00BF00BF00BF00BF00BF8E
:10BAC00000BF00BF00BF00BF00BF00BF00BF00BF7E
:10BAD00000BF00BF00BF00BF00BF0138C3D1704727
:10BAE000B84700200024F40000283ED01F49204A17
:10BAF000096800BF00BF00BF00BF00BF00BF00BF9C
:10BB000000BF91422FD000BF00BF00BF00BF00BFE9
:10BB100000BF00BF00BF00BF00BF00BF00BF00BF2D
:10BB200000BF00BF00BF00BF00BF00BF00BF00BF1D
:10BB300000BF00BF00BF00BF00BF00BF00BF00BF0D
:10BB400000BF00BF00BF00BF00BF00BF00BF00BFFD
:10BB500000BF00BF00BF00BF00BF00BF00BF00BFED
:10BB600000BF00BF00BF0138C3D17047B8470020F5
:10BB70000024F40000283ED01F49204A096800BF75
:10BB800000BF00BF00BF00BF00BF00BF00BF9142A9
:10BB90002FD000BF00BF00BF00BF00BF00BF00BF6D
:10BBA00000BF00BF00BF00BF00BF00BF00BF00BF9D
:10BBB00000BF00BF00BF00BF00BF00BF00BF00BF8D
:10BBC00000BF00BF00BF00BF00BF00BF00BF00BF7D
:10BBD00000BF00BF00BF00BF00BF00BF00BF00BF6D
:10BBE00000BF00BF00BF00BF00BF00BF00BF00BF5D
:10BBF00000BF0138C3D17047B84700200024F400CB
:10BC000000283ED01F49204A096800BF00BF00BF7E
:10BC100000BF00BF00BF00BF00BF91422FD000BFD8
:10BC200000BF00BF00BF00BF00BF00BF00BF00BF1C
:10BC300000BF00BF00BF00BF00BF00BF00BF00BF0C
:10BC400000BF00BF00BF00BF00BF00BF00BF00BFFC
:10BC500000BF00BF00BF00BF00BF00BF00BF00BFEC
:10BC600000BF00BF00BF00BF00BF00BF00BF00BFDC
:10BC700000BF00BF00BF00BF00BF00BF00BF013852
:10BC8000C3D17047B84700200024F40000283ED0FC
:10BC90001F49204A096800BF00BF00BF00BF00BFA6
:10BCA00000BF00BF00BF91422FD000BF00BF00BF48
:10BCB00000BF00BF00BF00BF00BF00BF00BF00BF8C
:10BCC00000BF00BF00BF00BF00BF00BF00BF00BF7C
:10BCD00000BF00BF00BF00BF00BF00BF00BF00BF6C
:10BCE00000BF00BF00BF00BF00BF00BF00BF00BF5C
:10BCF00000BF00BF00BF00BF00BF00BF00BF00BF4C
:10BD000000BF00BF00BF00BF00BF0138C3D17047F4
:10BD1000B84700200024F40000283ED01F49204AE4
:10BD2000096800BF00BF00BF00BF00BF00BF00BF69
:10BD300000BF91422FD000BF00BF00BF00BF00BFB7
:10BD400000BF00BF00BF00BF00BF00BF00BF00BFFB
:10BD500000BF00BF00BF00BF00BF00BF00BF00BFEB
:10BD600000BF00BF00BF00BF00BF00BF00BF00BFDB
:10BD700000BF00BF00BF00BF00BF00BF00BF00BFCB
:10BD800000BF00BF00BF00BF00BF00BF00BF00BFBB
:10BD900000BF00BF00BF0138C3D17047B8470020C3
:10BDA0000024F40070B50F4C0025207808B18525DB
:10BDB00016E00021A16061602161E1604FF0E020A8
:10BDC000D0F80001012610F0010F03D10721002057
:10BDD00000F022F800F05CFD08B903480660267008
:10BDE000284670BDD84D00201805004008B5002039
:10BDF0008DF800006846FDF7F9FE0648C168491E47
:10BE0000C160C06808B9FFF73FFC9DF80000FDF76E
:10BE100011FF08BDD84D00204907090E002806DA99
:10BE200000F00F0202F1E02282F8141D03E000F19D
:10BE3000E02282F8001400F01F0201219140400925
:10BE4000800000F1E020C0F88012C0F800117047B7
:10BE500010B5044600F01EFF28B12046BDE8104092
:10BE6000002100F09CBB204600F020FF00280FD0EE
:10BE70002046FEF779FD074A02EB8001D1F8103524
:10BE800023F00103C1F8103501218140C2F80813E5
:10BE900010BD0000006000402DE9F04188460546D5
:10BEA00000F0F8FE234E002828461AD0FEF75CFD6D
:10BEB000304490F848008009032802D001280ED0B1
:10BEC00007E04FF0A040D0F81005E84010F0010F57
:10BED00005D003212846BDE8F04100F060BB0221F7
:10BEE000F8E700F0E3FE002822D02846FEF73CFDEC
:10BEF00004464FF4807000EB84000F4F81B207EBD3
:10BF00008400D0F8102542F00102C0F81025084640
:10BF100000F080FBB8F1000F0AD02846FEF724FDA0
:10BF200056F82000002803D00120A040C7F80403E1
:10BF3000BDE8F081EC4D0020006000402DE9FC419F
:10BF4000DFF8A480044608EB0400002790F93000D5
:10BF50001346C0170E46401C01D0082741E0F27876
:10BF600019462046FEF7DCFC0546401C38D0B07868
:10BF700050B14FF0A04000EB8400D0F8001721F042
:10BF80000201C0F8001707E00021737820460091F5
:10BF90000A46019100F0A4FAF078C0B11348317854
:10BFA00000EB8500D0F81025114B1A40C0F8102581
:10BFB0004FF4F8524FF4403302EA042203EA0141FD
:10BFC0000A43D0F810150A43C0F8102509E008EB21
:10BFD0000500327810F8481F41EA8211017000E034
:10BFE00004273846BDE8FC81EC4D0020006000408D
:10BFF000FFE0FCFF10B50446FFF72AFF204600F0E3
:10C0000055FE40B12046FEF7AFFC0A4A002102EB84
:10C010008000C0F81015204600F086FA2046FEF792
:10C02000A3FCC0B2FEF76EFC0349FF20214481F857
:10C03000300010BD00600040EC4D002070B5144D84
:10C0400095F8540008B1082070BD0020411E2A1840
:10C05000401CC0B282F830102028F8D300242046BB
:10C06000FEF750FC641CE4B20C2CF8D30721062028
:10C07000FFF7D2FE4FF4BE7000F0CCFA05494FF046
:10C080000040C1F80403012085F85400002070BD71
:10C09000EC4D002000600040034890F85400002858
:10C0A00000D0012070470000EC4D00200121B1EBD1
:10C0B000507F01D101207047002070472DE9F041E9
:10C0C00005460F4600791F49C0EBC00001EB800414
:10C0D0001646E07E10B10820BDE8F08139462846BA
:10C0E000FDF7C2FD666038692060F6B13E7F4FF40F
:10C0F0008871286800F07BFC4FF49071286800F08C
:10C1000076FC4FF49271286800F071FC4FF4A27134
:10C11000286800F06CFC28680B49C0F804132868F4
:10C120003146000B40B2FFF777FE28680821C0F8BF
:10C1300000150020E0752076A0750121E176A0763B
:10C14000CAE70000444E0020100302002DE9F04130
:10C1500005460E4600791849C0EBC00001EB80048B
:10C1600017463046FFF7A2FF98B1616800234FF4ED
:10C17000047011B12968C1F80803E17D79B1217E0D
:10C1800049B1616811B12968C1F804031120BDE803
:10C19000F0811020FBE726610123277604E0E77594
:10C1A0000020E660607620763A4631462846BDE8B3
:10C1B000F04100F003B80000444E00202DE9F05F8C
:10C1C000894604464FF488759A46904600260068D2
:10C1D000294600F00CFC4FF4A2773946206800F0A5
:10C1E00006FC2068C0F83495C0F838852068BAF19C
:10C1F000000F16D0D0F8001241F02001C0F8001254
:10C200002079DFF86C80C0EBC00108EB810040684A
:10C2100050B120684FF40471C0F804133046BDE8F3
:10C22000F09F01210160EBE7AA46B9464FF4927BEB
:10C230005146206800F0D6FB07464946206800F0CA
:10C24000D1FB05465946206800F0CCFB014647EA81
:10C2500005000843ECD020790022C0EBC00308EBB6
:10C260008300C27501B10326002DD7D00F26D5E774
:10C27000444E00202DE9F04704460079254FC0EBDD
:10C28000C00007EB800590460E460846FFF70EFFFC
:10C2900030B1204600F040F820B11120BDE8F08711
:10C2A0001020FBE785F816804FF00008AE60A5F877
:10C2B000148020794FF49079C0EBC00007EB800523
:10C2C00046464946206800F092FB4FF4AC77394669
:10C2D000206800F08CFB2068A97DAA68C0F844257E
:10C2E000C0F84815206801218160686880B9CA4695
:10C2F000B9465146206800F075FB0746494620685C
:10C3000000F070FB0743F4D000B10F2685F81680CB
:10C310003046C3E7444E002000790549C0EBC00019
:10C3200001EB8000807D002800D0012070470000D4
:10C33000444E00202DE9F041024600792549C0EB2A
:10C34000C00001EB800710684FF00008C0F80085BE
:10C35000786880B110682049C0F80813106801217E
:10C36000000B40B200F01F0399404009800000F12B
:10C37000E020C0F880111068D0F80C35D0F81465B2
:10C38000D0F80855D0F810454FF0FF31C0F80C1523
:10C39000C0F814151068C0F80815C0F81015581C1E
:10C3A00002D0184600F0C9F8701C02D0304600F0E8
:10C3B000C4F8601C02D0204600F0BFF8681C02D010
:10C3C000284600F0BAF887F81B80C7F80480BDE85B
:10C3D000F0810000444E00201003020004480121B7
:10C3E0004174007A08B100207047012070470000B6
:10C3F000B4500020012801D0032808D104490022AC
:10C4000001284A7400D00020087400F0F5BC704781
:10C41000B450002070B5254C0246207A012837D050
:10C42000022841D122480023022A006802D0032AB0
:10C430002ED11BE0E360017911B1012928D10DE073
:10C44000D0E90565711B4FF48056B14200D33146E7
:10C45000294481614569A9420ED019E00169491C4E
:10C4600001614269914213D1237217E0E168491CCE
:10C47000E16008290CD9E3602372022A0ED00D2155
:10C48000FEF708FE0B480A49091D0068FFF712FA7B
:10C49000607C28B1BDE8704000F000BA0021EFE7F1
:10C4A000BDE8704000F0A8BC70BD0000B450002092
:10C4B0009847002018ED0100F0B5DDE9054500BF03
:10C4C0004FF0A0473E4641EA420747EA830747EA62
:10C4D000042747EA054C06F5E06747F820C0F0BDA1
:10C4E00070B541EA4201DDE904564FF0A04441EA4B
:10C4F000830141EA052104EB800041EA0641C0F8CE
:10C50000001770BD70B541EA4201DDE904564FF0F5
:10C51000A04441EA830141EA052104EB800041EA9D
:10C520000641C0F8001770BD1CB5002100910B46F4
:10C5300001220191FFF7D4FF1CBD1CB50021009121
:10C540000B4601220191FFF7DDFF1CBD4FF0A04219
:10C55000002302EB800043EA8101C0F80017704716
:10C560001CB500220B46009211460192FFF7CAFF4C
:10C570001CBD1CB504460020009003460122114654
:10C5800001902046FFF798FF1CBD1CB500210091CB
:10C590000B46012201911146FFF7B4FF1CBD4FF07D
:10C5A000A04202EB8000D0F8002722F44032C0F80D
:10C5B0000027D0F8002742EA0141C0F80017704771
:10C5C00001224FF0A043824011B1C3F80825704703
:10C5D000C3F80C25704701224FF0A043824011B1EF
:10C5E000C3F808257047C3F80C25704718B5084BE9
:10C5F0006C4601441B68009306E000BF54F82030ED
:10C60000D3F81035401C08C28142F7D818BD00008D
:10C6100014ED0100034908B50844002101600068D9
:10C62000009008BD0060004002494058012800D039
:10C630000020704700600040024A1060101D016039
:10C64000704700002C76004002494058002800D076
:10C650000120704700700040034908B508440022DB
:10C6600002600068009008BD00700040014609B9F2
:10C670000E2070470248006808600020F9E70000BB
:10C68000ECEE0100FEB505460C462046FFF7EEFF36
:10C6900006460EB13046FEBD00200090019002908B
:10C6A0008DF8005001208DF802000321ADF8041030
:10C6B00069462020226869DF06460020009001902C
:10C6C000029001208DF8000069464020226869DF51
:10C6D0000646002000900190029003208DF8000093
:10C6E00069460120226869DF06460020009001901B
:10C6F00002904FF4AF5000906946A120226869DF94
:10C70000064600200090019002908DF800006946D6
:10C71000A020226869DF06460020BCE770B5044609
:10C720002568204660DF06462068A84205D000F054
:10C73000AFFB2168401A02490860304670BD000016
:10C74000B44700202DE9F04190B080461CE02C2039
:10C75000049004A905A861DF044604B115E005AD05
:10C76000114901A800F0E0F809E000BF039806466F
:10C77000376828467168B84701A800F0ECF800BF98
:10C7800003980028F1D100BFE1E700BF052C07D0D6
:10C7900000BF06A24FF490712046FDF7E9F800BFF4
:10C7A00010B0BDE8F0810000E0EE01002E2E5C63C9
:10C7B0006F6D706F6E656E74735C736F66746465B5
:10C7C000766963655C636F6D6D6F6E5C6E72665FDC
:10C7D0007364685F626C652E6300000010B50D4CD9
:10C7E0002078A0B10120A07000F06CFC11280CD0C2
:10C7F000022000F07FFC11DF002807D12070A0701C
:10C8000000F042FE032000F075FC002010BD08205F
:10C8100010BD0000B047002038B5114C207808B199
:10C82000082038BD0125A570002000F04BFC112820
:10C8300014D0002000F05EFC0A480B49006800900C
:10C84000684610DF0028ECD12570A070607001F000
:10C8500019F900F04DFE012000F04CFC002038BD1D
:10C86000B04700205CEE0100459801000EB5074975
:10C87000684600F059F805E0D0E90010884768469E
:10C8800000F069F802980028F6D10EBD78EE01009C
:10C890000148007870470000B047002005488178C3
:10C8A00019B1007818B1FFF799BF08207047FFF75A
:10C8B000B3BF0000B04700201FB5684648DF40B155
:10C8C000052816D004B00BA2BDE810406B21FDF77F
:10C8D0004FB8144901A800F027F806E0D0E900217C
:10C8E0000098904701A800F036F803980028E4D09B
:10C8F000F4E71FBD2E2E5C636F6D706F6E656E74F6
:10C90000735C736F66746465766963655C636F6D91
:10C910006D6F6E5C6E72665F7364685F736F632EBB
:10C9200063000000B4EE0100016009684160AFF3EC
:10C93000008010B5D0E900215368994201D100214F
:10C9400004E0D1E90034A34202D01946816010BD51
:10C9500008314160F0E7816800290BD002689268D5
:10C960000A44826041684B689A4203D108314160B1
:10C97000FFF7DFBF7047000010B50446FDF71AFD52
:10C980002146044800F064F92046BDE81040FEF757
:10C9900087BA0000C84800200C4A10B502F1F00325
:10C9A0000EE0991AC91001EBD171491002EBC101D7
:10C9B0000C68844201D90B4602E005D201F108025D
:10C9C0009A42EED3002010BD486810BD5CED010016
:10C9D00000B5FFF7E1FF002800D1014800BD0000CD
:10C9E00048ED01004058002800D00120704708B5EC
:10C9F000002242504058009008BD50B58DB0140040
:10CA000002464FF0EB038DF800308DF801204FF017
:10CA100000028DF8022068468DF803404FF00402B2
:10CA200009D0002305E0CE5C8654521C5B1C92B2F8
:10CA30009BB2A342F7D301460020FCF789F80DB062
:10CA4000284650BD007800280AD106483B210088BE
:10CA500076DF002804D004A24FF4A371FCF788BF4E
:10CA600070470000084700202E2E5C6D6F6B6F5FD3
:10CA70007372635C626C655C626C655F696E69743D
:10CA80002E6300002DE9F0418AB001274FF0020823
:10CA90000C468DF810808DF816700989ADF81810C5
:10CAA0006189ADF81A1004F10C010026CDE90716D2
:10CAB0000546ADF8208003A8ADF822600990A98A48
:10CAC000288808AAA5DF18B1E96AC1B1884716E02D
:10CAD00003A8FDF79FFE90B1ADF81460288804A963
:10CAE000A8DF002812D1217B04F10D00092943D2CF
:10CAF000DFE801F0420F1D2326282A402C0040F2D7
:10CB0000FD10ADF81400288804A9A8DF0AB0BDE81C
:10CB1000F0818DF800600CE006221CE08DF80870B2
:10CB20000190AA6A6946284690470020EEE78DF8F2
:10CB300000706289022AF1D2EEE78DF80080F0E7FA
:10CB4000032012E0042010E005200EE06089032895
:10CB500005D2032208212846FDF7F2FBD6E7B4F8F8
:10CB60000D00ADF8040018B106208DF80000D8E7DC
:10CB70000720FAE70920F8E70322ECE710B50B7865
:10CB80001E4A092B2BD2DFE803F00F1528052A2AAD
:10CB90002F352B0001220421FDF7D2FB00281ED0E7
:10CBA00017A240F2232114E048680078BDE8104045
:10CBB000FEF78ABC022313704968097801290ED157
:10CBC00001220221FDF7BCFB002808D00CA24FF483
:10CBD0001571BDE81040FCF7CBBE0320107010BDEE
:10CBE000BDE8104000F01AB8012050708888D0606D
:10CBF000106110BD00205070D06010BDBC470020F7
:10CC00002E2E5C6D6F6B6F5F7372635C6466755C18
:10CC10006E72665F6466752E630000000A7A48686B
:10CC20000A490B78012B06D0022B0AD0032B07D11F
:10CC30001146FEF7C1B8C27A806862F31F6048608F
:10CC40007047104430F8020C88607047BC470020E1
:10CC500070B5054608880C46102808D0112806D063
:10CC6000502805D0572802D109490120087070BD0D
:10CC70002846FEF77FF92046A41DEB8822886189AB
:10CC800012309A42F3D1BDE87040C9B2FDF700BA44
:10CC9000224700200449084490F93000082801DBAD
:10CCA0000120704700207047EC4D002004490844E3
:10CCB00090F93000082801D2012070470020704709
:10CCC000EC4D002070B54FF0A044D4F810050D4E87
:10CCD000800E10F0010F4FF0010504D1B5700AA1CC
:10CCE0000020FCF711F9D4F81005000A10F0010F2C
:10CCF00006D17570BDE8704008A10020FCF704B9AA
:10CD000070BD00004C4700206B65795F6972715FF0
:10CD100068616E642E2E2E2E0D0A0000554152546D
:10CD20005F52785F50494E206973206C6F770D0A0F
:10CD30000000000030B5002911D000220DE0447839
:10CD400083789C420BD05B1CC478DBB2B3FBF4F558
:10CD500004FB1533521C837092B28A42EFD330BD6C
:10CD60002DE9F0410446007815460126A84201D27B
:10CD7000054600266278E778531CB3FBF7FC07FBF7
:10CD80001C33A778BB4200D100266368401C12FB0D
:10CD900000372A46781CFBF7E4FA3D706078E178AA
:10CDA000401CC0B2B0FBF1F201FB120060703046D3
:10CDB000BDE8F08110B503700024447084705B1CE2
:10CDC0004160B2FBF3F1C17010BD10B50B46447861
:10CDD00081788C4201D1002010BD44680078401C4D
:10CDE00011FB004111F8010B107002461846FBF7C9
:10CDF000B8FA012010BD00002DE9F041214C0025BA
:10CE0000214E207A012730B92048311D0068FEF7F5
:10CE10005CFD306038B1022020723168087928B199
:10CE200001281ED116E06560BDE8F081D1E9050357
:10CE3000C01A4FF48052904200D31046B7EB900FC7
:10CE400001D2820800E001220869C9681844194427
:10CE500029DF03E0D1E90301084428DF38B11128B4
:10CE60000ED003213068FEF715F92572DBE7207C30
:10CE70000028D9D1BDE8F04100210220FFF7CABA4D
:10CE80002772D1E7B45000209847002018ED010028
:10CE900002480068810201F1005070470C01001047
:10CEA00010B54FF434300F4A00680D49904209D153
:10CEB00060230D4A0020145C0C54401C80B2984240
:10CEC000F9D308E0002002460A54401C80B26028D2
:10CED000FAD301F0C5FDBDE81040FCF709BF000022
:10CEE000C8490020E7AAAAAA08D0020070B56822A3
:10CEF0004FF430311E48FBF7EDFB1D4C2078E7283E
:10CF000012D16078E7280FD16022682319A1002090
:10CF1000FBF7FAFFA078E17841EA0025602D09D2FD
:10CF20001BA10020FBF7F0FF01F09AFDBDE8704067
:10CF3000FCF7DEBE6019002102790846241D03E0DB
:10CF4000235C5940401C80B2A842F9D3914203D0DF
:10CF500016A10020FBF7D8FF0549D031002003E0DF
:10CF6000225C0A54401C80B2A842F9D370BD000074
:10CF7000F84800206C656E5F7265616C3D25642C1D
:10CF80006275665F73697A656F663D25640D0A0098
:10CF9000726561642066616C73683A206C656E200E
:10CFA0006E6F7420747275650D0A0000726561649D
:10CFB0002066616C73683A2063616C635F786F729E
:10CFC000206E6F7420747275650D0A0070B50126AD
:10CFD00070044FF0E0210025C1F88001084C40109A
:10CFE000C4F84803C4F8080366602F20FEF74EFE1D
:10CFF000A660044C2F20A560FEF748FEA57070BD0A
:10D0000000100140844700201FB501238DF8003037
:10D010008DF808100192D0E90012684690471FBDB4
:10D0200001490120487070473447002070B50D4613
:10D030000446FCF743FB70B12846FCF751FB68B18E
:10D040006807000E002C0CDA04F00F0101F1E0215A
:10D0500081F8140D09E042F2010070BD42F20200B5
:10D0600070BD04F1E02484F80004002070BD0000CD
:10D0700038B50021012558B101280ED003280BD165
:10D0800007210020FEF7C8FEBDE83840FEF7AEBE1F
:10D090004FF0E020C0F8805138BD8DF80010684690
:10D0A000FCF7A4FD064C207808B9FEF77BFEE0688B
:10D0B000401CE060A5709DF80000FCF7BBFD38BD8A
:10D0C000D84D00203EB5044609496846FFF72CFCC0
:10D0D00008E000BFD0E900212046904730B1684603
:10D0E000FFF739FC02980028F4D13EBD11203EBD67
:10D0F00060EE01003EB5044608496846FFF714FC9F
:10D1000007E000BFD0E90021204690476846FFF7BE
:10D1100022FC02980028F5D13EBD00006CEE010013
:10D1200070B50028049D18D0002916D0002A14D00C
:10D130005FF0000430F814609E420FD100200123FC
:10D14000A34008E001EB800426680DB11E4300E017
:10D150009E43401C26609042F4D370BD641C202C7A
:10D16000E8D370BD70B5054600242146284600F07E
:10D170000AF808B1204670BD641CA4B2202CF4D378
:10D180004FF6FF7070BD01228A40024201D001209B
:10D190007047002070472DE9F04192B080464FF073
:10D1A000000017460D00009012D000246E46A1B278
:10D1B0003846FFF7E8FF40B1009935F8140006EB58
:10D1C000410188800098401C0090641C202CEED304
:10D1D000442269464046FBF7C4F812B0BDE8F0812E
:10D1E00008B5009313460122FFF79AFF08BD00001F
:10D1F00002498969002900D008477047044D002082
:10D20000002804D002A24FF4F571FCF7B1BB7047BF
:10D210002E2E5C6D6F6B6F5F7372635C6466755C02
:10D220006E72665F6466752E6300000010B504467A
:10D2300011486DDFFCF7F4FE10490020C0F1050233
:10D240000B18401CA25CC0B21A740628F6D3C0208A
:10D25000487509480A69801E40F8032F898A818031
:10D2600005486CDF024606A10020FBF74DFEBDE835
:10D27000104000F013B8000038470020C8490020D3
:10D280005B7365745F626C655F6D61635D20657281
:10D29000725F636F64653D25780D0A0001490120C6
:10D2A000087070470A470020F8B504460D46174637
:10D2B0001E46002000908DF800408DF8015000239C
:10D2C000022269468820FEF783F801233A46314658
:10D2D0008920FEF77DF8F8BD38B505460C460020DC
:10D2E00000908DF800508DF801400123022269461C
:10D2F0008820FEF76DF838BD2DE9FF41002002902F
:10D30000039036A103C9CDE90001052001210A4699
:10D3100000231D461E4600BF4FF0A04C674641EA61
:10D32000420C4CEA830C4CEA052C4CEA064807F503
:10D33000E06C4CF8208000BF00BF00BF59B900BFAF
:10D3400000BF02071346012505FA00F2C3F80C25B9
:10D3500000BF00BF0CE000BF00BF4FF0A04213466B
:10D36000012505FA00F2C3F8082500BF00BF00BF81
:10D3700000BF0F211020FDF7E7FF0A20FDF721FC79
:10D38000A2213020FFF7A8FF93213020FFF7A4FF50
:10D3900000241BE000F04AFE062202A91148FBF718
:10D3A00004F870B1062269460E48FAF7FEFF40B154
:10D3B00001200D4908700DA10020FBF7A5FDBDE877
:10D3C000FF813220FDF7FDFB601CC4B20A2CE1DBBB
:10D3D00000200549087000BFF1E70000FFFFFFFFD4
:10D3E000FFFF000058470020684700205B53485467
:10D3F00033585D20686176655F73687433782E2ECC
:10D400002E2E2E2E0D0A000000B58BB018220D49CD
:10D410006846FAF7A6FF0C4806900C494FF4807056
:10D42000CDE9070109900723094A06A96846FCF7D8
:10D4300087FB002803D007A24221FCF799FA0BB022
:10D4400000BD0000ECEC0100684A0020684B0020A1
:10D45000E1E701002E2E5C6D6F6B6F5F7372635C92
:10D460006472697665725C756172745C73696D7003
:10D470006C655F756172742E63000000002801D135
:10D48000FDF7C4BA7047000010B51620FCF716F976
:10D4900048B10B4882684FF4800162B1016821F401
:10D4A0008001016010BDBDE8104042F2010005A2FC
:10D4B000A521FCF75DBA4FF0E020C0F8801110BD47
:10D4C0001C5000202E2E5C636F6D706F6E656E7445
:10D4D000735C736F66746465766963655C636F6DB6
:10D4E0006D6F6E5C6E72665F7364682E6300000021
:10D4F00010B51620FCF7E2F880B1104890F800044F
:10D500004009FCF7EDF860B10D4882684FF48001E6
:10D510007AB1016841F48001016010BD42F201005E
:10D5200001E042F20200BDE8104006A29921FCF79A
:10D530001FBA4FF0E020C0F8001110BD16E000E067
:10D540001C5000202E2E5C636F6D706F6E656E74C4
:10D55000735C736F66746465766963655C636F6D35
:10D560006D6F6E5C6E72665F7364682E63000000A0
:10D5700070B505460E46002403E000F005F8285576
:10D58000641CB442F9D370BD002064490A780121BB
:10D590009140634A1160624908310968614A137811
:10D5A00001229A40114009B140F080005B490A789D
:10D5B000012191405A4A121D116058490A780121EF
:10D5C0009140574A1160564908310968554A137805
:10D5D00001229A40114009B140F040004F490A78B9
:10D5E000012191404E4A121D11604C490A780121D7
:10D5F00091404B4A11604A4908310968494A1378F9
:10D6000001229A40114009B140F0200043490A78B4
:10D6100001219140424A121D116040490A780121BE
:10D6200091403F4A11603E49083109683D4A1378EC
:10D6300001229A40114009B140F0100037490A78A0
:10D6400001219140364A121D116034490A780121A6
:10D650009140334A1160324908310968314A1378E0
:10D6600001229A40114009B140F008002B490A7884
:10D67000012191402A4A121D116028490A7801218E
:10D680009140274A1160264908310968254A1378D4
:10D6900001229A40114009B140F004001F490A7864
:10D6A000012191401E4A121D11601C490A78012176
:10D6B00091401B4A11601A4908310968194A1378C8
:10D6C00001229A40114009B140F0020013490A7842
:10D6D00001219140124A121D116010490A7801215E
:10D6E00091400F4A11600E49083109680D4A1378BC
:10D6F00001229A40114009B140F0010007490A781F
:10D7000001219140064A121D116004490A78012145
:10D710009140034A121D1160704700006B470020C2
:10D72000080500506D47002030B502460B46002129
:10D73000F1E0505C7D4C25780124AC407C4D2C60A0
:10D7400000F080043CB17B4C25780124AC40784D3E
:10D750002D1F2C6005E0774C25780124AC40744DDA
:10D760002C60724C25780124AC40714D2D1F2C602B
:10D770006E4C25780124AC406D4D2C6000F04004C7
:10D780003CB16C4C25780124AC40694D2D1F2C60B8
:10D7900005E0684C25780124AC40654D2C60634C55
:10D7A00025780124AC40624D2D1F2C605F4C2578FC
:10D7B0000124AC405E4D2C6000F020043CB15D4C77
:10D7C00025780124AC405A4D2D1F2C6005E0594CA2
:10D7D00025780124AC40564D2C60544C257801240A
:10D7E000AC40534D2D1F2C60504C25780124AC408B
:10D7F0004F4D2C6000F010043CB14E4C25780124B4
:10D80000AC404B4D2D1F2C6005E04A4C257801247F
:10D81000AC40474D2C60454C25780124AC40444D2C
:10D820002D1F2C60414C25780124AC40404D2C60CC
:10D8300000F008043CB13F4C25780124AC403C4D3D
:10D840002D1F2C6005E03B4C25780124AC40384D61
:10D850002C60364C25780124AC40354D2D1F2C60B2
:10D86000324C25780124AC40314D2C6000F004048A
:10D870003CB1304C25780124AC402D4D2D1F2C603F
:10D8800005E02C4C25780124AC40294D2C60274C18
:10D8900025780124AC40264D2D1F2C60234C257883
:10D8A0000124AC40224D2C6000F002043CB1214C1C
:10D8B00025780124AC401E4D2D1F2C6005E01D4C29
:10D8C00025780124AC401A4D2C60184C2578012491
:10D8D000AC40174D2D1F2C60144C25780124AC4012
:10D8E000134D2C6000F001043CB1124C257801244A
:10D8F000AC400F4D2D1F2C6005E00E4C2578012407
:10D90000AC400B4D2C60094C25780124AC40084DEF
:10D910002D1F2C60491C9942FFF40BAF034C257856
:10D920000124AC40024D2C6030BD00006B4700204C
:10D930000C0500506C4700202DE9FC4104460D46C3
:10D9400016461248067012480570124804700F48B7
:10D950000078FEF70EFE0E480078FEF70AFE0D482E
:10D9600007784FF000080020009043460246014629
:10D9700001903846FEF7A0FD00BF04480178012061
:10D98000884005490860BDE8FC8100006B47002025
:10D990006C4700206D4700200C05005010B50E4C60
:10D9A00088B1510CD0034FF4FA72801841F1000194
:10D9B00052000023FAF7A4FC01462068BDE810409D
:10D9C0000022FCF751B82068FCF792F8BDE810403F
:10D9D00002A10020FBF798BAE4EC0100206C65641A
:10D9E0002074696D65722073746F700D0A000000F9
:10D9F000134910B54A78904221D0487058B100219F
:10DA00000820FDF7FBFA0FA10020FBF77DFABDE827
:10DA10001040FFF7F9BCFCF77BF80FA10020FBF7E3
:10DA200073FA03210820FEF791FD03210920FEF778
:10DA30008DFD0121BDE810400820FDF7DFBA10BDC3
:10DA4000724700205B554152545D206F70656E2017
:10DA50002E2E2E2E0D0A00005B554152545D206380
:10DA60006C6F7365202E2E2E2E0D0A00044801794E
:10DA7000002903D000210171FCF7D2BA70470000E1
:10DA80004C47002010B507211620FFF7CFFA18B138
:10DA900008A2B821FBF76CFF07211520FFF7C6FA93
:10DAA000002805D0BDE8104002A2BA21FBF760BFF4
:10DAB00010BD00002E2E5C636F6D706F6E656E740E
:10DAC000735C736F66746465766963655C636F6DC0
:10DAD0006D6F6E5C6E72665F7364682E630000002B
