:020000040002F8
:10F00000204F002055F202005DF202005FF2020084
:10F0100061F2020063F2020065F2020000000000EB
:10F0200000000000000000000000000067F2020085
:10F0300069F20200000000006BF202006DF20200B3
:10F040006FF202006FF202006FF202006FF2020034
:10F050006FF20200000000006FF202006FF2020087
:10F060006FF202006FF202006FF202006FF2020014
:10F070006FF202006FF202006FF202006FF2020004
:10F080006FF202006FF202006FF202006FF20200F4
:10F090006FF202006FF202006FF202006FF20200E4
:10F0A0006FF202006FF2020000000000000000009A
:10F0B0006FF202006FF2020000000000000000008A
:10F0C0000000000000000000000000000000000040
:10F0D0000000000000000000000000000000000030
:10F0E0000000000000000000000000000000000020
:10F0F0000000000000000000000000000000000010
:10F1000000000000000000000000000000000000FF
:10F1100000000000000000000000000000000000EF
:10F1200000000000000000000000000000000000DF
:10F1300000000000000000000000000000000000CF
:10F1400000000000000000000000000000000000BF
:10F1500000000000000000000000000000000000AF
:10F16000000000000000000000000000000000009F
:10F17000000000000000000000000000000000008F
:10F18000000000000000000000000000000000007F
:10F19000000000000000000000000000000000006F
:10F1A000000000000000000000000000000000005F
:10F1B000000000000000000000000000000000004F
:10F1C000000000000000000000000000000000003F
:10F1D000000000000000000000000000000000002F
:10F1E000000000000000000000000000000000001F
:10F1F000000000000000000000000000000000000F
:10F20000DFF80CD000F038F800480047FDFA0200A3
:10F21000204F0020056885F308884068FF2464B209
:10F22000EFF30585002D07D1EFF3148102229143FE
:10F2300081F31488A64600472546064621273FBA93
:10F24000F0B40024002500260027F0B4F92040B2D5
:10F25000004700000648804706480047FEE7FEE7F3
:10F26000FEE7FEE7FEE7FEE7FEE7FEE7FEE7FEE776
:10F2700079F3020001F20200064C074D06E0E06857
:10F2800040F0010394E8070098471034AC42F6D3ED
:10F29000FFF7BAFF14FC020034FC020003480068C8
:10F2A00008B1012070470020FCE700000004014085
:10F2B0000EB500200090019002900C21684600F0ED
:10F2C000C3F90EBD02200C49086000BF0B4800685E
:10F2D0000028FBD0012008491031086000BF074812
:10F2E00000680028FBD000200349086000BF0348E5
:10F2F00000680028FBD0704704E5014000E40140AD
:10F3000014490878AA2801D00020704748780004E2
:10F310008A7840EA0220CA7810430F4A10600879C0
:10F3200000044A7940EA02208A7910430B4A1060AF
:10F33000087ACA7940EA0220094A1080487A000413
:10F340008A7A40EA0220CA7A1043064A10600120F5
:10F35000DBE7000080100010084700201047002065
:10F36000144700200C4700200148024908607047FC
:10F370000090D0031847002010B500F025FA28B1FE
:10F3800062480088C0F304206149086000F07CFAFC
:10F3900010B160486049486700F09EFA30B15B48A0
:10F3A000E0380068C0F342305C49086000F0CAFAF7
:10F3B00028B15B48006820F080705949086000F06F
:10F3C000D9FA48B10020574908604FF08041C1F890
:10F3D00010015249091F086000F002FB18B1032018
:10F3E0004E496431086000F013FB68B105204E49B6
:10F3F000086001204C497831086000204A490831F2
:10F4000008603F20091F086000F01AFB002855D053
:10F410003E48E0300068454908603C48E4300068F8
:10F42000091D08603948E8300068091D0860374840
:10F43000EC300068091D08603448F0300068091D90
:10F4400008603248F4300068091D08602F48F83021
:10F4500000683649203108602C48FC300068091DDE
:10F46000086033480068091D08603148001D0068C5
:10F47000091D08602E4808300068091D08602C48E6
:10F480000C300068091D08602948103000682749C1
:10F4900040310860264814300068091D086024487F
:10F4A00018300068091D086021481C300068091DDB
:10F4B00008601F4820300068091D086000F04CF902
:10F4C00010B1FB201B49086000F054F930B10F481F
:10F4D000CC38006800F04F001749086000F09EF932
:10F4E00040B11648006800F0010018B16FF001004B
:10F4F0001249086000F0E0F928B11148006840F4B2
:10F5000080600F490860FFF72FFF10BD2403001033
:10F51000403501400DF0ADBA00C007403C05004049
:10F52000FCED00E00C0100401056004020C50040FA
:10F530002404001018F50040E40E004000040040D0
:10F540003C17004001200549086005480349F8318F
:10F55000086000200149086070470000080501406C
:10F560003546526E00B50246002011490860D003AE
:10F570004FF47A71B0FBF1F0401E0E490860002094
:10F580000C49083108600846006840F00100086036
:10F590000846006840F0080008600120044908603F
:10F5A00000BF05480028FCD0FFF7CCFF00BD0000DD
:10F5B00000000140040501409DF202002DE9F041E8
:10F5C000164807681648066816480068050B15486F
:10F5D0000088C0F30B0000B16D1C002404E006EBB2
:10F5E000043000F051FA641CAC42F8D30D480068B6
:10F5F00085080C48007800F0030000B16D1C002461
:10F6000007E057F82410042202FB046000F05AFAC5
:10F61000641CAC42F5D3BDE8F08100000C4700202B
:10F62000084700201047002002E008C8121F08C148
:10F63000002AFAD170477047002001E001C1121F73
:10F64000002AFBD1704700007FB504460D464FF0FD
:10F65000102046694FF43C3000900C2D1BD1FFF771
:10F6600031FE2068019060680290A06803900F4806
:10F67000009900F027FA0D486C30019900F022FA49
:10F680000A487030029900F01DFA08487430039956
:10F6900000F018FA08E0B6F53C3F05D0FFF712FE7F
:10F6A0000248009900F00EFA7FBD0000141000100F
:10F6B00010B50022074801684FF4C03000F00EF882
:10F6C000044605480088844201D1012010BD002075
:10F6D000FCE70000104700201447002030B5034627
:10F6E0000C4612B94FF6FF7100E011880846002160
:10F6F00010E0051245EA0025A8B25D5C6840C0F341
:10F700000315684080EA0035A8B205062D0D80EA91
:10F710004500491CA142ECD330BD30B5044600255C
:10F7200004E04FF45C7000F004F86D1CA542F8D3BF
:10F7300030BD00210CE0002201E000BF521C0A2A6B
:10F74000FBD300BF00BF00BF00BF00BF00BF491C0C
:10F750008142F0D370470000054800680A2805D1AF
:10F760000348001D006808B9012070470120FCE72C
:10F770003001001013480078062820D11148001DE0
:10F78000007800F00F00D0B90E480830007800F083
:10F79000F000302801D1012070470A480830007875
:10F7A00000F0F000402801D10120F5E705480830BD
:10F7B000007800F0F000502801D10120ECE7002093
:10F7C000EAE70000E00F00F013480078062820D197
:10F7D0001148001D007800F00F00D0B90E48083025
:10F7E000007800F0F000302801D1012070470A486D
:10F7F0000830007800F0F000402801D10120F5E742
:10F8000005480830007800F0F000502801D10120B0
:10F81000ECE70020EAE70000E00F00F0184800687D
:10F820000A2805D11648001D006808B90120704754
:10F8300014480078062820D11248001D007800F0F6
:10F840000F00D0B90F480830007800F0F0003028E1
:10F8500001D10120EBE70B480830007800F0F00000
:10F86000402801D10120E2E706480830007800F086
:10F87000F000502801D10120D9E70120D7E700008E
:10F8800030010010E00F00F00A48007806280ED181
:10F890000848001D007800F00F0040B90548083006
:10F8A000007800F0F000302801D1012070470020DE
:10F8B000FCE70000E00F00F006480068062806D1CB
:10F8C0000448001D0068062801D10120704700206F
:10F8D000FCE7000030010010184800680A2805D134
:10F8E0001648001D006808B90120704714480078C8
:10F8F000062820D11248001D007800F00F00D0B972
:10F900000F480830007800F0F000302801D10120C5
:10F91000EBE70B480830007800F0F000402801D1F8
:10F920000120E2E706480830007800F0F000502897
:10F9300001D10120D9E70120D7E7000030010010F4
:10F94000E00F00F00A48007806280ED10848001D94
:10F95000007800F00F0040B905480830007800F04A
:10F96000F000302801D1012070470020FCE70000A2
:10F97000E00F00F0184800680A2805D11648001D5D
:10F98000006808B90120704714480078062820D183
:10F990001248001D007800F00F00D0B90F48083061
:10F9A000007800F0F000302801D10120EBE70B488F
:10F9B0000830007800F0F000402801D10120E2E793
:10F9C00006480830007800F0F000502801D10120EE
:10F9D000D9E70120D7E7000030010010E00F00F068
:10F9E0000A48007806280ED10848001D007800F06B
:10F9F0000F0040B905480830007800F0F0003028CA
:10FA000001D1012070470020FCE70000E00F00F06A
:10FA10000A48007806280ED10848001D007800F03A
:10FA20000F0040B905480830007800F0F000302899
:10FA300001D1012070470020FCE70000E00F00F03A
:10FA40000F4800680A2805D10D48001D006808B954
:10FA5000012070470B48007806280ED10948001D88
:10FA6000007800F00F0040B906480830007800F038
:10FA7000F000502801D10120EBE70120E9E7000068
:10FA800030010010E00F00F002210C4A116000BFAD
:10FA90000B4909680029FBD00849091D086000BF0F
:10FAA000074909680029FBD00021044A116000BF02
:10FAB000034909680029FBD07047000004E50140B4
:10FAC00000E4014001220B4B1A6000BF0A4A126891
:10FAD000002AFBD0016000BF074A1268002AFBD051
:10FAE0000022044B1A6000BF034A1268002AFBD0B0
:10FAF0007047000004E5014000E4014010B5002417
:10FB0000FFF7FEFB002839D042F21070FFF72AFD04
:10FB100000BF00BF6420FFF700FEFFF713FDFFF7F3
:10FB20004DFD601CC4B2FFF7C3FD08B9032CF1DB27
:10FB3000032C01DAFFF7BCFB4FF47A70FFF7EDFD01
:10FB400000BF00BF00BF00BF00BFBFF34F8F00BFAB
:10FB500000BF00BF0C48006800F4E0600B49084398
:10FB6000001D0949086000BF00BF00BFBFF34F8FF1
:10FB700000BF00BF00BF00BF00BFFDE74FF4C030B3
:10FB800000F006F8002010BD0CED00E00000FA05C2
:10FB900070B5054600F020F8044604B170BD4FF082
:10FBA000FF300B4908604FF0E021C1F880020146A8
:10FBB0000748001D016007480160284613DF04461E
:10FBC00004B1EBE72846FFF725FB00BFE6E700009E
:10FBD00080E100E084E200E01FB5054B0FCB8DE82B
:10FBE0000F00684618DF0446204604B010BD000030
:10FBF00004FC020001000000000000000000000002
:10FC000000000000020000000000000000000000F2
:10FC10000000000034FC020008470020140000002F
:10FC200028F6020048FC02001C47002004080000DF
:10FC300038F6020000000000000000000000000094
:08FC4000000000000090D00359
:040000050002F20102
:00000001FF
